{
	"contracts/LoanCoordinationThread.sol": {
		"CommunicationsTool": {
			"abi": [
				{
					"inputs": [],
					"stateMutability": "nonpayable",
					"type": "constructor"
				},
				{
					"anonymous": false,
					"inputs": [
						{
							"indexed": true,
							"internalType": "bytes32",
							"name": "threadId",
							"type": "bytes32"
						},
						{
							"indexed": true,
							"internalType": "address",
							"name": "sender",
							"type": "address"
						},
						{
							"indexed": false,
							"internalType": "uint256",
							"name": "sequenceNumber",
							"type": "uint256"
						},
						{
							"indexed": false,
							"internalType": "uint256",
							"name": "timestamp",
							"type": "uint256"
						}
					],
					"name": "ApprovalReceived",
					"type": "event"
				},
				{
					"anonymous": false,
					"inputs": [
						{
							"indexed": true,
							"internalType": "bytes32",
							"name": "threadId",
							"type": "bytes32"
						},
						{
							"indexed": true,
							"internalType": "address",
							"name": "sender",
							"type": "address"
						},
						{
							"indexed": false,
							"internalType": "uint256",
							"name": "sequenceNumber",
							"type": "uint256"
						},
						{
							"indexed": false,
							"internalType": "uint256",
							"name": "timestamp",
							"type": "uint256"
						}
					],
					"name": "ProofSent",
					"type": "event"
				},
				{
					"anonymous": false,
					"inputs": [
						{
							"indexed": true,
							"internalType": "bytes32",
							"name": "threadId",
							"type": "bytes32"
						},
						{
							"indexed": true,
							"internalType": "address",
							"name": "sender",
							"type": "address"
						},
						{
							"indexed": false,
							"internalType": "uint256",
							"name": "sequenceNumber",
							"type": "uint256"
						},
						{
							"indexed": false,
							"internalType": "uint256",
							"name": "timestamp",
							"type": "uint256"
						}
					],
					"name": "RejectionReceived",
					"type": "event"
				},
				{
					"anonymous": false,
					"inputs": [
						{
							"indexed": true,
							"internalType": "bytes32",
							"name": "threadId",
							"type": "bytes32"
						},
						{
							"indexed": true,
							"internalType": "address",
							"name": "sender",
							"type": "address"
						},
						{
							"indexed": false,
							"internalType": "uint256",
							"name": "sequenceNumber",
							"type": "uint256"
						},
						{
							"indexed": false,
							"internalType": "uint256",
							"name": "timestamp",
							"type": "uint256"
						}
					],
					"name": "RiskEvaluationReceived",
					"type": "event"
				},
				{
					"anonymous": false,
					"inputs": [
						{
							"indexed": true,
							"internalType": "bytes32",
							"name": "threadId",
							"type": "bytes32"
						},
						{
							"indexed": true,
							"internalType": "address",
							"name": "sender",
							"type": "address"
						},
						{
							"indexed": false,
							"internalType": "uint256",
							"name": "sequenceNumber",
							"type": "uint256"
						},
						{
							"indexed": false,
							"internalType": "uint256",
							"name": "timestamp",
							"type": "uint256"
						}
					],
					"name": "RiskEvaluationRequested",
					"type": "event"
				},
				{
					"anonymous": false,
					"inputs": [
						{
							"indexed": true,
							"internalType": "bytes32",
							"name": "threadId",
							"type": "bytes32"
						},
						{
							"indexed": true,
							"internalType": "address",
							"name": "sender",
							"type": "address"
						},
						{
							"indexed": false,
							"internalType": "uint256",
							"name": "sequenceNumber",
							"type": "uint256"
						},
						{
							"indexed": false,
							"internalType": "uint256",
							"name": "timestamp",
							"type": "uint256"
						},
						{
							"indexed": false,
							"internalType": "bytes32",
							"name": "resultHash",
							"type": "bytes32"
						}
					],
					"name": "RiskEvaluationResultReceived",
					"type": "event"
				},
				{
					"anonymous": false,
					"inputs": [
						{
							"indexed": true,
							"internalType": "bytes32",
							"name": "threadId",
							"type": "bytes32"
						},
						{
							"indexed": true,
							"internalType": "address",
							"name": "sender",
							"type": "address"
						},
						{
							"indexed": false,
							"internalType": "uint256",
							"name": "sequenceNumber",
							"type": "uint256"
						},
						{
							"indexed": false,
							"internalType": "uint256",
							"name": "timestamp",
							"type": "uint256"
						}
					],
					"name": "ThreadCreated",
					"type": "event"
				},
				{
					"inputs": [],
					"name": "admin",
					"outputs": [
						{
							"internalType": "address",
							"name": "",
							"type": "address"
						}
					],
					"stateMutability": "view",
					"type": "function"
				},
				{
					"inputs": [
						{
							"internalType": "bytes32",
							"name": "threadId",
							"type": "bytes32"
						}
					],
					"name": "approveLoan",
					"outputs": [],
					"stateMutability": "nonpayable",
					"type": "function"
				},
				{
					"inputs": [
						{
							"internalType": "bytes32",
							"name": "threadId",
							"type": "bytes32"
						}
					],
					"name": "createThread",
					"outputs": [],
					"stateMutability": "nonpayable",
					"type": "function"
				},
				{
					"inputs": [
						{
							"internalType": "bytes32",
							"name": "threadId",
							"type": "bytes32"
						}
					],
					"name": "getThreadActions",
					"outputs": [
						{
							"components": [
								{
									"internalType": "address",
									"name": "sender",
									"type": "address"
								},
								{
									"internalType": "bytes32",
									"name": "threadId",
									"type": "bytes32"
								},
								{
									"internalType": "enum CommunicationsTool.MessageType",
									"name": "messageType",
									"type": "uint8"
								},
								{
									"internalType": "string",
									"name": "ciphertextURI",
									"type": "string"
								},
								{
									"internalType": "uint256",
									"name": "sequenceNumber",
									"type": "uint256"
								},
								{
									"internalType": "uint256",
									"name": "timestamp",
									"type": "uint256"
								},
								{
									"internalType": "bytes32",
									"name": "payloadHash",
									"type": "bytes32"
								}
							],
							"internalType": "struct CommunicationsTool.ThreadAction[]",
							"name": "",
							"type": "tuple[]"
						}
					],
					"stateMutability": "view",
					"type": "function"
				},
				{
					"inputs": [
						{
							"internalType": "bytes32",
							"name": "threadId",
							"type": "bytes32"
						},
						{
							"internalType": "bytes32",
							"name": "resultHash",
							"type": "bytes32"
						}
					],
					"name": "receiveRiskEvaluation",
					"outputs": [],
					"stateMutability": "nonpayable",
					"type": "function"
				},
				{
					"inputs": [
						{
							"internalType": "bytes32",
							"name": "threadId",
							"type": "bytes32"
						},
						{
							"internalType": "bytes32",
							"name": "resultHash",
							"type": "bytes32"
						}
					],
					"name": "receiveRiskEvaluationResult",
					"outputs": [],
					"stateMutability": "nonpayable",
					"type": "function"
				},
				{
					"inputs": [
						{
							"internalType": "bytes32",
							"name": "threadId",
							"type": "bytes32"
						}
					],
					"name": "rejectLoan",
					"outputs": [],
					"stateMutability": "nonpayable",
					"type": "function"
				},
				{
					"inputs": [
						{
							"internalType": "bytes32",
							"name": "threadId",
							"type": "bytes32"
						}
					],
					"name": "requestRiskEvaluation",
					"outputs": [],
					"stateMutability": "nonpayable",
					"type": "function"
				},
				{
					"inputs": [
						{
							"internalType": "address",
							"name": "",
							"type": "address"
						}
					],
					"name": "roles",
					"outputs": [
						{
							"internalType": "string",
							"name": "",
							"type": "string"
						}
					],
					"stateMutability": "view",
					"type": "function"
				},
				{
					"inputs": [
						{
							"internalType": "bytes32",
							"name": "threadId",
							"type": "bytes32"
						},
						{
							"internalType": "bytes32",
							"name": "resultHash",
							"type": "bytes32"
						}
					],
					"name": "sendProof",
					"outputs": [],
					"stateMutability": "nonpayable",
					"type": "function"
				},
				{
					"inputs": [
						{
							"internalType": "bytes32",
							"name": "",
							"type": "bytes32"
						}
					],
					"name": "sequenceNumbers",
					"outputs": [
						{
							"internalType": "uint256",
							"name": "",
							"type": "uint256"
						}
					],
					"stateMutability": "view",
					"type": "function"
				},
				{
					"inputs": [
						{
							"internalType": "bytes32",
							"name": "",
							"type": "bytes32"
						},
						{
							"internalType": "uint256",
							"name": "",
							"type": "uint256"
						}
					],
					"name": "threadActions",
					"outputs": [
						{
							"internalType": "address",
							"name": "sender",
							"type": "address"
						},
						{
							"internalType": "bytes32",
							"name": "threadId",
							"type": "bytes32"
						},
						{
							"internalType": "enum CommunicationsTool.MessageType",
							"name": "messageType",
							"type": "uint8"
						},
						{
							"internalType": "string",
							"name": "ciphertextURI",
							"type": "string"
						},
						{
							"internalType": "uint256",
							"name": "sequenceNumber",
							"type": "uint256"
						},
						{
							"internalType": "uint256",
							"name": "timestamp",
							"type": "uint256"
						},
						{
							"internalType": "bytes32",
							"name": "payloadHash",
							"type": "bytes32"
						}
					],
					"stateMutability": "view",
					"type": "function"
				}
			],
			"devdoc": {
				"kind": "dev",
				"methods": {},
				"version": 1
			},
			"evm": {
				"assembly": "    /* \"contracts/LoanCoordinationThread.sol\":60:8340  contract CommunicationsTool {... */\n  mstore(0x40, 0x80)\n    /* \"contracts/LoanCoordinationThread.sol\":1235:1324  constructor() {... */\n  callvalue\n  dup1\n  iszero\n  tag_1\n  jumpi\n  revert(0x00, 0x00)\ntag_1:\n  pop\n    /* \"contracts/LoanCoordinationThread.sol\":1268:1278  msg.sender */\n  caller\n    /* \"contracts/LoanCoordinationThread.sol\":1260:1265  admin */\n  0x01\n  0x00\n    /* \"contracts/LoanCoordinationThread.sol\":1260:1278  admin = msg.sender */\n  0x0100\n  exp\n  dup2\n  sload\n  dup2\n  0xffffffffffffffffffffffffffffffffffffffff\n  mul\n  not\n  and\n  swap1\n  dup4\n  0xffffffffffffffffffffffffffffffffffffffff\n  and\n  mul\n  or\n  swap1\n  sstore\n  pop\n    /* \"contracts/LoanCoordinationThread.sol\":1289:1316  roles[msg.sender] = \"admin\" */\n  mload(0x40)\n  dup1\n  0x40\n  add\n  0x40\n  mstore\n  dup1\n  0x05\n  dup2\n  mstore\n  0x20\n  add\n  0x61646d696e000000000000000000000000000000000000000000000000000000\n  dup2\n  mstore\n  pop\n    /* \"contracts/LoanCoordinationThread.sol\":1289:1294  roles */\n  0x03\n    /* \"contracts/LoanCoordinationThread.sol\":1289:1306  roles[msg.sender] */\n  0x00\n    /* \"contracts/LoanCoordinationThread.sol\":1295:1305  msg.sender */\n  caller\n    /* \"contracts/LoanCoordinationThread.sol\":1289:1306  roles[msg.sender] */\n  0xffffffffffffffffffffffffffffffffffffffff\n  and\n  0xffffffffffffffffffffffffffffffffffffffff\n  and\n  dup2\n  mstore\n  0x20\n  add\n  swap1\n  dup2\n  mstore\n  0x20\n  add\n  0x00\n  keccak256\n    /* \"contracts/LoanCoordinationThread.sol\":1289:1316  roles[msg.sender] = \"admin\" */\n  swap1\n  dup2\n  tag_4\n  swap2\n  swap1\n  tag_5\n  jump\t// in\ntag_4:\n  pop\n    /* \"contracts/LoanCoordinationThread.sol\":60:8340  contract CommunicationsTool {... */\n  jump(tag_6)\n    /* \"#utility.yul\":7:106   */\ntag_7:\n    /* \"#utility.yul\":59:65   */\n  0x00\n    /* \"#utility.yul\":93:98   */\n  dup2\n    /* \"#utility.yul\":87:99   */\n  mload\n    /* \"#utility.yul\":77:99   */\n  swap1\n  pop\n    /* \"#utility.yul\":7:106   */\n  swap2\n  swap1\n  pop\n  jump\t// out\n    /* \"#utility.yul\":112:292   */\ntag_8:\n    /* \"#utility.yul\":160:237   */\n  0x4e487b7100000000000000000000000000000000000000000000000000000000\n    /* \"#utility.yul\":157:158   */\n  0x00\n    /* \"#utility.yul\":150:238   */\n  mstore\n    /* \"#utility.yul\":257:261   */\n  0x41\n    /* \"#utility.yul\":254:255   */\n  0x04\n    /* \"#utility.yul\":247:262   */\n  mstore\n    /* \"#utility.yul\":281:285   */\n  0x24\n    /* \"#utility.yul\":278:279   */\n  0x00\n    /* \"#utility.yul\":271:286   */\n  revert\n    /* \"#utility.yul\":298:478   */\ntag_9:\n    /* \"#utility.yul\":346:423   */\n  0x4e487b7100000000000000000000000000000000000000000000000000000000\n    /* \"#utility.yul\":343:344   */\n  0x00\n    /* \"#utility.yul\":336:424   */\n  mstore\n    /* \"#utility.yul\":443:447   */\n  0x22\n    /* \"#utility.yul\":440:441   */\n  0x04\n    /* \"#utility.yul\":433:448   */\n  mstore\n    /* \"#utility.yul\":467:471   */\n  0x24\n    /* \"#utility.yul\":464:465   */\n  0x00\n    /* \"#utility.yul\":457:472   */\n  revert\n    /* \"#utility.yul\":484:804   */\ntag_10:\n    /* \"#utility.yul\":528:534   */\n  0x00\n    /* \"#utility.yul\":565:566   */\n  0x02\n    /* \"#utility.yul\":559:563   */\n  dup3\n    /* \"#utility.yul\":555:567   */\n  div\n    /* \"#utility.yul\":545:567   */\n  swap1\n  pop\n    /* \"#utility.yul\":612:613   */\n  0x01\n    /* \"#utility.yul\":606:610   */\n  dup3\n    /* \"#utility.yul\":602:614   */\n  and\n    /* \"#utility.yul\":633:651   */\n  dup1\n    /* \"#utility.yul\":623:704   */\n  tag_32\n  jumpi\n    /* \"#utility.yul\":689:693   */\n  0x7f\n    /* \"#utility.yul\":681:687   */\n  dup3\n    /* \"#utility.yul\":677:694   */\n  and\n    /* \"#utility.yul\":667:694   */\n  swap2\n  pop\n    /* \"#utility.yul\":623:704   */\ntag_32:\n    /* \"#utility.yul\":751:753   */\n  0x20\n    /* \"#utility.yul\":743:749   */\n  dup3\n    /* \"#utility.yul\":740:754   */\n  lt\n    /* \"#utility.yul\":720:738   */\n  dup2\n    /* \"#utility.yul\":717:755   */\n  sub\n    /* \"#utility.yul\":714:798   */\n  tag_33\n  jumpi\n    /* \"#utility.yul\":770:788   */\n  tag_34\n  tag_9\n  jump\t// in\ntag_34:\n    /* \"#utility.yul\":714:798   */\ntag_33:\n    /* \"#utility.yul\":535:804   */\n  pop\n    /* \"#utility.yul\":484:804   */\n  swap2\n  swap1\n  pop\n  jump\t// out\n    /* \"#utility.yul\":810:951   */\ntag_11:\n    /* \"#utility.yul\":859:863   */\n  0x00\n    /* \"#utility.yul\":882:885   */\n  dup2\n    /* \"#utility.yul\":874:885   */\n  swap1\n  pop\n    /* \"#utility.yul\":905:908   */\n  dup2\n    /* \"#utility.yul\":902:903   */\n  0x00\n    /* \"#utility.yul\":895:909   */\n  mstore\n    /* \"#utility.yul\":939:943   */\n  0x20\n    /* \"#utility.yul\":936:937   */\n  0x00\n    /* \"#utility.yul\":926:944   */\n  keccak256\n    /* \"#utility.yul\":918:944   */\n  swap1\n  pop\n    /* \"#utility.yul\":810:951   */\n  swap2\n  swap1\n  pop\n  jump\t// out\n    /* \"#utility.yul\":957:1050   */\ntag_12:\n    /* \"#utility.yul\":994:1000   */\n  0x00\n    /* \"#utility.yul\":1041:1043   */\n  0x20\n    /* \"#utility.yul\":1036:1038   */\n  0x1f\n    /* \"#utility.yul\":1029:1034   */\n  dup4\n    /* \"#utility.yul\":1025:1039   */\n  add\n    /* \"#utility.yul\":1021:1044   */\n  div\n    /* \"#utility.yul\":1011:1044   */\n  swap1\n  pop\n    /* \"#utility.yul\":957:1050   */\n  swap2\n  swap1\n  pop\n  jump\t// out\n    /* \"#utility.yul\":1056:1163   */\ntag_13:\n    /* \"#utility.yul\":1100:1108   */\n  0x00\n    /* \"#utility.yul\":1150:1155   */\n  dup3\n    /* \"#utility.yul\":1144:1148   */\n  dup3\n    /* \"#utility.yul\":1140:1156   */\n  shl\n    /* \"#utility.yul\":1119:1156   */\n  swap1\n  pop\n    /* \"#utility.yul\":1056:1163   */\n  swap3\n  swap2\n  pop\n  pop\n  jump\t// out\n    /* \"#utility.yul\":1169:1562   */\ntag_14:\n    /* \"#utility.yul\":1238:1244   */\n  0x00\n    /* \"#utility.yul\":1288:1289   */\n  0x08\n    /* \"#utility.yul\":1276:1286   */\n  dup4\n    /* \"#utility.yul\":1272:1290   */\n  mul\n    /* \"#utility.yul\":1311:1408   */\n  tag_39\n    /* \"#utility.yul\":1341:1407   */\n  0xffffffffffffffffffffffffffffffffffffffffffffffffffffffffffffffff\n    /* \"#utility.yul\":1330:1339   */\n  dup3\n    /* \"#utility.yul\":1311:1408   */\n  tag_13\n  jump\t// in\ntag_39:\n    /* \"#utility.yul\":1429:1468   */\n  tag_40\n    /* \"#utility.yul\":1459:1467   */\n  dup7\n    /* \"#utility.yul\":1448:1457   */\n  dup4\n    /* \"#utility.yul\":1429:1468   */\n  tag_13\n  jump\t// in\ntag_40:\n    /* \"#utility.yul\":1417:1468   */\n  swap6\n  pop\n    /* \"#utility.yul\":1501:1505   */\n  dup1\n    /* \"#utility.yul\":1497:1506   */\n  not\n    /* \"#utility.yul\":1490:1495   */\n  dup5\n    /* \"#utility.yul\":1486:1507   */\n  and\n    /* \"#utility.yul\":1477:1507   */\n  swap4\n  pop\n    /* \"#utility.yul\":1550:1554   */\n  dup1\n    /* \"#utility.yul\":1540:1548   */\n  dup7\n    /* \"#utility.yul\":1536:1555   */\n  and\n    /* \"#utility.yul\":1529:1534   */\n  dup5\n    /* \"#utility.yul\":1526:1556   */\n  or\n    /* \"#utility.yul\":1516:1556   */\n  swap3\n  pop\n    /* \"#utility.yul\":1245:1562   */\n  pop\n  pop\n    /* \"#utility.yul\":1169:1562   */\n  swap4\n  swap3\n  pop\n  pop\n  pop\n  jump\t// out\n    /* \"#utility.yul\":1568:1645   */\ntag_15:\n    /* \"#utility.yul\":1605:1612   */\n  0x00\n    /* \"#utility.yul\":1634:1639   */\n  dup2\n    /* \"#utility.yul\":1623:1639   */\n  swap1\n  pop\n    /* \"#utility.yul\":1568:1645   */\n  swap2\n  swap1\n  pop\n  jump\t// out\n    /* \"#utility.yul\":1651:1711   */\ntag_16:\n    /* \"#utility.yul\":1679:1682   */\n  0x00\n    /* \"#utility.yul\":1700:1705   */\n  dup2\n    /* \"#utility.yul\":1693:1705   */\n  swap1\n  pop\n    /* \"#utility.yul\":1651:1711   */\n  swap2\n  swap1\n  pop\n  jump\t// out\n    /* \"#utility.yul\":1717:1859   */\ntag_17:\n    /* \"#utility.yul\":1767:1776   */\n  0x00\n    /* \"#utility.yul\":1800:1853   */\n  tag_44\n    /* \"#utility.yul\":1818:1852   */\n  tag_45\n    /* \"#utility.yul\":1827:1851   */\n  tag_46\n    /* \"#utility.yul\":1845:1850   */\n  dup5\n    /* \"#utility.yul\":1827:1851   */\n  tag_15\n  jump\t// in\ntag_46:\n    /* \"#utility.yul\":1818:1852   */\n  tag_16\n  jump\t// in\ntag_45:\n    /* \"#utility.yul\":1800:1853   */\n  tag_15\n  jump\t// in\ntag_44:\n    /* \"#utility.yul\":1787:1853   */\n  swap1\n  pop\n    /* \"#utility.yul\":1717:1859   */\n  swap2\n  swap1\n  pop\n  jump\t// out\n    /* \"#utility.yul\":1865:1940   */\ntag_18:\n    /* \"#utility.yul\":1908:1911   */\n  0x00\n    /* \"#utility.yul\":1929:1934   */\n  dup2\n    /* \"#utility.yul\":1922:1934   */\n  swap1\n  pop\n    /* \"#utility.yul\":1865:1940   */\n  swap2\n  swap1\n  pop\n  jump\t// out\n    /* \"#utility.yul\":1946:2215   */\ntag_19:\n    /* \"#utility.yul\":2056:2095   */\n  tag_49\n    /* \"#utility.yul\":2087:2094   */\n  dup4\n    /* \"#utility.yul\":2056:2095   */\n  tag_17\n  jump\t// in\ntag_49:\n    /* \"#utility.yul\":2117:2208   */\n  tag_50\n    /* \"#utility.yul\":2166:2207   */\n  tag_51\n    /* \"#utility.yul\":2190:2206   */\n  dup3\n    /* \"#utility.yul\":2166:2207   */\n  tag_18\n  jump\t// in\ntag_51:\n    /* \"#utility.yul\":2158:2164   */\n  dup5\n    /* \"#utility.yul\":2151:2155   */\n  dup5\n    /* \"#utility.yul\":2145:2156   */\n  sload\n    /* \"#utility.yul\":2117:2208   */\n  tag_14\n  jump\t// in\ntag_50:\n    /* \"#utility.yul\":2111:2115   */\n  dup3\n    /* \"#utility.yul\":2104:2209   */\n  sstore\n    /* \"#utility.yul\":2022:2215   */\n  pop\n    /* \"#utility.yul\":1946:2215   */\n  pop\n  pop\n  pop\n  jump\t// out\n    /* \"#utility.yul\":2221:2294   */\ntag_20:\n    /* \"#utility.yul\":2266:2269   */\n  0x00\n    /* \"#utility.yul\":2287:2288   */\n  0x00\n    /* \"#utility.yul\":2280:2288   */\n  swap1\n  pop\n    /* \"#utility.yul\":2221:2294   */\n  swap1\n  jump\t// out\n    /* \"#utility.yul\":2300:2489   */\ntag_21:\n    /* \"#utility.yul\":2377:2409   */\n  tag_54\n  tag_20\n  jump\t// in\ntag_54:\n    /* \"#utility.yul\":2418:2483   */\n  tag_55\n    /* \"#utility.yul\":2476:2482   */\n  dup2\n    /* \"#utility.yul\":2468:2474   */\n  dup5\n    /* \"#utility.yul\":2462:2466   */\n  dup5\n    /* \"#utility.yul\":2418:2483   */\n  tag_19\n  jump\t// in\ntag_55:\n    /* \"#utility.yul\":2353:2489   */\n  pop\n    /* \"#utility.yul\":2300:2489   */\n  pop\n  pop\n  jump\t// out\n    /* \"#utility.yul\":2495:2681   */\ntag_22:\n    /* \"#utility.yul\":2555:2675   */\ntag_57:\n    /* \"#utility.yul\":2572:2575   */\n  dup2\n    /* \"#utility.yul\":2565:2570   */\n  dup2\n    /* \"#utility.yul\":2562:2576   */\n  lt\n    /* \"#utility.yul\":2555:2675   */\n  iszero\n  tag_59\n  jumpi\n    /* \"#utility.yul\":2626:2665   */\n  tag_60\n    /* \"#utility.yul\":2663:2664   */\n  0x00\n    /* \"#utility.yul\":2656:2661   */\n  dup3\n    /* \"#utility.yul\":2626:2665   */\n  tag_21\n  jump\t// in\ntag_60:\n    /* \"#utility.yul\":2599:2600   */\n  0x01\n    /* \"#utility.yul\":2592:2597   */\n  dup2\n    /* \"#utility.yul\":2588:2601   */\n  add\n    /* \"#utility.yul\":2579:2601   */\n  swap1\n  pop\n    /* \"#utility.yul\":2555:2675   */\n  jump(tag_57)\ntag_59:\n    /* \"#utility.yul\":2495:2681   */\n  pop\n  pop\n  jump\t// out\n    /* \"#utility.yul\":2687:3230   */\ntag_23:\n    /* \"#utility.yul\":2788:2790   */\n  0x1f\n    /* \"#utility.yul\":2783:2786   */\n  dup3\n    /* \"#utility.yul\":2780:2791   */\n  gt\n    /* \"#utility.yul\":2777:3223   */\n  iszero\n  tag_62\n  jumpi\n    /* \"#utility.yul\":2822:2860   */\n  tag_63\n    /* \"#utility.yul\":2854:2859   */\n  dup2\n    /* \"#utility.yul\":2822:2860   */\n  tag_11\n  jump\t// in\ntag_63:\n    /* \"#utility.yul\":2906:2935   */\n  tag_64\n    /* \"#utility.yul\":2924:2934   */\n  dup5\n    /* \"#utility.yul\":2906:2935   */\n  tag_12\n  jump\t// in\ntag_64:\n    /* \"#utility.yul\":2896:2904   */\n  dup2\n    /* \"#utility.yul\":2892:2936   */\n  add\n    /* \"#utility.yul\":3089:3091   */\n  0x20\n    /* \"#utility.yul\":3077:3087   */\n  dup6\n    /* \"#utility.yul\":3074:3092   */\n  lt\n    /* \"#utility.yul\":3071:3120   */\n  iszero\n  tag_65\n  jumpi\n    /* \"#utility.yul\":3110:3118   */\n  dup2\n    /* \"#utility.yul\":3095:3118   */\n  swap1\n  pop\n    /* \"#utility.yul\":3071:3120   */\ntag_65:\n    /* \"#utility.yul\":3133:3213   */\n  tag_66\n    /* \"#utility.yul\":3189:3211   */\n  tag_67\n    /* \"#utility.yul\":3207:3210   */\n  dup6\n    /* \"#utility.yul\":3189:3211   */\n  tag_12\n  jump\t// in\ntag_67:\n    /* \"#utility.yul\":3179:3187   */\n  dup4\n    /* \"#utility.yul\":3175:3212   */\n  add\n    /* \"#utility.yul\":3162:3173   */\n  dup3\n    /* \"#utility.yul\":3133:3213   */\n  tag_22\n  jump\t// in\ntag_66:\n    /* \"#utility.yul\":2792:3223   */\n  pop\n  pop\n    /* \"#utility.yul\":2777:3223   */\ntag_62:\n    /* \"#utility.yul\":2687:3230   */\n  pop\n  pop\n  pop\n  jump\t// out\n    /* \"#utility.yul\":3236:3353   */\ntag_24:\n    /* \"#utility.yul\":3290:3298   */\n  0x00\n    /* \"#utility.yul\":3340:3345   */\n  dup3\n    /* \"#utility.yul\":3334:3338   */\n  dup3\n    /* \"#utility.yul\":3330:3346   */\n  shr\n    /* \"#utility.yul\":3309:3346   */\n  swap1\n  pop\n    /* \"#utility.yul\":3236:3353   */\n  swap3\n  swap2\n  pop\n  pop\n  jump\t// out\n    /* \"#utility.yul\":3359:3528   */\ntag_25:\n    /* \"#utility.yul\":3403:3409   */\n  0x00\n    /* \"#utility.yul\":3436:3487   */\n  tag_70\n    /* \"#utility.yul\":3484:3485   */\n  0x00\n    /* \"#utility.yul\":3480:3486   */\n  not\n    /* \"#utility.yul\":3472:3477   */\n  dup5\n    /* \"#utility.yul\":3469:3470   */\n  0x08\n    /* \"#utility.yul\":3465:3478   */\n  mul\n    /* \"#utility.yul\":3436:3487   */\n  tag_24\n  jump\t// in\ntag_70:\n    /* \"#utility.yul\":3432:3488   */\n  not\n    /* \"#utility.yul\":3517:3521   */\n  dup1\n    /* \"#utility.yul\":3511:3515   */\n  dup4\n    /* \"#utility.yul\":3507:3522   */\n  and\n    /* \"#utility.yul\":3497:3522   */\n  swap2\n  pop\n    /* \"#utility.yul\":3410:3528   */\n  pop\n    /* \"#utility.yul\":3359:3528   */\n  swap3\n  swap2\n  pop\n  pop\n  jump\t// out\n    /* \"#utility.yul\":3533:3828   */\ntag_26:\n    /* \"#utility.yul\":3609:3613   */\n  0x00\n    /* \"#utility.yul\":3755:3784   */\n  tag_72\n    /* \"#utility.yul\":3780:3783   */\n  dup4\n    /* \"#utility.yul\":3774:3778   */\n  dup4\n    /* \"#utility.yul\":3755:3784   */\n  tag_25\n  jump\t// in\ntag_72:\n    /* \"#utility.yul\":3747:3784   */\n  swap2\n  pop\n    /* \"#utility.yul\":3817:3820   */\n  dup3\n    /* \"#utility.yul\":3814:3815   */\n  0x02\n    /* \"#utility.yul\":3810:3821   */\n  mul\n    /* \"#utility.yul\":3804:3808   */\n  dup3\n    /* \"#utility.yul\":3801:3822   */\n  or\n    /* \"#utility.yul\":3793:3822   */\n  swap1\n  pop\n    /* \"#utility.yul\":3533:3828   */\n  swap3\n  swap2\n  pop\n  pop\n  jump\t// out\n    /* \"#utility.yul\":3833:5228   */\ntag_5:\n    /* \"#utility.yul\":3950:3987   */\n  tag_74\n    /* \"#utility.yul\":3983:3986   */\n  dup3\n    /* \"#utility.yul\":3950:3987   */\n  tag_7\n  jump\t// in\ntag_74:\n    /* \"#utility.yul\":4052:4070   */\n  0xffffffffffffffff\n    /* \"#utility.yul\":4044:4050   */\n  dup2\n    /* \"#utility.yul\":4041:4071   */\n  gt\n    /* \"#utility.yul\":4038:4094   */\n  iszero\n  tag_75\n  jumpi\n    /* \"#utility.yul\":4074:4092   */\n  tag_76\n  tag_8\n  jump\t// in\ntag_76:\n    /* \"#utility.yul\":4038:4094   */\ntag_75:\n    /* \"#utility.yul\":4118:4156   */\n  tag_77\n    /* \"#utility.yul\":4150:4154   */\n  dup3\n    /* \"#utility.yul\":4144:4155   */\n  sload\n    /* \"#utility.yul\":4118:4156   */\n  tag_10\n  jump\t// in\ntag_77:\n    /* \"#utility.yul\":4203:4270   */\n  tag_78\n    /* \"#utility.yul\":4263:4269   */\n  dup3\n    /* \"#utility.yul\":4255:4261   */\n  dup3\n    /* \"#utility.yul\":4249:4253   */\n  dup6\n    /* \"#utility.yul\":4203:4270   */\n  tag_23\n  jump\t// in\ntag_78:\n    /* \"#utility.yul\":4297:4298   */\n  0x00\n    /* \"#utility.yul\":4321:4325   */\n  0x20\n    /* \"#utility.yul\":4308:4325   */\n  swap1\n  pop\n    /* \"#utility.yul\":4353:4355   */\n  0x1f\n    /* \"#utility.yul\":4345:4351   */\n  dup4\n    /* \"#utility.yul\":4342:4356   */\n  gt\n    /* \"#utility.yul\":4370:4371   */\n  0x01\n    /* \"#utility.yul\":4365:4983   */\n  dup2\n  eq\n  tag_80\n  jumpi\n    /* \"#utility.yul\":5027:5028   */\n  0x00\n    /* \"#utility.yul\":5044:5050   */\n  dup5\n    /* \"#utility.yul\":5041:5118   */\n  iszero\n  tag_81\n  jumpi\n    /* \"#utility.yul\":5093:5102   */\n  dup3\n    /* \"#utility.yul\":5088:5091   */\n  dup8\n    /* \"#utility.yul\":5084:5103   */\n  add\n    /* \"#utility.yul\":5078:5104   */\n  mload\n    /* \"#utility.yul\":5069:5104   */\n  swap1\n  pop\n    /* \"#utility.yul\":5041:5118   */\ntag_81:\n    /* \"#utility.yul\":5144:5211   */\n  tag_82\n    /* \"#utility.yul\":5204:5210   */\n  dup6\n    /* \"#utility.yul\":5197:5202   */\n  dup3\n    /* \"#utility.yul\":5144:5211   */\n  tag_26\n  jump\t// in\ntag_82:\n    /* \"#utility.yul\":5138:5142   */\n  dup7\n    /* \"#utility.yul\":5131:5212   */\n  sstore\n    /* \"#utility.yul\":5000:5222   */\n  pop\n    /* \"#utility.yul\":4335:5222   */\n  jump(tag_79)\n    /* \"#utility.yul\":4365:4983   */\ntag_80:\n    /* \"#utility.yul\":4417:4421   */\n  0x1f\n    /* \"#utility.yul\":4413:4422   */\n  not\n    /* \"#utility.yul\":4405:4411   */\n  dup5\n    /* \"#utility.yul\":4401:4423   */\n  and\n    /* \"#utility.yul\":4451:4488   */\n  tag_83\n    /* \"#utility.yul\":4483:4487   */\n  dup7\n    /* \"#utility.yul\":4451:4488   */\n  tag_11\n  jump\t// in\ntag_83:\n    /* \"#utility.yul\":4510:4511   */\n  0x00\n    /* \"#utility.yul\":4524:4732   */\ntag_84:\n    /* \"#utility.yul\":4538:4545   */\n  dup3\n    /* \"#utility.yul\":4535:4536   */\n  dup2\n    /* \"#utility.yul\":4532:4546   */\n  lt\n    /* \"#utility.yul\":4524:4732   */\n  iszero\n  tag_86\n  jumpi\n    /* \"#utility.yul\":4617:4626   */\n  dup5\n    /* \"#utility.yul\":4612:4615   */\n  dup10\n    /* \"#utility.yul\":4608:4627   */\n  add\n    /* \"#utility.yul\":4602:4628   */\n  mload\n    /* \"#utility.yul\":4594:4600   */\n  dup3\n    /* \"#utility.yul\":4587:4629   */\n  sstore\n    /* \"#utility.yul\":4668:4669   */\n  0x01\n    /* \"#utility.yul\":4660:4666   */\n  dup3\n    /* \"#utility.yul\":4656:4670   */\n  add\n    /* \"#utility.yul\":4646:4670   */\n  swap2\n  pop\n    /* \"#utility.yul\":4715:4717   */\n  0x20\n    /* \"#utility.yul\":4704:4713   */\n  dup6\n    /* \"#utility.yul\":4700:4718   */\n  add\n    /* \"#utility.yul\":4687:4718   */\n  swap5\n  pop\n    /* \"#utility.yul\":4561:4565   */\n  0x20\n    /* \"#utility.yul\":4558:4559   */\n  dup2\n    /* \"#utility.yul\":4554:4566   */\n  add\n    /* \"#utility.yul\":4549:4566   */\n  swap1\n  pop\n    /* \"#utility.yul\":4524:4732   */\n  jump(tag_84)\ntag_86:\n    /* \"#utility.yul\":4760:4766   */\n  dup7\n    /* \"#utility.yul\":4751:4758   */\n  dup4\n    /* \"#utility.yul\":4748:4767   */\n  lt\n    /* \"#utility.yul\":4745:4924   */\n  iszero\n  tag_87\n  jumpi\n    /* \"#utility.yul\":4818:4827   */\n  dup5\n    /* \"#utility.yul\":4813:4816   */\n  dup10\n    /* \"#utility.yul\":4809:4828   */\n  add\n    /* \"#utility.yul\":4803:4829   */\n  mload\n    /* \"#utility.yul\":4861:4909   */\n  tag_88\n    /* \"#utility.yul\":4903:4907   */\n  0x1f\n    /* \"#utility.yul\":4895:4901   */\n  dup10\n    /* \"#utility.yul\":4891:4908   */\n  and\n    /* \"#utility.yul\":4880:4889   */\n  dup3\n    /* \"#utility.yul\":4861:4909   */\n  tag_25\n  jump\t// in\ntag_88:\n    /* \"#utility.yul\":4853:4859   */\n  dup4\n    /* \"#utility.yul\":4846:4910   */\n  sstore\n    /* \"#utility.yul\":4768:4924   */\n  pop\n    /* \"#utility.yul\":4745:4924   */\ntag_87:\n    /* \"#utility.yul\":4970:4971   */\n  0x01\n    /* \"#utility.yul\":4966:4967   */\n  0x02\n    /* \"#utility.yul\":4958:4964   */\n  dup9\n    /* \"#utility.yul\":4954:4968   */\n  mul\n    /* \"#utility.yul\":4950:4972   */\n  add\n    /* \"#utility.yul\":4944:4948   */\n  dup9\n    /* \"#utility.yul\":4937:4973   */\n  sstore\n    /* \"#utility.yul\":4372:4983   */\n  pop\n  pop\n  pop\n    /* \"#utility.yul\":4335:5222   */\ntag_79:\n  pop\n    /* \"#utility.yul\":3925:5228   */\n  pop\n  pop\n  pop\n    /* \"#utility.yul\":3833:5228   */\n  pop\n  pop\n  jump\t// out\n    /* \"contracts/LoanCoordinationThread.sol\":60:8340  contract CommunicationsTool {... */\ntag_6:\n  dataSize(sub_0)\n  dup1\n  dataOffset(sub_0)\n  0x00\n  codecopy\n  0x00\n  return\nstop\n\nsub_0: assembly {\n        /* \"contracts/LoanCoordinationThread.sol\":60:8340  contract CommunicationsTool {... */\n      mstore(0x40, 0x80)\n      callvalue\n      dup1\n      iszero\n      tag_1\n      jumpi\n      revert(0x00, 0x00)\n    tag_1:\n      pop\n      jumpi(tag_2, lt(calldatasize, 0x04))\n      shr(0xe0, calldataload(0x00))\n      dup1\n      0xbbcb3224\n      gt\n      tag_15\n      jumpi\n      dup1\n      0xbbcb3224\n      eq\n      tag_9\n      jumpi\n      dup1\n      0xbbfe6e95\n      eq\n      tag_10\n      jumpi\n      dup1\n      0xbeddd1e4\n      eq\n      tag_11\n      jumpi\n      dup1\n      0xef3f4ad5\n      eq\n      tag_12\n      jumpi\n      dup1\n      0xf851a440\n      eq\n      tag_13\n      jumpi\n      dup1\n      0xfcb526d7\n      eq\n      tag_14\n      jumpi\n      jump(tag_2)\n    tag_15:\n      dup1\n      0x53ffdf74\n      eq\n      tag_3\n      jumpi\n      dup1\n      0x73f1869b\n      eq\n      tag_4\n      jumpi\n      dup1\n      0x9043f828\n      eq\n      tag_5\n      jumpi\n      dup1\n      0x9786cd8a\n      eq\n      tag_6\n      jumpi\n      dup1\n      0x99374642\n      eq\n      tag_7\n      jumpi\n      dup1\n      0xba9e3798\n      eq\n      tag_8\n      jumpi\n    tag_2:\n      revert(0x00, 0x00)\n        /* \"contracts/LoanCoordinationThread.sol\":983:1033  mapping(bytes32 => uint256) public sequenceNumbers */\n    tag_3:\n      tag_16\n      0x04\n      dup1\n      calldatasize\n      sub\n      dup2\n      add\n      swap1\n      tag_17\n      swap2\n      swap1\n      tag_18\n      jump\t// in\n    tag_17:\n      tag_19\n      jump\t// in\n    tag_16:\n      mload(0x40)\n      tag_20\n      swap2\n      swap1\n      tag_21\n      jump\t// in\n    tag_20:\n      mload(0x40)\n      dup1\n      swap2\n      sub\n      swap1\n      return\n        /* \"contracts/LoanCoordinationThread.sol\":7535:8133  function rejectLoan(bytes32 threadId) public {... */\n    tag_4:\n      tag_22\n      0x04\n      dup1\n      calldatasize\n      sub\n      dup2\n      add\n      swap1\n      tag_23\n      swap2\n      swap1\n      tag_18\n      jump\t// in\n    tag_23:\n      tag_24\n      jump\t// in\n    tag_22:\n      stop\n        /* \"contracts/LoanCoordinationThread.sol\":3998:4618  function requestRiskEvaluation(bytes32 threadId) public {... */\n    tag_5:\n      tag_25\n      0x04\n      dup1\n      calldatasize\n      sub\n      dup2\n      add\n      swap1\n      tag_26\n      swap2\n      swap1\n      tag_18\n      jump\t// in\n    tag_26:\n      tag_27\n      jump\t// in\n    tag_25:\n      stop\n        /* \"contracts/LoanCoordinationThread.sol\":5394:5999  function sendProof(bytes32 threadId, bytes32 resultHash) public {... */\n    tag_6:\n      tag_28\n      0x04\n      dup1\n      calldatasize\n      sub\n      dup2\n      add\n      swap1\n      tag_29\n      swap2\n      swap1\n      tag_30\n      jump\t// in\n    tag_29:\n      tag_31\n      jump\t// in\n    tag_28:\n      stop\n        /* \"contracts/LoanCoordinationThread.sol\":1077:1116  mapping(address => string) public roles */\n    tag_7:\n      tag_32\n      0x04\n      dup1\n      calldatasize\n      sub\n      dup2\n      add\n      swap1\n      tag_33\n      swap2\n      swap1\n      tag_34\n      jump\t// in\n    tag_33:\n      tag_35\n      jump\t// in\n    tag_32:\n      mload(0x40)\n      tag_36\n      swap2\n      swap1\n      tag_37\n      jump\t// in\n    tag_36:\n      mload(0x40)\n      dup1\n      swap2\n      sub\n      swap1\n      return\n        /* \"contracts/LoanCoordinationThread.sol\":8197:8334  function getThreadActions(bytes32 threadId) public view returns (ThreadAction[] memory) {... */\n    tag_8:\n      tag_38\n      0x04\n      dup1\n      calldatasize\n      sub\n      dup2\n      add\n      swap1\n      tag_39\n      swap2\n      swap1\n      tag_18\n      jump\t// in\n    tag_39:\n      tag_40\n      jump\t// in\n    tag_38:\n      mload(0x40)\n      tag_41\n      swap2\n      swap1\n      tag_42\n      jump\t// in\n    tag_41:\n      mload(0x40)\n      dup1\n      swap2\n      sub\n      swap1\n      return\n        /* \"contracts/LoanCoordinationThread.sol\":818:873  mapping(bytes32 => ThreadAction[]) public threadActions */\n    tag_9:\n      tag_43\n      0x04\n      dup1\n      calldatasize\n      sub\n      dup2\n      add\n      swap1\n      tag_44\n      swap2\n      swap1\n      tag_45\n      jump\t// in\n    tag_44:\n      tag_46\n      jump\t// in\n    tag_43:\n      mload(0x40)\n      tag_47\n      swap8\n      swap7\n      swap6\n      swap5\n      swap4\n      swap3\n      swap2\n      swap1\n      tag_48\n      jump\t// in\n    tag_47:\n      mload(0x40)\n      dup1\n      swap2\n      sub\n      swap1\n      return\n        /* \"contracts/LoanCoordinationThread.sol\":6894:7491  function approveLoan(bytes32 threadId) public {... */\n    tag_10:\n      tag_49\n      0x04\n      dup1\n      calldatasize\n      sub\n      dup2\n      add\n      swap1\n      tag_50\n      swap2\n      swap1\n      tag_18\n      jump\t// in\n    tag_50:\n      tag_51\n      jump\t// in\n    tag_49:\n      stop\n        /* \"contracts/LoanCoordinationThread.sol\":3323:3943  function createThread(bytes32 threadId) public {... */\n    tag_11:\n      tag_52\n      0x04\n      dup1\n      calldatasize\n      sub\n      dup2\n      add\n      swap1\n      tag_53\n      swap2\n      swap1\n      tag_18\n      jump\t// in\n    tag_53:\n      tag_54\n      jump\t// in\n    tag_52:\n      stop\n        /* \"contracts/LoanCoordinationThread.sol\":4678:5321  function receiveRiskEvaluation(bytes32 threadId, bytes32 resultHash) public {... */\n    tag_12:\n      tag_55\n      0x04\n      dup1\n      calldatasize\n      sub\n      dup2\n      add\n      swap1\n      tag_56\n      swap2\n      swap1\n      tag_30\n      jump\t// in\n    tag_56:\n      tag_57\n      jump\t// in\n    tag_55:\n      stop\n        /* \"contracts/LoanCoordinationThread.sol\":955:975  address public admin */\n    tag_13:\n      tag_58\n      tag_59\n      jump\t// in\n    tag_58:\n      mload(0x40)\n      tag_60\n      swap2\n      swap1\n      tag_61\n      jump\t// in\n    tag_60:\n      mload(0x40)\n      dup1\n      swap2\n      sub\n      swap1\n      return\n        /* \"contracts/LoanCoordinationThread.sol\":6096:6836  function receiveRiskEvaluationResult(bytes32 threadId, bytes32 resultHash) public {... */\n    tag_14:\n      tag_62\n      0x04\n      dup1\n      calldatasize\n      sub\n      dup2\n      add\n      swap1\n      tag_63\n      swap2\n      swap1\n      tag_30\n      jump\t// in\n    tag_63:\n      tag_64\n      jump\t// in\n    tag_62:\n      stop\n        /* \"contracts/LoanCoordinationThread.sol\":983:1033  mapping(bytes32 => uint256) public sequenceNumbers */\n    tag_19:\n      mstore(0x20, 0x02)\n      dup1\n      0x00\n      mstore\n      keccak256(0x00, 0x40)\n      0x00\n      swap2\n      pop\n      swap1\n      pop\n      sload\n      dup2\n      jump\t// out\n        /* \"contracts/LoanCoordinationThread.sol\":7535:8133  function rejectLoan(bytes32 threadId) public {... */\n    tag_24:\n        /* \"contracts/LoanCoordinationThread.sol\":7591:7620  uint256 currentSequenceNumber */\n      0x00\n        /* \"contracts/LoanCoordinationThread.sol\":7623:7638  sequenceNumbers */\n      0x02\n        /* \"contracts/LoanCoordinationThread.sol\":7623:7648  sequenceNumbers[threadId] */\n      0x00\n        /* \"contracts/LoanCoordinationThread.sol\":7639:7647  threadId */\n      dup4\n        /* \"contracts/LoanCoordinationThread.sol\":7623:7648  sequenceNumbers[threadId] */\n      dup2\n      mstore\n      0x20\n      add\n      swap1\n      dup2\n      mstore\n      0x20\n      add\n      0x00\n      keccak256\n      sload\n        /* \"contracts/LoanCoordinationThread.sol\":7591:7648  uint256 currentSequenceNumber = sequenceNumbers[threadId] */\n      swap1\n      pop\n        /* \"contracts/LoanCoordinationThread.sol\":7659:7672  threadActions */\n      0x00\n        /* \"contracts/LoanCoordinationThread.sol\":7659:7682  threadActions[threadId] */\n      0x00\n        /* \"contracts/LoanCoordinationThread.sol\":7673:7681  threadId */\n      dup4\n        /* \"contracts/LoanCoordinationThread.sol\":7659:7682  threadActions[threadId] */\n      dup2\n      mstore\n      0x20\n      add\n      swap1\n      dup2\n      mstore\n      0x20\n      add\n      0x00\n      keccak256\n        /* \"contracts/LoanCoordinationThread.sol\":7688:7991  ThreadAction({... */\n      mload(0x40)\n      dup1\n      0xe0\n      add\n      0x40\n      mstore\n      dup1\n        /* \"contracts/LoanCoordinationThread.sol\":7724:7734  msg.sender */\n      caller\n        /* \"contracts/LoanCoordinationThread.sol\":7688:7991  ThreadAction({... */\n      0xffffffffffffffffffffffffffffffffffffffff\n      and\n      dup2\n      mstore\n      0x20\n      add\n        /* \"contracts/LoanCoordinationThread.sol\":7759:7767  threadId */\n      dup5\n        /* \"contracts/LoanCoordinationThread.sol\":7688:7991  ThreadAction({... */\n      dup2\n      mstore\n      0x20\n      add\n        /* \"contracts/LoanCoordinationThread.sol\":7795:7816  MessageType.REJECTION */\n      0x04\n        /* \"contracts/LoanCoordinationThread.sol\":7688:7991  ThreadAction({... */\n      0x06\n      dup2\n      gt\n      iszero\n      tag_66\n      jumpi\n      tag_67\n      tag_68\n      jump\t// in\n    tag_67:\n    tag_66:\n      dup2\n      mstore\n      0x20\n      add\n      mload(0x40)\n      dup1\n      0x20\n      add\n      0x40\n      mstore\n      dup1\n      0x00\n      dup2\n      mstore\n      pop\n      dup2\n      mstore\n      0x20\n      add\n        /* \"contracts/LoanCoordinationThread.sol\":7879:7900  currentSequenceNumber */\n      dup4\n        /* \"contracts/LoanCoordinationThread.sol\":7688:7991  ThreadAction({... */\n      dup2\n      mstore\n      0x20\n      add\n        /* \"contracts/LoanCoordinationThread.sol\":7926:7941  block.timestamp */\n      timestamp\n        /* \"contracts/LoanCoordinationThread.sol\":7688:7991  ThreadAction({... */\n      dup2\n      mstore\n      0x20\n      add\n        /* \"contracts/LoanCoordinationThread.sol\":7977:7978  0 */\n      0x00\n        /* \"contracts/LoanCoordinationThread.sol\":7969:7979  bytes32(0) */\n      0x00\n      shl\n        /* \"contracts/LoanCoordinationThread.sol\":7688:7991  ThreadAction({... */\n      dup2\n      mstore\n      pop\n        /* \"contracts/LoanCoordinationThread.sol\":7659:7992  threadActions[threadId].push(ThreadAction({... */\n      swap1\n      dup1\n      0x01\n      dup2\n      sload\n      add\n      dup1\n      dup3\n      sstore\n      dup1\n      swap2\n      pop\n      pop\n      0x01\n      swap1\n      sub\n      swap1\n      0x00\n      mstore\n      keccak256(0x00, 0x20)\n      swap1\n      0x07\n      mul\n      add\n      0x00\n      swap1\n      swap2\n      swap1\n      swap2\n      swap1\n      swap2\n      pop\n      0x00\n      dup3\n      add\n      mload\n      dup2\n      0x00\n      add\n      exp(0x0100, 0x00)\n      dup2\n      sload\n      dup2\n      0xffffffffffffffffffffffffffffffffffffffff\n      mul\n      not\n      and\n      swap1\n      dup4\n      0xffffffffffffffffffffffffffffffffffffffff\n      and\n      mul\n      or\n      swap1\n      sstore\n      pop\n      0x20\n      dup3\n      add\n      mload\n      dup2\n      0x01\n      add\n      sstore\n      0x40\n      dup3\n      add\n      mload\n      dup2\n      0x02\n      add\n      exp(0x0100, 0x00)\n      dup2\n      sload\n      dup2\n      0xff\n      mul\n      not\n      and\n      swap1\n      dup4\n      0x06\n      dup2\n      gt\n      iszero\n      tag_70\n      jumpi\n      tag_71\n      tag_68\n      jump\t// in\n    tag_71:\n    tag_70:\n      mul\n      or\n      swap1\n      sstore\n      pop\n      0x60\n      dup3\n      add\n      mload\n      dup2\n      0x03\n      add\n      swap1\n      dup2\n      tag_72\n      swap2\n      swap1\n      tag_73\n      jump\t// in\n    tag_72:\n      pop\n      0x80\n      dup3\n      add\n      mload\n      dup2\n      0x04\n      add\n      sstore\n      0xa0\n      dup3\n      add\n      mload\n      dup2\n      0x05\n      add\n      sstore\n      0xc0\n      dup3\n      add\n      mload\n      dup2\n      0x06\n      add\n      sstore\n      pop\n      pop\n        /* \"contracts/LoanCoordinationThread.sol\":8003:8018  sequenceNumbers */\n      0x02\n        /* \"contracts/LoanCoordinationThread.sol\":8003:8028  sequenceNumbers[threadId] */\n      0x00\n        /* \"contracts/LoanCoordinationThread.sol\":8019:8027  threadId */\n      dup4\n        /* \"contracts/LoanCoordinationThread.sol\":8003:8028  sequenceNumbers[threadId] */\n      dup2\n      mstore\n      0x20\n      add\n      swap1\n      dup2\n      mstore\n      0x20\n      add\n      0x00\n      keccak256\n      0x00\n        /* \"contracts/LoanCoordinationThread.sol\":8003:8030  sequenceNumbers[threadId]++ */\n      dup2\n      sload\n      dup1\n      swap3\n      swap2\n      swap1\n      tag_74\n      swap1\n      tag_75\n      jump\t// in\n    tag_74:\n      swap2\n      swap1\n      pop\n      sstore\n      pop\n        /* \"contracts/LoanCoordinationThread.sol\":8074:8084  msg.sender */\n      caller\n        /* \"contracts/LoanCoordinationThread.sol\":8046:8125  RejectionReceived(threadId, msg.sender, currentSequenceNumber, block.timestamp) */\n      0xffffffffffffffffffffffffffffffffffffffff\n      and\n        /* \"contracts/LoanCoordinationThread.sol\":8064:8072  threadId */\n      dup3\n        /* \"contracts/LoanCoordinationThread.sol\":8046:8125  RejectionReceived(threadId, msg.sender, currentSequenceNumber, block.timestamp) */\n      0xb741b6c221e9657954f6e0b43feeb91372ac359579b8c5ba78ebcc1f13ad8ebb\n        /* \"contracts/LoanCoordinationThread.sol\":8086:8107  currentSequenceNumber */\n      dup4\n        /* \"contracts/LoanCoordinationThread.sol\":8109:8124  block.timestamp */\n      timestamp\n        /* \"contracts/LoanCoordinationThread.sol\":8046:8125  RejectionReceived(threadId, msg.sender, currentSequenceNumber, block.timestamp) */\n      mload(0x40)\n      tag_76\n      swap3\n      swap2\n      swap1\n      tag_77\n      jump\t// in\n    tag_76:\n      mload(0x40)\n      dup1\n      swap2\n      sub\n      swap1\n      log3\n        /* \"contracts/LoanCoordinationThread.sol\":7580:8133  {... */\n      pop\n        /* \"contracts/LoanCoordinationThread.sol\":7535:8133  function rejectLoan(bytes32 threadId) public {... */\n      pop\n      jump\t// out\n        /* \"contracts/LoanCoordinationThread.sol\":3998:4618  function requestRiskEvaluation(bytes32 threadId) public {... */\n    tag_27:\n        /* \"contracts/LoanCoordinationThread.sol\":4065:4094  uint256 currentSequenceNumber */\n      0x00\n        /* \"contracts/LoanCoordinationThread.sol\":4097:4112  sequenceNumbers */\n      0x02\n        /* \"contracts/LoanCoordinationThread.sol\":4097:4122  sequenceNumbers[threadId] */\n      0x00\n        /* \"contracts/LoanCoordinationThread.sol\":4113:4121  threadId */\n      dup4\n        /* \"contracts/LoanCoordinationThread.sol\":4097:4122  sequenceNumbers[threadId] */\n      dup2\n      mstore\n      0x20\n      add\n      swap1\n      dup2\n      mstore\n      0x20\n      add\n      0x00\n      keccak256\n      sload\n        /* \"contracts/LoanCoordinationThread.sol\":4065:4122  uint256 currentSequenceNumber = sequenceNumbers[threadId] */\n      swap1\n      pop\n        /* \"contracts/LoanCoordinationThread.sol\":4133:4146  threadActions */\n      0x00\n        /* \"contracts/LoanCoordinationThread.sol\":4133:4156  threadActions[threadId] */\n      0x00\n        /* \"contracts/LoanCoordinationThread.sol\":4147:4155  threadId */\n      dup4\n        /* \"contracts/LoanCoordinationThread.sol\":4133:4156  threadActions[threadId] */\n      dup2\n      mstore\n      0x20\n      add\n      swap1\n      dup2\n      mstore\n      0x20\n      add\n      0x00\n      keccak256\n        /* \"contracts/LoanCoordinationThread.sol\":4162:4470  ThreadAction({... */\n      mload(0x40)\n      dup1\n      0xe0\n      add\n      0x40\n      mstore\n      dup1\n        /* \"contracts/LoanCoordinationThread.sol\":4198:4208  msg.sender */\n      caller\n        /* \"contracts/LoanCoordinationThread.sol\":4162:4470  ThreadAction({... */\n      0xffffffffffffffffffffffffffffffffffffffff\n      and\n      dup2\n      mstore\n      0x20\n      add\n        /* \"contracts/LoanCoordinationThread.sol\":4233:4241  threadId */\n      dup5\n        /* \"contracts/LoanCoordinationThread.sol\":4162:4470  ThreadAction({... */\n      dup2\n      mstore\n      0x20\n      add\n        /* \"contracts/LoanCoordinationThread.sol\":4269:4295  MessageType.RISK_REQUESTED */\n      0x05\n        /* \"contracts/LoanCoordinationThread.sol\":4162:4470  ThreadAction({... */\n      0x06\n      dup2\n      gt\n      iszero\n      tag_79\n      jumpi\n      tag_80\n      tag_68\n      jump\t// in\n    tag_80:\n    tag_79:\n      dup2\n      mstore\n      0x20\n      add\n      mload(0x40)\n      dup1\n      0x20\n      add\n      0x40\n      mstore\n      dup1\n      0x00\n      dup2\n      mstore\n      pop\n      dup2\n      mstore\n      0x20\n      add\n        /* \"contracts/LoanCoordinationThread.sol\":4358:4379  currentSequenceNumber */\n      dup4\n        /* \"contracts/LoanCoordinationThread.sol\":4162:4470  ThreadAction({... */\n      dup2\n      mstore\n      0x20\n      add\n        /* \"contracts/LoanCoordinationThread.sol\":4405:4420  block.timestamp */\n      timestamp\n        /* \"contracts/LoanCoordinationThread.sol\":4162:4470  ThreadAction({... */\n      dup2\n      mstore\n      0x20\n      add\n        /* \"contracts/LoanCoordinationThread.sol\":4456:4457  0 */\n      0x00\n        /* \"contracts/LoanCoordinationThread.sol\":4448:4458  bytes32(0) */\n      0x00\n      shl\n        /* \"contracts/LoanCoordinationThread.sol\":4162:4470  ThreadAction({... */\n      dup2\n      mstore\n      pop\n        /* \"contracts/LoanCoordinationThread.sol\":4133:4471  threadActions[threadId].push(ThreadAction({... */\n      swap1\n      dup1\n      0x01\n      dup2\n      sload\n      add\n      dup1\n      dup3\n      sstore\n      dup1\n      swap2\n      pop\n      pop\n      0x01\n      swap1\n      sub\n      swap1\n      0x00\n      mstore\n      keccak256(0x00, 0x20)\n      swap1\n      0x07\n      mul\n      add\n      0x00\n      swap1\n      swap2\n      swap1\n      swap2\n      swap1\n      swap2\n      pop\n      0x00\n      dup3\n      add\n      mload\n      dup2\n      0x00\n      add\n      exp(0x0100, 0x00)\n      dup2\n      sload\n      dup2\n      0xffffffffffffffffffffffffffffffffffffffff\n      mul\n      not\n      and\n      swap1\n      dup4\n      0xffffffffffffffffffffffffffffffffffffffff\n      and\n      mul\n      or\n      swap1\n      sstore\n      pop\n      0x20\n      dup3\n      add\n      mload\n      dup2\n      0x01\n      add\n      sstore\n      0x40\n      dup3\n      add\n      mload\n      dup2\n      0x02\n      add\n      exp(0x0100, 0x00)\n      dup2\n      sload\n      dup2\n      0xff\n      mul\n      not\n      and\n      swap1\n      dup4\n      0x06\n      dup2\n      gt\n      iszero\n      tag_82\n      jumpi\n      tag_83\n      tag_68\n      jump\t// in\n    tag_83:\n    tag_82:\n      mul\n      or\n      swap1\n      sstore\n      pop\n      0x60\n      dup3\n      add\n      mload\n      dup2\n      0x03\n      add\n      swap1\n      dup2\n      tag_84\n      swap2\n      swap1\n      tag_73\n      jump\t// in\n    tag_84:\n      pop\n      0x80\n      dup3\n      add\n      mload\n      dup2\n      0x04\n      add\n      sstore\n      0xa0\n      dup3\n      add\n      mload\n      dup2\n      0x05\n      add\n      sstore\n      0xc0\n      dup3\n      add\n      mload\n      dup2\n      0x06\n      add\n      sstore\n      pop\n      pop\n        /* \"contracts/LoanCoordinationThread.sol\":4482:4497  sequenceNumbers */\n      0x02\n        /* \"contracts/LoanCoordinationThread.sol\":4482:4507  sequenceNumbers[threadId] */\n      0x00\n        /* \"contracts/LoanCoordinationThread.sol\":4498:4506  threadId */\n      dup4\n        /* \"contracts/LoanCoordinationThread.sol\":4482:4507  sequenceNumbers[threadId] */\n      dup2\n      mstore\n      0x20\n      add\n      swap1\n      dup2\n      mstore\n      0x20\n      add\n      0x00\n      keccak256\n      0x00\n        /* \"contracts/LoanCoordinationThread.sol\":4482:4509  sequenceNumbers[threadId]++ */\n      dup2\n      sload\n      dup1\n      swap3\n      swap2\n      swap1\n      tag_85\n      swap1\n      tag_75\n      jump\t// in\n    tag_85:\n      swap2\n      swap1\n      pop\n      sstore\n      pop\n        /* \"contracts/LoanCoordinationThread.sol\":4559:4569  msg.sender */\n      caller\n        /* \"contracts/LoanCoordinationThread.sol\":4525:4610  RiskEvaluationRequested(threadId, msg.sender, currentSequenceNumber, block.timestamp) */\n      0xffffffffffffffffffffffffffffffffffffffff\n      and\n        /* \"contracts/LoanCoordinationThread.sol\":4549:4557  threadId */\n      dup3\n        /* \"contracts/LoanCoordinationThread.sol\":4525:4610  RiskEvaluationRequested(threadId, msg.sender, currentSequenceNumber, block.timestamp) */\n      0xe03189a5907e7a9897e2cf6c714a834cfb425a4983d562dc01ae800829a43bdd\n        /* \"contracts/LoanCoordinationThread.sol\":4571:4592  currentSequenceNumber */\n      dup4\n        /* \"contracts/LoanCoordinationThread.sol\":4594:4609  block.timestamp */\n      timestamp\n        /* \"contracts/LoanCoordinationThread.sol\":4525:4610  RiskEvaluationRequested(threadId, msg.sender, currentSequenceNumber, block.timestamp) */\n      mload(0x40)\n      tag_86\n      swap3\n      swap2\n      swap1\n      tag_77\n      jump\t// in\n    tag_86:\n      mload(0x40)\n      dup1\n      swap2\n      sub\n      swap1\n      log3\n        /* \"contracts/LoanCoordinationThread.sol\":4054:4618  {... */\n      pop\n        /* \"contracts/LoanCoordinationThread.sol\":3998:4618  function requestRiskEvaluation(bytes32 threadId) public {... */\n      pop\n      jump\t// out\n        /* \"contracts/LoanCoordinationThread.sol\":5394:5999  function sendProof(bytes32 threadId, bytes32 resultHash) public {... */\n    tag_31:\n        /* \"contracts/LoanCoordinationThread.sol\":5469:5498  uint256 currentSequenceNumber */\n      0x00\n        /* \"contracts/LoanCoordinationThread.sol\":5501:5516  sequenceNumbers */\n      0x02\n        /* \"contracts/LoanCoordinationThread.sol\":5501:5526  sequenceNumbers[threadId] */\n      0x00\n        /* \"contracts/LoanCoordinationThread.sol\":5517:5525  threadId */\n      dup5\n        /* \"contracts/LoanCoordinationThread.sol\":5501:5526  sequenceNumbers[threadId] */\n      dup2\n      mstore\n      0x20\n      add\n      swap1\n      dup2\n      mstore\n      0x20\n      add\n      0x00\n      keccak256\n      sload\n        /* \"contracts/LoanCoordinationThread.sol\":5469:5526  uint256 currentSequenceNumber = sequenceNumbers[threadId] */\n      swap1\n      pop\n        /* \"contracts/LoanCoordinationThread.sol\":5537:5550  threadActions */\n      0x00\n        /* \"contracts/LoanCoordinationThread.sol\":5537:5560  threadActions[threadId] */\n      0x00\n        /* \"contracts/LoanCoordinationThread.sol\":5551:5559  threadId */\n      dup5\n        /* \"contracts/LoanCoordinationThread.sol\":5537:5560  threadActions[threadId] */\n      dup2\n      mstore\n      0x20\n      add\n      swap1\n      dup2\n      mstore\n      0x20\n      add\n      0x00\n      keccak256\n        /* \"contracts/LoanCoordinationThread.sol\":5566:5865  ThreadAction({... */\n      mload(0x40)\n      dup1\n      0xe0\n      add\n      0x40\n      mstore\n      dup1\n        /* \"contracts/LoanCoordinationThread.sol\":5602:5612  msg.sender */\n      caller\n        /* \"contracts/LoanCoordinationThread.sol\":5566:5865  ThreadAction({... */\n      0xffffffffffffffffffffffffffffffffffffffff\n      and\n      dup2\n      mstore\n      0x20\n      add\n        /* \"contracts/LoanCoordinationThread.sol\":5637:5645  threadId */\n      dup6\n        /* \"contracts/LoanCoordinationThread.sol\":5566:5865  ThreadAction({... */\n      dup2\n      mstore\n      0x20\n      add\n        /* \"contracts/LoanCoordinationThread.sol\":5673:5690  MessageType.PROOF */\n      0x02\n        /* \"contracts/LoanCoordinationThread.sol\":5566:5865  ThreadAction({... */\n      0x06\n      dup2\n      gt\n      iszero\n      tag_88\n      jumpi\n      tag_89\n      tag_68\n      jump\t// in\n    tag_89:\n    tag_88:\n      dup2\n      mstore\n      0x20\n      add\n      mload(0x40)\n      dup1\n      0x20\n      add\n      0x40\n      mstore\n      dup1\n      0x00\n      dup2\n      mstore\n      pop\n      dup2\n      mstore\n      0x20\n      add\n        /* \"contracts/LoanCoordinationThread.sol\":5753:5774  currentSequenceNumber */\n      dup4\n        /* \"contracts/LoanCoordinationThread.sol\":5566:5865  ThreadAction({... */\n      dup2\n      mstore\n      0x20\n      add\n        /* \"contracts/LoanCoordinationThread.sol\":5800:5815  block.timestamp */\n      timestamp\n        /* \"contracts/LoanCoordinationThread.sol\":5566:5865  ThreadAction({... */\n      dup2\n      mstore\n      0x20\n      add\n        /* \"contracts/LoanCoordinationThread.sol\":5843:5853  resultHash */\n      dup5\n        /* \"contracts/LoanCoordinationThread.sol\":5566:5865  ThreadAction({... */\n      dup2\n      mstore\n      pop\n        /* \"contracts/LoanCoordinationThread.sol\":5537:5866  threadActions[threadId].push(ThreadAction({... */\n      swap1\n      dup1\n      0x01\n      dup2\n      sload\n      add\n      dup1\n      dup3\n      sstore\n      dup1\n      swap2\n      pop\n      pop\n      0x01\n      swap1\n      sub\n      swap1\n      0x00\n      mstore\n      keccak256(0x00, 0x20)\n      swap1\n      0x07\n      mul\n      add\n      0x00\n      swap1\n      swap2\n      swap1\n      swap2\n      swap1\n      swap2\n      pop\n      0x00\n      dup3\n      add\n      mload\n      dup2\n      0x00\n      add\n      exp(0x0100, 0x00)\n      dup2\n      sload\n      dup2\n      0xffffffffffffffffffffffffffffffffffffffff\n      mul\n      not\n      and\n      swap1\n      dup4\n      0xffffffffffffffffffffffffffffffffffffffff\n      and\n      mul\n      or\n      swap1\n      sstore\n      pop\n      0x20\n      dup3\n      add\n      mload\n      dup2\n      0x01\n      add\n      sstore\n      0x40\n      dup3\n      add\n      mload\n      dup2\n      0x02\n      add\n      exp(0x0100, 0x00)\n      dup2\n      sload\n      dup2\n      0xff\n      mul\n      not\n      and\n      swap1\n      dup4\n      0x06\n      dup2\n      gt\n      iszero\n      tag_91\n      jumpi\n      tag_92\n      tag_68\n      jump\t// in\n    tag_92:\n    tag_91:\n      mul\n      or\n      swap1\n      sstore\n      pop\n      0x60\n      dup3\n      add\n      mload\n      dup2\n      0x03\n      add\n      swap1\n      dup2\n      tag_93\n      swap2\n      swap1\n      tag_73\n      jump\t// in\n    tag_93:\n      pop\n      0x80\n      dup3\n      add\n      mload\n      dup2\n      0x04\n      add\n      sstore\n      0xa0\n      dup3\n      add\n      mload\n      dup2\n      0x05\n      add\n      sstore\n      0xc0\n      dup3\n      add\n      mload\n      dup2\n      0x06\n      add\n      sstore\n      pop\n      pop\n        /* \"contracts/LoanCoordinationThread.sol\":5877:5892  sequenceNumbers */\n      0x02\n        /* \"contracts/LoanCoordinationThread.sol\":5877:5902  sequenceNumbers[threadId] */\n      0x00\n        /* \"contracts/LoanCoordinationThread.sol\":5893:5901  threadId */\n      dup5\n        /* \"contracts/LoanCoordinationThread.sol\":5877:5902  sequenceNumbers[threadId] */\n      dup2\n      mstore\n      0x20\n      add\n      swap1\n      dup2\n      mstore\n      0x20\n      add\n      0x00\n      keccak256\n      0x00\n        /* \"contracts/LoanCoordinationThread.sol\":5877:5904  sequenceNumbers[threadId]++ */\n      dup2\n      sload\n      dup1\n      swap3\n      swap2\n      swap1\n      tag_94\n      swap1\n      tag_75\n      jump\t// in\n    tag_94:\n      swap2\n      swap1\n      pop\n      sstore\n      pop\n        /* \"contracts/LoanCoordinationThread.sol\":5940:5950  msg.sender */\n      caller\n        /* \"contracts/LoanCoordinationThread.sol\":5920:5991  ProofSent(threadId, msg.sender, currentSequenceNumber, block.timestamp) */\n      0xffffffffffffffffffffffffffffffffffffffff\n      and\n        /* \"contracts/LoanCoordinationThread.sol\":5930:5938  threadId */\n      dup4\n        /* \"contracts/LoanCoordinationThread.sol\":5920:5991  ProofSent(threadId, msg.sender, currentSequenceNumber, block.timestamp) */\n      0x08060438c4e0773bad852fae300ff094e0703b5846e20a44bb9319c1ce73dfef\n        /* \"contracts/LoanCoordinationThread.sol\":5952:5973  currentSequenceNumber */\n      dup4\n        /* \"contracts/LoanCoordinationThread.sol\":5975:5990  block.timestamp */\n      timestamp\n        /* \"contracts/LoanCoordinationThread.sol\":5920:5991  ProofSent(threadId, msg.sender, currentSequenceNumber, block.timestamp) */\n      mload(0x40)\n      tag_95\n      swap3\n      swap2\n      swap1\n      tag_77\n      jump\t// in\n    tag_95:\n      mload(0x40)\n      dup1\n      swap2\n      sub\n      swap1\n      log3\n        /* \"contracts/LoanCoordinationThread.sol\":5458:5999  {... */\n      pop\n        /* \"contracts/LoanCoordinationThread.sol\":5394:5999  function sendProof(bytes32 threadId, bytes32 resultHash) public {... */\n      pop\n      pop\n      jump\t// out\n        /* \"contracts/LoanCoordinationThread.sol\":1077:1116  mapping(address => string) public roles */\n    tag_35:\n      mstore(0x20, 0x03)\n      dup1\n      0x00\n      mstore\n      keccak256(0x00, 0x40)\n      0x00\n      swap2\n      pop\n      swap1\n      pop\n      dup1\n      sload\n      tag_96\n      swap1\n      tag_97\n      jump\t// in\n    tag_96:\n      dup1\n      0x1f\n      add\n      0x20\n      dup1\n      swap2\n      div\n      mul\n      0x20\n      add\n      mload(0x40)\n      swap1\n      dup2\n      add\n      0x40\n      mstore\n      dup1\n      swap3\n      swap2\n      swap1\n      dup2\n      dup2\n      mstore\n      0x20\n      add\n      dup3\n      dup1\n      sload\n      tag_98\n      swap1\n      tag_97\n      jump\t// in\n    tag_98:\n      dup1\n      iszero\n      tag_99\n      jumpi\n      dup1\n      0x1f\n      lt\n      tag_100\n      jumpi\n      0x0100\n      dup1\n      dup4\n      sload\n      div\n      mul\n      dup4\n      mstore\n      swap2\n      0x20\n      add\n      swap2\n      jump(tag_99)\n    tag_100:\n      dup3\n      add\n      swap2\n      swap1\n      0x00\n      mstore\n      keccak256(0x00, 0x20)\n      swap1\n    tag_101:\n      dup2\n      sload\n      dup2\n      mstore\n      swap1\n      0x01\n      add\n      swap1\n      0x20\n      add\n      dup1\n      dup4\n      gt\n      tag_101\n      jumpi\n      dup3\n      swap1\n      sub\n      0x1f\n      and\n      dup3\n      add\n      swap2\n    tag_99:\n      pop\n      pop\n      pop\n      pop\n      pop\n      dup2\n      jump\t// out\n        /* \"contracts/LoanCoordinationThread.sol\":8197:8334  function getThreadActions(bytes32 threadId) public view returns (ThreadAction[] memory) {... */\n    tag_40:\n        /* \"contracts/LoanCoordinationThread.sol\":8262:8283  ThreadAction[] memory */\n      0x60\n        /* \"contracts/LoanCoordinationThread.sol\":8303:8316  threadActions */\n      0x00\n        /* \"contracts/LoanCoordinationThread.sol\":8303:8326  threadActions[threadId] */\n      0x00\n        /* \"contracts/LoanCoordinationThread.sol\":8317:8325  threadId */\n      dup4\n        /* \"contracts/LoanCoordinationThread.sol\":8303:8326  threadActions[threadId] */\n      dup2\n      mstore\n      0x20\n      add\n      swap1\n      dup2\n      mstore\n      0x20\n      add\n      0x00\n      keccak256\n        /* \"contracts/LoanCoordinationThread.sol\":8296:8326  return threadActions[threadId] */\n      dup1\n      sload\n      dup1\n      0x20\n      mul\n      0x20\n      add\n      mload(0x40)\n      swap1\n      dup2\n      add\n      0x40\n      mstore\n      dup1\n      swap3\n      swap2\n      swap1\n      dup2\n      dup2\n      mstore\n      0x20\n      add\n      0x00\n      swap1\n    tag_103:\n      dup3\n      dup3\n      lt\n      iszero\n      tag_104\n      jumpi\n      dup4\n      dup3\n      swap1\n      0x00\n      mstore\n      keccak256(0x00, 0x20)\n      swap1\n      0x07\n      mul\n      add\n      mload(0x40)\n      dup1\n      0xe0\n      add\n      0x40\n      mstore\n      swap1\n      dup2\n      0x00\n      dup3\n      add\n      0x00\n      swap1\n      sload\n      swap1\n      0x0100\n      exp\n      swap1\n      div\n      0xffffffffffffffffffffffffffffffffffffffff\n      and\n      0xffffffffffffffffffffffffffffffffffffffff\n      and\n      0xffffffffffffffffffffffffffffffffffffffff\n      and\n      dup2\n      mstore\n      0x20\n      add\n      0x01\n      dup3\n      add\n      sload\n      dup2\n      mstore\n      0x20\n      add\n      0x02\n      dup3\n      add\n      0x00\n      swap1\n      sload\n      swap1\n      0x0100\n      exp\n      swap1\n      div\n      0xff\n      and\n      0x06\n      dup2\n      gt\n      iszero\n      tag_106\n      jumpi\n      tag_107\n      tag_68\n      jump\t// in\n    tag_107:\n    tag_106:\n      0x06\n      dup2\n      gt\n      iszero\n      tag_108\n      jumpi\n      tag_109\n      tag_68\n      jump\t// in\n    tag_109:\n    tag_108:\n      dup2\n      mstore\n      0x20\n      add\n      0x03\n      dup3\n      add\n      dup1\n      sload\n      tag_110\n      swap1\n      tag_97\n      jump\t// in\n    tag_110:\n      dup1\n      0x1f\n      add\n      0x20\n      dup1\n      swap2\n      div\n      mul\n      0x20\n      add\n      mload(0x40)\n      swap1\n      dup2\n      add\n      0x40\n      mstore\n      dup1\n      swap3\n      swap2\n      swap1\n      dup2\n      dup2\n      mstore\n      0x20\n      add\n      dup3\n      dup1\n      sload\n      tag_111\n      swap1\n      tag_97\n      jump\t// in\n    tag_111:\n      dup1\n      iszero\n      tag_112\n      jumpi\n      dup1\n      0x1f\n      lt\n      tag_113\n      jumpi\n      0x0100\n      dup1\n      dup4\n      sload\n      div\n      mul\n      dup4\n      mstore\n      swap2\n      0x20\n      add\n      swap2\n      jump(tag_112)\n    tag_113:\n      dup3\n      add\n      swap2\n      swap1\n      0x00\n      mstore\n      keccak256(0x00, 0x20)\n      swap1\n    tag_114:\n      dup2\n      sload\n      dup2\n      mstore\n      swap1\n      0x01\n      add\n      swap1\n      0x20\n      add\n      dup1\n      dup4\n      gt\n      tag_114\n      jumpi\n      dup3\n      swap1\n      sub\n      0x1f\n      and\n      dup3\n      add\n      swap2\n    tag_112:\n      pop\n      pop\n      pop\n      pop\n      pop\n      dup2\n      mstore\n      0x20\n      add\n      0x04\n      dup3\n      add\n      sload\n      dup2\n      mstore\n      0x20\n      add\n      0x05\n      dup3\n      add\n      sload\n      dup2\n      mstore\n      0x20\n      add\n      0x06\n      dup3\n      add\n      sload\n      dup2\n      mstore\n      pop\n      pop\n      dup2\n      mstore\n      0x20\n      add\n      swap1\n      0x01\n      add\n      swap1\n      jump(tag_103)\n    tag_104:\n      pop\n      pop\n      pop\n      pop\n      swap1\n      pop\n        /* \"contracts/LoanCoordinationThread.sol\":8197:8334  function getThreadActions(bytes32 threadId) public view returns (ThreadAction[] memory) {... */\n      swap2\n      swap1\n      pop\n      jump\t// out\n        /* \"contracts/LoanCoordinationThread.sol\":818:873  mapping(bytes32 => ThreadAction[]) public threadActions */\n    tag_46:\n      mstore(0x20, 0x00)\n      dup2\n      0x00\n      mstore\n      keccak256(0x00, 0x40)\n      dup2\n      dup2\n      sload\n      dup2\n      lt\n      tag_115\n      jumpi\n      0x00\n      dup1\n      revert\n    tag_115:\n      swap1\n      0x00\n      mstore\n      keccak256(0x00, 0x20)\n      swap1\n      0x07\n      mul\n      add\n      0x00\n      swap2\n      pop\n      swap2\n      pop\n      pop\n      dup1\n      0x00\n      add\n      0x00\n      swap1\n      sload\n      swap1\n      0x0100\n      exp\n      swap1\n      div\n      0xffffffffffffffffffffffffffffffffffffffff\n      and\n      swap1\n      dup1\n      0x01\n      add\n      sload\n      swap1\n      dup1\n      0x02\n      add\n      0x00\n      swap1\n      sload\n      swap1\n      0x0100\n      exp\n      swap1\n      div\n      0xff\n      and\n      swap1\n      dup1\n      0x03\n      add\n      dup1\n      sload\n      tag_117\n      swap1\n      tag_97\n      jump\t// in\n    tag_117:\n      dup1\n      0x1f\n      add\n      0x20\n      dup1\n      swap2\n      div\n      mul\n      0x20\n      add\n      mload(0x40)\n      swap1\n      dup2\n      add\n      0x40\n      mstore\n      dup1\n      swap3\n      swap2\n      swap1\n      dup2\n      dup2\n      mstore\n      0x20\n      add\n      dup3\n      dup1\n      sload\n      tag_118\n      swap1\n      tag_97\n      jump\t// in\n    tag_118:\n      dup1\n      iszero\n      tag_119\n      jumpi\n      dup1\n      0x1f\n      lt\n      tag_120\n      jumpi\n      0x0100\n      dup1\n      dup4\n      sload\n      div\n      mul\n      dup4\n      mstore\n      swap2\n      0x20\n      add\n      swap2\n      jump(tag_119)\n    tag_120:\n      dup3\n      add\n      swap2\n      swap1\n      0x00\n      mstore\n      keccak256(0x00, 0x20)\n      swap1\n    tag_121:\n      dup2\n      sload\n      dup2\n      mstore\n      swap1\n      0x01\n      add\n      swap1\n      0x20\n      add\n      dup1\n      dup4\n      gt\n      tag_121\n      jumpi\n      dup3\n      swap1\n      sub\n      0x1f\n      and\n      dup3\n      add\n      swap2\n    tag_119:\n      pop\n      pop\n      pop\n      pop\n      pop\n      swap1\n      dup1\n      0x04\n      add\n      sload\n      swap1\n      dup1\n      0x05\n      add\n      sload\n      swap1\n      dup1\n      0x06\n      add\n      sload\n      swap1\n      pop\n      dup8\n      jump\t// out\n        /* \"contracts/LoanCoordinationThread.sol\":6894:7491  function approveLoan(bytes32 threadId) public {... */\n    tag_51:\n        /* \"contracts/LoanCoordinationThread.sol\":6951:6980  uint256 currentSequenceNumber */\n      0x00\n        /* \"contracts/LoanCoordinationThread.sol\":6983:6998  sequenceNumbers */\n      0x02\n        /* \"contracts/LoanCoordinationThread.sol\":6983:7008  sequenceNumbers[threadId] */\n      0x00\n        /* \"contracts/LoanCoordinationThread.sol\":6999:7007  threadId */\n      dup4\n        /* \"contracts/LoanCoordinationThread.sol\":6983:7008  sequenceNumbers[threadId] */\n      dup2\n      mstore\n      0x20\n      add\n      swap1\n      dup2\n      mstore\n      0x20\n      add\n      0x00\n      keccak256\n      sload\n        /* \"contracts/LoanCoordinationThread.sol\":6951:7008  uint256 currentSequenceNumber = sequenceNumbers[threadId] */\n      swap1\n      pop\n        /* \"contracts/LoanCoordinationThread.sol\":7019:7032  threadActions */\n      0x00\n        /* \"contracts/LoanCoordinationThread.sol\":7019:7042  threadActions[threadId] */\n      0x00\n        /* \"contracts/LoanCoordinationThread.sol\":7033:7041  threadId */\n      dup4\n        /* \"contracts/LoanCoordinationThread.sol\":7019:7042  threadActions[threadId] */\n      dup2\n      mstore\n      0x20\n      add\n      swap1\n      dup2\n      mstore\n      0x20\n      add\n      0x00\n      keccak256\n        /* \"contracts/LoanCoordinationThread.sol\":7048:7350  ThreadAction({... */\n      mload(0x40)\n      dup1\n      0xe0\n      add\n      0x40\n      mstore\n      dup1\n        /* \"contracts/LoanCoordinationThread.sol\":7084:7094  msg.sender */\n      caller\n        /* \"contracts/LoanCoordinationThread.sol\":7048:7350  ThreadAction({... */\n      0xffffffffffffffffffffffffffffffffffffffff\n      and\n      dup2\n      mstore\n      0x20\n      add\n        /* \"contracts/LoanCoordinationThread.sol\":7119:7127  threadId */\n      dup5\n        /* \"contracts/LoanCoordinationThread.sol\":7048:7350  ThreadAction({... */\n      dup2\n      mstore\n      0x20\n      add\n        /* \"contracts/LoanCoordinationThread.sol\":7155:7175  MessageType.APPROVAL */\n      0x03\n        /* \"contracts/LoanCoordinationThread.sol\":7048:7350  ThreadAction({... */\n      0x06\n      dup2\n      gt\n      iszero\n      tag_123\n      jumpi\n      tag_124\n      tag_68\n      jump\t// in\n    tag_124:\n    tag_123:\n      dup2\n      mstore\n      0x20\n      add\n      mload(0x40)\n      dup1\n      0x20\n      add\n      0x40\n      mstore\n      dup1\n      0x00\n      dup2\n      mstore\n      pop\n      dup2\n      mstore\n      0x20\n      add\n        /* \"contracts/LoanCoordinationThread.sol\":7238:7259  currentSequenceNumber */\n      dup4\n        /* \"contracts/LoanCoordinationThread.sol\":7048:7350  ThreadAction({... */\n      dup2\n      mstore\n      0x20\n      add\n        /* \"contracts/LoanCoordinationThread.sol\":7285:7300  block.timestamp */\n      timestamp\n        /* \"contracts/LoanCoordinationThread.sol\":7048:7350  ThreadAction({... */\n      dup2\n      mstore\n      0x20\n      add\n        /* \"contracts/LoanCoordinationThread.sol\":7336:7337  0 */\n      0x00\n        /* \"contracts/LoanCoordinationThread.sol\":7328:7338  bytes32(0) */\n      0x00\n      shl\n        /* \"contracts/LoanCoordinationThread.sol\":7048:7350  ThreadAction({... */\n      dup2\n      mstore\n      pop\n        /* \"contracts/LoanCoordinationThread.sol\":7019:7351  threadActions[threadId].push(ThreadAction({... */\n      swap1\n      dup1\n      0x01\n      dup2\n      sload\n      add\n      dup1\n      dup3\n      sstore\n      dup1\n      swap2\n      pop\n      pop\n      0x01\n      swap1\n      sub\n      swap1\n      0x00\n      mstore\n      keccak256(0x00, 0x20)\n      swap1\n      0x07\n      mul\n      add\n      0x00\n      swap1\n      swap2\n      swap1\n      swap2\n      swap1\n      swap2\n      pop\n      0x00\n      dup3\n      add\n      mload\n      dup2\n      0x00\n      add\n      exp(0x0100, 0x00)\n      dup2\n      sload\n      dup2\n      0xffffffffffffffffffffffffffffffffffffffff\n      mul\n      not\n      and\n      swap1\n      dup4\n      0xffffffffffffffffffffffffffffffffffffffff\n      and\n      mul\n      or\n      swap1\n      sstore\n      pop\n      0x20\n      dup3\n      add\n      mload\n      dup2\n      0x01\n      add\n      sstore\n      0x40\n      dup3\n      add\n      mload\n      dup2\n      0x02\n      add\n      exp(0x0100, 0x00)\n      dup2\n      sload\n      dup2\n      0xff\n      mul\n      not\n      and\n      swap1\n      dup4\n      0x06\n      dup2\n      gt\n      iszero\n      tag_126\n      jumpi\n      tag_127\n      tag_68\n      jump\t// in\n    tag_127:\n    tag_126:\n      mul\n      or\n      swap1\n      sstore\n      pop\n      0x60\n      dup3\n      add\n      mload\n      dup2\n      0x03\n      add\n      swap1\n      dup2\n      tag_128\n      swap2\n      swap1\n      tag_73\n      jump\t// in\n    tag_128:\n      pop\n      0x80\n      dup3\n      add\n      mload\n      dup2\n      0x04\n      add\n      sstore\n      0xa0\n      dup3\n      add\n      mload\n      dup2\n      0x05\n      add\n      sstore\n      0xc0\n      dup3\n      add\n      mload\n      dup2\n      0x06\n      add\n      sstore\n      pop\n      pop\n        /* \"contracts/LoanCoordinationThread.sol\":7362:7377  sequenceNumbers */\n      0x02\n        /* \"contracts/LoanCoordinationThread.sol\":7362:7387  sequenceNumbers[threadId] */\n      0x00\n        /* \"contracts/LoanCoordinationThread.sol\":7378:7386  threadId */\n      dup4\n        /* \"contracts/LoanCoordinationThread.sol\":7362:7387  sequenceNumbers[threadId] */\n      dup2\n      mstore\n      0x20\n      add\n      swap1\n      dup2\n      mstore\n      0x20\n      add\n      0x00\n      keccak256\n      0x00\n        /* \"contracts/LoanCoordinationThread.sol\":7362:7389  sequenceNumbers[threadId]++ */\n      dup2\n      sload\n      dup1\n      swap3\n      swap2\n      swap1\n      tag_129\n      swap1\n      tag_75\n      jump\t// in\n    tag_129:\n      swap2\n      swap1\n      pop\n      sstore\n      pop\n        /* \"contracts/LoanCoordinationThread.sol\":7432:7442  msg.sender */\n      caller\n        /* \"contracts/LoanCoordinationThread.sol\":7405:7483  ApprovalReceived(threadId, msg.sender, currentSequenceNumber, block.timestamp) */\n      0xffffffffffffffffffffffffffffffffffffffff\n      and\n        /* \"contracts/LoanCoordinationThread.sol\":7422:7430  threadId */\n      dup3\n        /* \"contracts/LoanCoordinationThread.sol\":7405:7483  ApprovalReceived(threadId, msg.sender, currentSequenceNumber, block.timestamp) */\n      0x19a724ff894929d33bb5148b82127a739f59c9826fcc88da55c34663c9df3951\n        /* \"contracts/LoanCoordinationThread.sol\":7444:7465  currentSequenceNumber */\n      dup4\n        /* \"contracts/LoanCoordinationThread.sol\":7467:7482  block.timestamp */\n      timestamp\n        /* \"contracts/LoanCoordinationThread.sol\":7405:7483  ApprovalReceived(threadId, msg.sender, currentSequenceNumber, block.timestamp) */\n      mload(0x40)\n      tag_130\n      swap3\n      swap2\n      swap1\n      tag_77\n      jump\t// in\n    tag_130:\n      mload(0x40)\n      dup1\n      swap2\n      sub\n      swap1\n      log3\n        /* \"contracts/LoanCoordinationThread.sol\":6940:7491  {... */\n      pop\n        /* \"contracts/LoanCoordinationThread.sol\":6894:7491  function approveLoan(bytes32 threadId) public {... */\n      pop\n      jump\t// out\n        /* \"contracts/LoanCoordinationThread.sol\":3323:3943  function createThread(bytes32 threadId) public {... */\n    tag_54:\n        /* \"contracts/LoanCoordinationThread.sol\":3381:3410  uint256 currentSequenceNumber */\n      0x00\n        /* \"contracts/LoanCoordinationThread.sol\":3413:3414  0 */\n      0x00\n        /* \"contracts/LoanCoordinationThread.sol\":3381:3414  uint256 currentSequenceNumber = 0 */\n      swap1\n      pop\n        /* \"contracts/LoanCoordinationThread.sol\":3425:3438  threadActions */\n      0x00\n        /* \"contracts/LoanCoordinationThread.sol\":3425:3448  threadActions[threadId] */\n      0x00\n        /* \"contracts/LoanCoordinationThread.sol\":3439:3447  threadId */\n      dup4\n        /* \"contracts/LoanCoordinationThread.sol\":3425:3448  threadActions[threadId] */\n      dup2\n      mstore\n      0x20\n      add\n      swap1\n      dup2\n      mstore\n      0x20\n      add\n      0x00\n      keccak256\n        /* \"contracts/LoanCoordinationThread.sol\":3454:3755  ThreadAction({... */\n      mload(0x40)\n      dup1\n      0xe0\n      add\n      0x40\n      mstore\n      dup1\n        /* \"contracts/LoanCoordinationThread.sol\":3490:3500  msg.sender */\n      caller\n        /* \"contracts/LoanCoordinationThread.sol\":3454:3755  ThreadAction({... */\n      0xffffffffffffffffffffffffffffffffffffffff\n      and\n      dup2\n      mstore\n      0x20\n      add\n        /* \"contracts/LoanCoordinationThread.sol\":3525:3533  threadId */\n      dup5\n        /* \"contracts/LoanCoordinationThread.sol\":3454:3755  ThreadAction({... */\n      dup2\n      mstore\n      0x20\n      add\n        /* \"contracts/LoanCoordinationThread.sol\":3561:3580  MessageType.REQUEST */\n      0x00\n        /* \"contracts/LoanCoordinationThread.sol\":3454:3755  ThreadAction({... */\n      0x06\n      dup2\n      gt\n      iszero\n      tag_132\n      jumpi\n      tag_133\n      tag_68\n      jump\t// in\n    tag_133:\n    tag_132:\n      dup2\n      mstore\n      0x20\n      add\n      mload(0x40)\n      dup1\n      0x20\n      add\n      0x40\n      mstore\n      dup1\n      0x00\n      dup2\n      mstore\n      pop\n      dup2\n      mstore\n      0x20\n      add\n        /* \"contracts/LoanCoordinationThread.sol\":3643:3664  currentSequenceNumber */\n      dup4\n        /* \"contracts/LoanCoordinationThread.sol\":3454:3755  ThreadAction({... */\n      dup2\n      mstore\n      0x20\n      add\n        /* \"contracts/LoanCoordinationThread.sol\":3690:3705  block.timestamp */\n      timestamp\n        /* \"contracts/LoanCoordinationThread.sol\":3454:3755  ThreadAction({... */\n      dup2\n      mstore\n      0x20\n      add\n        /* \"contracts/LoanCoordinationThread.sol\":3741:3742  0 */\n      0x00\n        /* \"contracts/LoanCoordinationThread.sol\":3733:3743  bytes32(0) */\n      0x00\n      shl\n        /* \"contracts/LoanCoordinationThread.sol\":3454:3755  ThreadAction({... */\n      dup2\n      mstore\n      pop\n        /* \"contracts/LoanCoordinationThread.sol\":3425:3756  threadActions[threadId].push(ThreadAction({... */\n      swap1\n      dup1\n      0x01\n      dup2\n      sload\n      add\n      dup1\n      dup3\n      sstore\n      dup1\n      swap2\n      pop\n      pop\n      0x01\n      swap1\n      sub\n      swap1\n      0x00\n      mstore\n      keccak256(0x00, 0x20)\n      swap1\n      0x07\n      mul\n      add\n      0x00\n      swap1\n      swap2\n      swap1\n      swap2\n      swap1\n      swap2\n      pop\n      0x00\n      dup3\n      add\n      mload\n      dup2\n      0x00\n      add\n      exp(0x0100, 0x00)\n      dup2\n      sload\n      dup2\n      0xffffffffffffffffffffffffffffffffffffffff\n      mul\n      not\n      and\n      swap1\n      dup4\n      0xffffffffffffffffffffffffffffffffffffffff\n      and\n      mul\n      or\n      swap1\n      sstore\n      pop\n      0x20\n      dup3\n      add\n      mload\n      dup2\n      0x01\n      add\n      sstore\n      0x40\n      dup3\n      add\n      mload\n      dup2\n      0x02\n      add\n      exp(0x0100, 0x00)\n      dup2\n      sload\n      dup2\n      0xff\n      mul\n      not\n      and\n      swap1\n      dup4\n      0x06\n      dup2\n      gt\n      iszero\n      tag_135\n      jumpi\n      tag_136\n      tag_68\n      jump\t// in\n    tag_136:\n    tag_135:\n      mul\n      or\n      swap1\n      sstore\n      pop\n      0x60\n      dup3\n      add\n      mload\n      dup2\n      0x03\n      add\n      swap1\n      dup2\n      tag_137\n      swap2\n      swap1\n      tag_73\n      jump\t// in\n    tag_137:\n      pop\n      0x80\n      dup3\n      add\n      mload\n      dup2\n      0x04\n      add\n      sstore\n      0xa0\n      dup3\n      add\n      mload\n      dup2\n      0x05\n      add\n      sstore\n      0xc0\n      dup3\n      add\n      mload\n      dup2\n      0x06\n      add\n      sstore\n      pop\n      pop\n        /* \"contracts/LoanCoordinationThread.sol\":3795:3796  1 */\n      0x01\n        /* \"contracts/LoanCoordinationThread.sol\":3767:3782  sequenceNumbers */\n      0x02\n        /* \"contracts/LoanCoordinationThread.sol\":3767:3792  sequenceNumbers[threadId] */\n      0x00\n        /* \"contracts/LoanCoordinationThread.sol\":3783:3791  threadId */\n      dup5\n        /* \"contracts/LoanCoordinationThread.sol\":3767:3792  sequenceNumbers[threadId] */\n      dup2\n      mstore\n      0x20\n      add\n      swap1\n      dup2\n      mstore\n      0x20\n      add\n      0x00\n      keccak256\n        /* \"contracts/LoanCoordinationThread.sol\":3767:3796  sequenceNumbers[threadId] = 1 */\n      dup2\n      swap1\n      sstore\n      pop\n        /* \"contracts/LoanCoordinationThread.sol\":3880:3890  msg.sender */\n      caller\n        /* \"contracts/LoanCoordinationThread.sol\":3856:3935  ThreadCreated(threadId, msg.sender, sequenceNumbers[threadId], block.timestamp) */\n      0xffffffffffffffffffffffffffffffffffffffff\n      and\n        /* \"contracts/LoanCoordinationThread.sol\":3870:3878  threadId */\n      dup3\n        /* \"contracts/LoanCoordinationThread.sol\":3856:3935  ThreadCreated(threadId, msg.sender, sequenceNumbers[threadId], block.timestamp) */\n      0x25dbd9d5e9a733340719a19ebda07122156565f4099ef52d5c73614c7f6af4e5\n        /* \"contracts/LoanCoordinationThread.sol\":3892:3907  sequenceNumbers */\n      0x02\n        /* \"contracts/LoanCoordinationThread.sol\":3892:3917  sequenceNumbers[threadId] */\n      0x00\n        /* \"contracts/LoanCoordinationThread.sol\":3908:3916  threadId */\n      dup7\n        /* \"contracts/LoanCoordinationThread.sol\":3892:3917  sequenceNumbers[threadId] */\n      dup2\n      mstore\n      0x20\n      add\n      swap1\n      dup2\n      mstore\n      0x20\n      add\n      0x00\n      keccak256\n      sload\n        /* \"contracts/LoanCoordinationThread.sol\":3919:3934  block.timestamp */\n      timestamp\n        /* \"contracts/LoanCoordinationThread.sol\":3856:3935  ThreadCreated(threadId, msg.sender, sequenceNumbers[threadId], block.timestamp) */\n      mload(0x40)\n      tag_138\n      swap3\n      swap2\n      swap1\n      tag_77\n      jump\t// in\n    tag_138:\n      mload(0x40)\n      dup1\n      swap2\n      sub\n      swap1\n      log3\n        /* \"contracts/LoanCoordinationThread.sol\":3370:3943  {... */\n      pop\n        /* \"contracts/LoanCoordinationThread.sol\":3323:3943  function createThread(bytes32 threadId) public {... */\n      pop\n      jump\t// out\n        /* \"contracts/LoanCoordinationThread.sol\":4678:5321  function receiveRiskEvaluation(bytes32 threadId, bytes32 resultHash) public {... */\n    tag_57:\n        /* \"contracts/LoanCoordinationThread.sol\":4765:4794  uint256 currentSequenceNumber */\n      0x00\n        /* \"contracts/LoanCoordinationThread.sol\":4797:4812  sequenceNumbers */\n      0x02\n        /* \"contracts/LoanCoordinationThread.sol\":4797:4822  sequenceNumbers[threadId] */\n      0x00\n        /* \"contracts/LoanCoordinationThread.sol\":4813:4821  threadId */\n      dup5\n        /* \"contracts/LoanCoordinationThread.sol\":4797:4822  sequenceNumbers[threadId] */\n      dup2\n      mstore\n      0x20\n      add\n      swap1\n      dup2\n      mstore\n      0x20\n      add\n      0x00\n      keccak256\n      sload\n        /* \"contracts/LoanCoordinationThread.sol\":4765:4822  uint256 currentSequenceNumber = sequenceNumbers[threadId] */\n      swap1\n      pop\n        /* \"contracts/LoanCoordinationThread.sol\":4833:4846  threadActions */\n      0x00\n        /* \"contracts/LoanCoordinationThread.sol\":4833:4856  threadActions[threadId] */\n      0x00\n        /* \"contracts/LoanCoordinationThread.sol\":4847:4855  threadId */\n      dup5\n        /* \"contracts/LoanCoordinationThread.sol\":4833:4856  threadActions[threadId] */\n      dup2\n      mstore\n      0x20\n      add\n      swap1\n      dup2\n      mstore\n      0x20\n      add\n      0x00\n      keccak256\n        /* \"contracts/LoanCoordinationThread.sol\":4862:5170  ThreadAction({... */\n      mload(0x40)\n      dup1\n      0xe0\n      add\n      0x40\n      mstore\n      dup1\n        /* \"contracts/LoanCoordinationThread.sol\":4898:4908  msg.sender */\n      caller\n        /* \"contracts/LoanCoordinationThread.sol\":4862:5170  ThreadAction({... */\n      0xffffffffffffffffffffffffffffffffffffffff\n      and\n      dup2\n      mstore\n      0x20\n      add\n        /* \"contracts/LoanCoordinationThread.sol\":4933:4941  threadId */\n      dup6\n        /* \"contracts/LoanCoordinationThread.sol\":4862:5170  ThreadAction({... */\n      dup2\n      mstore\n      0x20\n      add\n        /* \"contracts/LoanCoordinationThread.sol\":4969:4995  MessageType.RISK_EVALUATED */\n      0x06\n        /* \"contracts/LoanCoordinationThread.sol\":4862:5170  ThreadAction({... */\n      dup1\n      dup2\n      gt\n      iszero\n      tag_140\n      jumpi\n      tag_141\n      tag_68\n      jump\t// in\n    tag_141:\n    tag_140:\n      dup2\n      mstore\n      0x20\n      add\n      mload(0x40)\n      dup1\n      0x20\n      add\n      0x40\n      mstore\n      dup1\n      0x00\n      dup2\n      mstore\n      pop\n      dup2\n      mstore\n      0x20\n      add\n        /* \"contracts/LoanCoordinationThread.sol\":5058:5079  currentSequenceNumber */\n      dup4\n        /* \"contracts/LoanCoordinationThread.sol\":4862:5170  ThreadAction({... */\n      dup2\n      mstore\n      0x20\n      add\n        /* \"contracts/LoanCoordinationThread.sol\":5105:5120  block.timestamp */\n      timestamp\n        /* \"contracts/LoanCoordinationThread.sol\":4862:5170  ThreadAction({... */\n      dup2\n      mstore\n      0x20\n      add\n        /* \"contracts/LoanCoordinationThread.sol\":5148:5158  resultHash */\n      dup5\n        /* \"contracts/LoanCoordinationThread.sol\":4862:5170  ThreadAction({... */\n      dup2\n      mstore\n      pop\n        /* \"contracts/LoanCoordinationThread.sol\":4833:5171  threadActions[threadId].push(ThreadAction({... */\n      swap1\n      dup1\n      0x01\n      dup2\n      sload\n      add\n      dup1\n      dup3\n      sstore\n      dup1\n      swap2\n      pop\n      pop\n      0x01\n      swap1\n      sub\n      swap1\n      0x00\n      mstore\n      keccak256(0x00, 0x20)\n      swap1\n      0x07\n      mul\n      add\n      0x00\n      swap1\n      swap2\n      swap1\n      swap2\n      swap1\n      swap2\n      pop\n      0x00\n      dup3\n      add\n      mload\n      dup2\n      0x00\n      add\n      exp(0x0100, 0x00)\n      dup2\n      sload\n      dup2\n      0xffffffffffffffffffffffffffffffffffffffff\n      mul\n      not\n      and\n      swap1\n      dup4\n      0xffffffffffffffffffffffffffffffffffffffff\n      and\n      mul\n      or\n      swap1\n      sstore\n      pop\n      0x20\n      dup3\n      add\n      mload\n      dup2\n      0x01\n      add\n      sstore\n      0x40\n      dup3\n      add\n      mload\n      dup2\n      0x02\n      add\n      exp(0x0100, 0x00)\n      dup2\n      sload\n      dup2\n      0xff\n      mul\n      not\n      and\n      swap1\n      dup4\n      0x06\n      dup2\n      gt\n      iszero\n      tag_143\n      jumpi\n      tag_144\n      tag_68\n      jump\t// in\n    tag_144:\n    tag_143:\n      mul\n      or\n      swap1\n      sstore\n      pop\n      0x60\n      dup3\n      add\n      mload\n      dup2\n      0x03\n      add\n      swap1\n      dup2\n      tag_145\n      swap2\n      swap1\n      tag_73\n      jump\t// in\n    tag_145:\n      pop\n      0x80\n      dup3\n      add\n      mload\n      dup2\n      0x04\n      add\n      sstore\n      0xa0\n      dup3\n      add\n      mload\n      dup2\n      0x05\n      add\n      sstore\n      0xc0\n      dup3\n      add\n      mload\n      dup2\n      0x06\n      add\n      sstore\n      pop\n      pop\n        /* \"contracts/LoanCoordinationThread.sol\":5182:5197  sequenceNumbers */\n      0x02\n        /* \"contracts/LoanCoordinationThread.sol\":5182:5207  sequenceNumbers[threadId] */\n      0x00\n        /* \"contracts/LoanCoordinationThread.sol\":5198:5206  threadId */\n      dup5\n        /* \"contracts/LoanCoordinationThread.sol\":5182:5207  sequenceNumbers[threadId] */\n      dup2\n      mstore\n      0x20\n      add\n      swap1\n      dup2\n      mstore\n      0x20\n      add\n      0x00\n      keccak256\n      0x00\n        /* \"contracts/LoanCoordinationThread.sol\":5182:5209  sequenceNumbers[threadId]++ */\n      dup2\n      sload\n      dup1\n      swap3\n      swap2\n      swap1\n      tag_146\n      swap1\n      tag_75\n      jump\t// in\n    tag_146:\n      swap2\n      swap1\n      pop\n      sstore\n      pop\n        /* \"contracts/LoanCoordinationThread.sol\":5258:5268  msg.sender */\n      caller\n        /* \"contracts/LoanCoordinationThread.sol\":5225:5313  RiskEvaluationReceived(threadId, msg.sender, sequenceNumbers[threadId], block.timestamp) */\n      0xffffffffffffffffffffffffffffffffffffffff\n      and\n        /* \"contracts/LoanCoordinationThread.sol\":5248:5256  threadId */\n      dup4\n        /* \"contracts/LoanCoordinationThread.sol\":5225:5313  RiskEvaluationReceived(threadId, msg.sender, sequenceNumbers[threadId], block.timestamp) */\n      0xf6bba8ff2989b8ded9ec92bb66241f10111fc157480acc5741cdbabe4aaf8a5d\n        /* \"contracts/LoanCoordinationThread.sol\":5270:5285  sequenceNumbers */\n      0x02\n        /* \"contracts/LoanCoordinationThread.sol\":5270:5295  sequenceNumbers[threadId] */\n      0x00\n        /* \"contracts/LoanCoordinationThread.sol\":5286:5294  threadId */\n      dup8\n        /* \"contracts/LoanCoordinationThread.sol\":5270:5295  sequenceNumbers[threadId] */\n      dup2\n      mstore\n      0x20\n      add\n      swap1\n      dup2\n      mstore\n      0x20\n      add\n      0x00\n      keccak256\n      sload\n        /* \"contracts/LoanCoordinationThread.sol\":5297:5312  block.timestamp */\n      timestamp\n        /* \"contracts/LoanCoordinationThread.sol\":5225:5313  RiskEvaluationReceived(threadId, msg.sender, sequenceNumbers[threadId], block.timestamp) */\n      mload(0x40)\n      tag_147\n      swap3\n      swap2\n      swap1\n      tag_77\n      jump\t// in\n    tag_147:\n      mload(0x40)\n      dup1\n      swap2\n      sub\n      swap1\n      log3\n        /* \"contracts/LoanCoordinationThread.sol\":4754:5321  {... */\n      pop\n        /* \"contracts/LoanCoordinationThread.sol\":4678:5321  function receiveRiskEvaluation(bytes32 threadId, bytes32 resultHash) public {... */\n      pop\n      pop\n      jump\t// out\n        /* \"contracts/LoanCoordinationThread.sol\":955:975  address public admin */\n    tag_59:\n      0x01\n      0x00\n      swap1\n      sload\n      swap1\n      0x0100\n      exp\n      swap1\n      div\n      0xffffffffffffffffffffffffffffffffffffffff\n      and\n      dup2\n      jump\t// out\n        /* \"contracts/LoanCoordinationThread.sol\":6096:6836  function receiveRiskEvaluationResult(bytes32 threadId, bytes32 resultHash) public {... */\n    tag_64:\n        /* \"contracts/LoanCoordinationThread.sol\":6189:6218  uint256 currentSequenceNumber */\n      0x00\n        /* \"contracts/LoanCoordinationThread.sol\":6221:6236  sequenceNumbers */\n      0x02\n        /* \"contracts/LoanCoordinationThread.sol\":6221:6246  sequenceNumbers[threadId] */\n      0x00\n        /* \"contracts/LoanCoordinationThread.sol\":6237:6245  threadId */\n      dup5\n        /* \"contracts/LoanCoordinationThread.sol\":6221:6246  sequenceNumbers[threadId] */\n      dup2\n      mstore\n      0x20\n      add\n      swap1\n      dup2\n      mstore\n      0x20\n      add\n      0x00\n      keccak256\n      sload\n        /* \"contracts/LoanCoordinationThread.sol\":6189:6246  uint256 currentSequenceNumber = sequenceNumbers[threadId] */\n      swap1\n      pop\n        /* \"contracts/LoanCoordinationThread.sol\":6257:6270  threadActions */\n      0x00\n        /* \"contracts/LoanCoordinationThread.sol\":6257:6280  threadActions[threadId] */\n      0x00\n        /* \"contracts/LoanCoordinationThread.sol\":6271:6279  threadId */\n      dup5\n        /* \"contracts/LoanCoordinationThread.sol\":6257:6280  threadActions[threadId] */\n      dup2\n      mstore\n      0x20\n      add\n      swap1\n      dup2\n      mstore\n      0x20\n      add\n      0x00\n      keccak256\n        /* \"contracts/LoanCoordinationThread.sol\":6286:6591  ThreadAction({... */\n      mload(0x40)\n      dup1\n      0xe0\n      add\n      0x40\n      mstore\n      dup1\n        /* \"contracts/LoanCoordinationThread.sol\":6322:6332  msg.sender */\n      caller\n        /* \"contracts/LoanCoordinationThread.sol\":6286:6591  ThreadAction({... */\n      0xffffffffffffffffffffffffffffffffffffffff\n      and\n      dup2\n      mstore\n      0x20\n      add\n        /* \"contracts/LoanCoordinationThread.sol\":6357:6365  threadId */\n      dup6\n        /* \"contracts/LoanCoordinationThread.sol\":6286:6591  ThreadAction({... */\n      dup2\n      mstore\n      0x20\n      add\n        /* \"contracts/LoanCoordinationThread.sol\":6393:6416  MessageType.RISK_RESULT */\n      0x01\n        /* \"contracts/LoanCoordinationThread.sol\":6286:6591  ThreadAction({... */\n      0x06\n      dup2\n      gt\n      iszero\n      tag_149\n      jumpi\n      tag_150\n      tag_68\n      jump\t// in\n    tag_150:\n    tag_149:\n      dup2\n      mstore\n      0x20\n      add\n      mload(0x40)\n      dup1\n      0x20\n      add\n      0x40\n      mstore\n      dup1\n      0x00\n      dup2\n      mstore\n      pop\n      dup2\n      mstore\n      0x20\n      add\n        /* \"contracts/LoanCoordinationThread.sol\":6479:6500  currentSequenceNumber */\n      dup4\n        /* \"contracts/LoanCoordinationThread.sol\":6286:6591  ThreadAction({... */\n      dup2\n      mstore\n      0x20\n      add\n        /* \"contracts/LoanCoordinationThread.sol\":6526:6541  block.timestamp */\n      timestamp\n        /* \"contracts/LoanCoordinationThread.sol\":6286:6591  ThreadAction({... */\n      dup2\n      mstore\n      0x20\n      add\n        /* \"contracts/LoanCoordinationThread.sol\":6577:6578  0 */\n      0x00\n        /* \"contracts/LoanCoordinationThread.sol\":6569:6579  bytes32(0) */\n      0x00\n      shl\n        /* \"contracts/LoanCoordinationThread.sol\":6286:6591  ThreadAction({... */\n      dup2\n      mstore\n      pop\n        /* \"contracts/LoanCoordinationThread.sol\":6257:6592  threadActions[threadId].push(ThreadAction({... */\n      swap1\n      dup1\n      0x01\n      dup2\n      sload\n      add\n      dup1\n      dup3\n      sstore\n      dup1\n      swap2\n      pop\n      pop\n      0x01\n      swap1\n      sub\n      swap1\n      0x00\n      mstore\n      keccak256(0x00, 0x20)\n      swap1\n      0x07\n      mul\n      add\n      0x00\n      swap1\n      swap2\n      swap1\n      swap2\n      swap1\n      swap2\n      pop\n      0x00\n      dup3\n      add\n      mload\n      dup2\n      0x00\n      add\n      exp(0x0100, 0x00)\n      dup2\n      sload\n      dup2\n      0xffffffffffffffffffffffffffffffffffffffff\n      mul\n      not\n      and\n      swap1\n      dup4\n      0xffffffffffffffffffffffffffffffffffffffff\n      and\n      mul\n      or\n      swap1\n      sstore\n      pop\n      0x20\n      dup3\n      add\n      mload\n      dup2\n      0x01\n      add\n      sstore\n      0x40\n      dup3\n      add\n      mload\n      dup2\n      0x02\n      add\n      exp(0x0100, 0x00)\n      dup2\n      sload\n      dup2\n      0xff\n      mul\n      not\n      and\n      swap1\n      dup4\n      0x06\n      dup2\n      gt\n      iszero\n      tag_152\n      jumpi\n      tag_153\n      tag_68\n      jump\t// in\n    tag_153:\n    tag_152:\n      mul\n      or\n      swap1\n      sstore\n      pop\n      0x60\n      dup3\n      add\n      mload\n      dup2\n      0x03\n      add\n      swap1\n      dup2\n      tag_154\n      swap2\n      swap1\n      tag_73\n      jump\t// in\n    tag_154:\n      pop\n      0x80\n      dup3\n      add\n      mload\n      dup2\n      0x04\n      add\n      sstore\n      0xa0\n      dup3\n      add\n      mload\n      dup2\n      0x05\n      add\n      sstore\n      0xc0\n      dup3\n      add\n      mload\n      dup2\n      0x06\n      add\n      sstore\n      pop\n      pop\n        /* \"contracts/LoanCoordinationThread.sol\":6603:6618  sequenceNumbers */\n      0x02\n        /* \"contracts/LoanCoordinationThread.sol\":6603:6628  sequenceNumbers[threadId] */\n      0x00\n        /* \"contracts/LoanCoordinationThread.sol\":6619:6627  threadId */\n      dup5\n        /* \"contracts/LoanCoordinationThread.sol\":6603:6628  sequenceNumbers[threadId] */\n      dup2\n      mstore\n      0x20\n      add\n      swap1\n      dup2\n      mstore\n      0x20\n      add\n      0x00\n      keccak256\n      0x00\n        /* \"contracts/LoanCoordinationThread.sol\":6603:6630  sequenceNumbers[threadId]++ */\n      dup2\n      sload\n      dup1\n      swap3\n      swap2\n      swap1\n      tag_155\n      swap1\n      tag_75\n      jump\t// in\n    tag_155:\n      swap2\n      swap1\n      pop\n      sstore\n      pop\n        /* \"contracts/LoanCoordinationThread.sol\":6713:6723  msg.sender */\n      caller\n        /* \"contracts/LoanCoordinationThread.sol\":6646:6828  RiskEvaluationResultReceived(... */\n      0xffffffffffffffffffffffffffffffffffffffff\n      and\n        /* \"contracts/LoanCoordinationThread.sol\":6689:6697  threadId */\n      dup4\n        /* \"contracts/LoanCoordinationThread.sol\":6646:6828  RiskEvaluationResultReceived(... */\n      0x70eaaee2d8118d697b7ef2654d928e5cff4561bf2d1d14a59f7e31e50d5b5361\n        /* \"contracts/LoanCoordinationThread.sol\":6739:6760  currentSequenceNumber */\n      dup4\n        /* \"contracts/LoanCoordinationThread.sol\":6776:6791  block.timestamp */\n      timestamp\n        /* \"contracts/LoanCoordinationThread.sol\":6807:6817  resultHash */\n      dup7\n        /* \"contracts/LoanCoordinationThread.sol\":6646:6828  RiskEvaluationResultReceived(... */\n      mload(0x40)\n      tag_156\n      swap4\n      swap3\n      swap2\n      swap1\n      tag_157\n      jump\t// in\n    tag_156:\n      mload(0x40)\n      dup1\n      swap2\n      sub\n      swap1\n      log3\n        /* \"contracts/LoanCoordinationThread.sol\":6178:6836  {... */\n      pop\n        /* \"contracts/LoanCoordinationThread.sol\":6096:6836  function receiveRiskEvaluationResult(bytes32 threadId, bytes32 resultHash) public {... */\n      pop\n      pop\n      jump\t// out\n        /* \"#utility.yul\":88:205   */\n    tag_159:\n        /* \"#utility.yul\":197:198   */\n      0x00\n        /* \"#utility.yul\":194:195   */\n      0x00\n        /* \"#utility.yul\":187:199   */\n      revert\n        /* \"#utility.yul\":334:411   */\n    tag_161:\n        /* \"#utility.yul\":371:378   */\n      0x00\n        /* \"#utility.yul\":400:405   */\n      dup2\n        /* \"#utility.yul\":389:405   */\n      swap1\n      pop\n        /* \"#utility.yul\":334:411   */\n      swap2\n      swap1\n      pop\n      jump\t// out\n        /* \"#utility.yul\":417:539   */\n    tag_162:\n        /* \"#utility.yul\":490:514   */\n      tag_220\n        /* \"#utility.yul\":508:513   */\n      dup2\n        /* \"#utility.yul\":490:514   */\n      tag_161\n      jump\t// in\n    tag_220:\n        /* \"#utility.yul\":483:488   */\n      dup2\n        /* \"#utility.yul\":480:515   */\n      eq\n        /* \"#utility.yul\":470:533   */\n      tag_221\n      jumpi\n        /* \"#utility.yul\":529:530   */\n      0x00\n        /* \"#utility.yul\":526:527   */\n      0x00\n        /* \"#utility.yul\":519:531   */\n      revert\n        /* \"#utility.yul\":470:533   */\n    tag_221:\n        /* \"#utility.yul\":417:539   */\n      pop\n      jump\t// out\n        /* \"#utility.yul\":545:684   */\n    tag_163:\n        /* \"#utility.yul\":591:596   */\n      0x00\n        /* \"#utility.yul\":629:635   */\n      dup2\n        /* \"#utility.yul\":616:636   */\n      calldataload\n        /* \"#utility.yul\":607:636   */\n      swap1\n      pop\n        /* \"#utility.yul\":645:678   */\n      tag_223\n        /* \"#utility.yul\":672:677   */\n      dup2\n        /* \"#utility.yul\":645:678   */\n      tag_162\n      jump\t// in\n    tag_223:\n        /* \"#utility.yul\":545:684   */\n      swap3\n      swap2\n      pop\n      pop\n      jump\t// out\n        /* \"#utility.yul\":690:1019   */\n    tag_18:\n        /* \"#utility.yul\":749:755   */\n      0x00\n        /* \"#utility.yul\":798:800   */\n      0x20\n        /* \"#utility.yul\":786:795   */\n      dup3\n        /* \"#utility.yul\":777:784   */\n      dup5\n        /* \"#utility.yul\":773:796   */\n      sub\n        /* \"#utility.yul\":769:801   */\n      slt\n        /* \"#utility.yul\":766:885   */\n      iszero\n      tag_225\n      jumpi\n        /* \"#utility.yul\":804:883   */\n      tag_226\n      tag_159\n      jump\t// in\n    tag_226:\n        /* \"#utility.yul\":766:885   */\n    tag_225:\n        /* \"#utility.yul\":924:925   */\n      0x00\n        /* \"#utility.yul\":949:1002   */\n      tag_227\n        /* \"#utility.yul\":994:1001   */\n      dup5\n        /* \"#utility.yul\":985:991   */\n      dup3\n        /* \"#utility.yul\":974:983   */\n      dup6\n        /* \"#utility.yul\":970:992   */\n      add\n        /* \"#utility.yul\":949:1002   */\n      tag_163\n      jump\t// in\n    tag_227:\n        /* \"#utility.yul\":939:1002   */\n      swap2\n      pop\n        /* \"#utility.yul\":895:1012   */\n      pop\n        /* \"#utility.yul\":690:1019   */\n      swap3\n      swap2\n      pop\n      pop\n      jump\t// out\n        /* \"#utility.yul\":1025:1102   */\n    tag_164:\n        /* \"#utility.yul\":1062:1069   */\n      0x00\n        /* \"#utility.yul\":1091:1096   */\n      dup2\n        /* \"#utility.yul\":1080:1096   */\n      swap1\n      pop\n        /* \"#utility.yul\":1025:1102   */\n      swap2\n      swap1\n      pop\n      jump\t// out\n        /* \"#utility.yul\":1108:1226   */\n    tag_165:\n        /* \"#utility.yul\":1195:1219   */\n      tag_230\n        /* \"#utility.yul\":1213:1218   */\n      dup2\n        /* \"#utility.yul\":1195:1219   */\n      tag_164\n      jump\t// in\n    tag_230:\n        /* \"#utility.yul\":1190:1193   */\n      dup3\n        /* \"#utility.yul\":1183:1220   */\n      mstore\n        /* \"#utility.yul\":1108:1226   */\n      pop\n      pop\n      jump\t// out\n        /* \"#utility.yul\":1232:1454   */\n    tag_21:\n        /* \"#utility.yul\":1325:1329   */\n      0x00\n        /* \"#utility.yul\":1363:1365   */\n      0x20\n        /* \"#utility.yul\":1352:1361   */\n      dup3\n        /* \"#utility.yul\":1348:1366   */\n      add\n        /* \"#utility.yul\":1340:1366   */\n      swap1\n      pop\n        /* \"#utility.yul\":1376:1447   */\n      tag_232\n        /* \"#utility.yul\":1444:1445   */\n      0x00\n        /* \"#utility.yul\":1433:1442   */\n      dup4\n        /* \"#utility.yul\":1429:1446   */\n      add\n        /* \"#utility.yul\":1420:1426   */\n      dup5\n        /* \"#utility.yul\":1376:1447   */\n      tag_165\n      jump\t// in\n    tag_232:\n        /* \"#utility.yul\":1232:1454   */\n      swap3\n      swap2\n      pop\n      pop\n      jump\t// out\n        /* \"#utility.yul\":1460:1934   */\n    tag_30:\n        /* \"#utility.yul\":1528:1534   */\n      0x00\n        /* \"#utility.yul\":1536:1542   */\n      0x00\n        /* \"#utility.yul\":1585:1587   */\n      0x40\n        /* \"#utility.yul\":1573:1582   */\n      dup4\n        /* \"#utility.yul\":1564:1571   */\n      dup6\n        /* \"#utility.yul\":1560:1583   */\n      sub\n        /* \"#utility.yul\":1556:1588   */\n      slt\n        /* \"#utility.yul\":1553:1672   */\n      iszero\n      tag_234\n      jumpi\n        /* \"#utility.yul\":1591:1670   */\n      tag_235\n      tag_159\n      jump\t// in\n    tag_235:\n        /* \"#utility.yul\":1553:1672   */\n    tag_234:\n        /* \"#utility.yul\":1711:1712   */\n      0x00\n        /* \"#utility.yul\":1736:1789   */\n      tag_236\n        /* \"#utility.yul\":1781:1788   */\n      dup6\n        /* \"#utility.yul\":1772:1778   */\n      dup3\n        /* \"#utility.yul\":1761:1770   */\n      dup7\n        /* \"#utility.yul\":1757:1779   */\n      add\n        /* \"#utility.yul\":1736:1789   */\n      tag_163\n      jump\t// in\n    tag_236:\n        /* \"#utility.yul\":1726:1789   */\n      swap3\n      pop\n        /* \"#utility.yul\":1682:1799   */\n      pop\n        /* \"#utility.yul\":1838:1840   */\n      0x20\n        /* \"#utility.yul\":1864:1917   */\n      tag_237\n        /* \"#utility.yul\":1909:1916   */\n      dup6\n        /* \"#utility.yul\":1900:1906   */\n      dup3\n        /* \"#utility.yul\":1889:1898   */\n      dup7\n        /* \"#utility.yul\":1885:1907   */\n      add\n        /* \"#utility.yul\":1864:1917   */\n      tag_163\n      jump\t// in\n    tag_237:\n        /* \"#utility.yul\":1854:1917   */\n      swap2\n      pop\n        /* \"#utility.yul\":1809:1927   */\n      pop\n        /* \"#utility.yul\":1460:1934   */\n      swap3\n      pop\n      swap3\n      swap1\n      pop\n      jump\t// out\n        /* \"#utility.yul\":1940:2066   */\n    tag_166:\n        /* \"#utility.yul\":1977:1984   */\n      0x00\n        /* \"#utility.yul\":2017:2059   */\n      0xffffffffffffffffffffffffffffffffffffffff\n        /* \"#utility.yul\":2010:2015   */\n      dup3\n        /* \"#utility.yul\":2006:2060   */\n      and\n        /* \"#utility.yul\":1995:2060   */\n      swap1\n      pop\n        /* \"#utility.yul\":1940:2066   */\n      swap2\n      swap1\n      pop\n      jump\t// out\n        /* \"#utility.yul\":2072:2168   */\n    tag_167:\n        /* \"#utility.yul\":2109:2116   */\n      0x00\n        /* \"#utility.yul\":2138:2162   */\n      tag_240\n        /* \"#utility.yul\":2156:2161   */\n      dup3\n        /* \"#utility.yul\":2138:2162   */\n      tag_166\n      jump\t// in\n    tag_240:\n        /* \"#utility.yul\":2127:2162   */\n      swap1\n      pop\n        /* \"#utility.yul\":2072:2168   */\n      swap2\n      swap1\n      pop\n      jump\t// out\n        /* \"#utility.yul\":2174:2296   */\n    tag_168:\n        /* \"#utility.yul\":2247:2271   */\n      tag_242\n        /* \"#utility.yul\":2265:2270   */\n      dup2\n        /* \"#utility.yul\":2247:2271   */\n      tag_167\n      jump\t// in\n    tag_242:\n        /* \"#utility.yul\":2240:2245   */\n      dup2\n        /* \"#utility.yul\":2237:2272   */\n      eq\n        /* \"#utility.yul\":2227:2290   */\n      tag_243\n      jumpi\n        /* \"#utility.yul\":2286:2287   */\n      0x00\n        /* \"#utility.yul\":2283:2284   */\n      0x00\n        /* \"#utility.yul\":2276:2288   */\n      revert\n        /* \"#utility.yul\":2227:2290   */\n    tag_243:\n        /* \"#utility.yul\":2174:2296   */\n      pop\n      jump\t// out\n        /* \"#utility.yul\":2302:2441   */\n    tag_169:\n        /* \"#utility.yul\":2348:2353   */\n      0x00\n        /* \"#utility.yul\":2386:2392   */\n      dup2\n        /* \"#utility.yul\":2373:2393   */\n      calldataload\n        /* \"#utility.yul\":2364:2393   */\n      swap1\n      pop\n        /* \"#utility.yul\":2402:2435   */\n      tag_245\n        /* \"#utility.yul\":2429:2434   */\n      dup2\n        /* \"#utility.yul\":2402:2435   */\n      tag_168\n      jump\t// in\n    tag_245:\n        /* \"#utility.yul\":2302:2441   */\n      swap3\n      swap2\n      pop\n      pop\n      jump\t// out\n        /* \"#utility.yul\":2447:2776   */\n    tag_34:\n        /* \"#utility.yul\":2506:2512   */\n      0x00\n        /* \"#utility.yul\":2555:2557   */\n      0x20\n        /* \"#utility.yul\":2543:2552   */\n      dup3\n        /* \"#utility.yul\":2534:2541   */\n      dup5\n        /* \"#utility.yul\":2530:2553   */\n      sub\n        /* \"#utility.yul\":2526:2558   */\n      slt\n        /* \"#utility.yul\":2523:2642   */\n      iszero\n      tag_247\n      jumpi\n        /* \"#utility.yul\":2561:2640   */\n      tag_248\n      tag_159\n      jump\t// in\n    tag_248:\n        /* \"#utility.yul\":2523:2642   */\n    tag_247:\n        /* \"#utility.yul\":2681:2682   */\n      0x00\n        /* \"#utility.yul\":2706:2759   */\n      tag_249\n        /* \"#utility.yul\":2751:2758   */\n      dup5\n        /* \"#utility.yul\":2742:2748   */\n      dup3\n        /* \"#utility.yul\":2731:2740   */\n      dup6\n        /* \"#utility.yul\":2727:2749   */\n      add\n        /* \"#utility.yul\":2706:2759   */\n      tag_169\n      jump\t// in\n    tag_249:\n        /* \"#utility.yul\":2696:2759   */\n      swap2\n      pop\n        /* \"#utility.yul\":2652:2769   */\n      pop\n        /* \"#utility.yul\":2447:2776   */\n      swap3\n      swap2\n      pop\n      pop\n      jump\t// out\n        /* \"#utility.yul\":2782:2881   */\n    tag_170:\n        /* \"#utility.yul\":2834:2840   */\n      0x00\n        /* \"#utility.yul\":2868:2873   */\n      dup2\n        /* \"#utility.yul\":2862:2874   */\n      mload\n        /* \"#utility.yul\":2852:2874   */\n      swap1\n      pop\n        /* \"#utility.yul\":2782:2881   */\n      swap2\n      swap1\n      pop\n      jump\t// out\n        /* \"#utility.yul\":2887:3056   */\n    tag_171:\n        /* \"#utility.yul\":2971:2982   */\n      0x00\n        /* \"#utility.yul\":3005:3011   */\n      dup3\n        /* \"#utility.yul\":3000:3003   */\n      dup3\n        /* \"#utility.yul\":2993:3012   */\n      mstore\n        /* \"#utility.yul\":3045:3049   */\n      0x20\n        /* \"#utility.yul\":3040:3043   */\n      dup3\n        /* \"#utility.yul\":3036:3050   */\n      add\n        /* \"#utility.yul\":3021:3050   */\n      swap1\n      pop\n        /* \"#utility.yul\":2887:3056   */\n      swap3\n      swap2\n      pop\n      pop\n      jump\t// out\n        /* \"#utility.yul\":3062:3201   */\n    tag_172:\n        /* \"#utility.yul\":3151:3157   */\n      dup3\n        /* \"#utility.yul\":3146:3149   */\n      dup2\n        /* \"#utility.yul\":3141:3144   */\n      dup4\n        /* \"#utility.yul\":3135:3158   */\n      mcopy\n        /* \"#utility.yul\":3192:3193   */\n      0x00\n        /* \"#utility.yul\":3183:3189   */\n      dup4\n        /* \"#utility.yul\":3178:3181   */\n      dup4\n        /* \"#utility.yul\":3174:3190   */\n      add\n        /* \"#utility.yul\":3167:3194   */\n      mstore\n        /* \"#utility.yul\":3062:3201   */\n      pop\n      pop\n      pop\n      jump\t// out\n        /* \"#utility.yul\":3207:3309   */\n    tag_173:\n        /* \"#utility.yul\":3248:3254   */\n      0x00\n        /* \"#utility.yul\":3299:3301   */\n      0x1f\n        /* \"#utility.yul\":3295:3302   */\n      not\n        /* \"#utility.yul\":3290:3292   */\n      0x1f\n        /* \"#utility.yul\":3283:3288   */\n      dup4\n        /* \"#utility.yul\":3279:3293   */\n      add\n        /* \"#utility.yul\":3275:3303   */\n      and\n        /* \"#utility.yul\":3265:3303   */\n      swap1\n      pop\n        /* \"#utility.yul\":3207:3309   */\n      swap2\n      swap1\n      pop\n      jump\t// out\n        /* \"#utility.yul\":3315:3692   */\n    tag_174:\n        /* \"#utility.yul\":3403:3406   */\n      0x00\n        /* \"#utility.yul\":3431:3470   */\n      tag_255\n        /* \"#utility.yul\":3464:3469   */\n      dup3\n        /* \"#utility.yul\":3431:3470   */\n      tag_170\n      jump\t// in\n    tag_255:\n        /* \"#utility.yul\":3486:3557   */\n      tag_256\n        /* \"#utility.yul\":3550:3556   */\n      dup2\n        /* \"#utility.yul\":3545:3548   */\n      dup6\n        /* \"#utility.yul\":3486:3557   */\n      tag_171\n      jump\t// in\n    tag_256:\n        /* \"#utility.yul\":3479:3557   */\n      swap4\n      pop\n        /* \"#utility.yul\":3566:3631   */\n      tag_257\n        /* \"#utility.yul\":3624:3630   */\n      dup2\n        /* \"#utility.yul\":3619:3622   */\n      dup6\n        /* \"#utility.yul\":3612:3616   */\n      0x20\n        /* \"#utility.yul\":3605:3610   */\n      dup7\n        /* \"#utility.yul\":3601:3617   */\n      add\n        /* \"#utility.yul\":3566:3631   */\n      tag_172\n      jump\t// in\n    tag_257:\n        /* \"#utility.yul\":3656:3685   */\n      tag_258\n        /* \"#utility.yul\":3678:3684   */\n      dup2\n        /* \"#utility.yul\":3656:3685   */\n      tag_173\n      jump\t// in\n    tag_258:\n        /* \"#utility.yul\":3651:3654   */\n      dup5\n        /* \"#utility.yul\":3647:3686   */\n      add\n        /* \"#utility.yul\":3640:3686   */\n      swap2\n      pop\n        /* \"#utility.yul\":3407:3692   */\n      pop\n        /* \"#utility.yul\":3315:3692   */\n      swap3\n      swap2\n      pop\n      pop\n      jump\t// out\n        /* \"#utility.yul\":3698:4011   */\n    tag_37:\n        /* \"#utility.yul\":3811:3815   */\n      0x00\n        /* \"#utility.yul\":3849:3851   */\n      0x20\n        /* \"#utility.yul\":3838:3847   */\n      dup3\n        /* \"#utility.yul\":3834:3852   */\n      add\n        /* \"#utility.yul\":3826:3852   */\n      swap1\n      pop\n        /* \"#utility.yul\":3898:3907   */\n      dup2\n        /* \"#utility.yul\":3892:3896   */\n      dup2\n        /* \"#utility.yul\":3888:3908   */\n      sub\n        /* \"#utility.yul\":3884:3885   */\n      0x00\n        /* \"#utility.yul\":3873:3882   */\n      dup4\n        /* \"#utility.yul\":3869:3886   */\n      add\n        /* \"#utility.yul\":3862:3909   */\n      mstore\n        /* \"#utility.yul\":3926:4004   */\n      tag_260\n        /* \"#utility.yul\":3999:4003   */\n      dup2\n        /* \"#utility.yul\":3990:3996   */\n      dup5\n        /* \"#utility.yul\":3926:4004   */\n      tag_174\n      jump\t// in\n    tag_260:\n        /* \"#utility.yul\":3918:4004   */\n      swap1\n      pop\n        /* \"#utility.yul\":3698:4011   */\n      swap3\n      swap2\n      pop\n      pop\n      jump\t// out\n        /* \"#utility.yul\":4017:4159   */\n    tag_175:\n        /* \"#utility.yul\":4112:4118   */\n      0x00\n        /* \"#utility.yul\":4146:4151   */\n      dup2\n        /* \"#utility.yul\":4140:4152   */\n      mload\n        /* \"#utility.yul\":4130:4152   */\n      swap1\n      pop\n        /* \"#utility.yul\":4017:4159   */\n      swap2\n      swap1\n      pop\n      jump\t// out\n        /* \"#utility.yul\":4165:4377   */\n    tag_176:\n        /* \"#utility.yul\":4292:4303   */\n      0x00\n        /* \"#utility.yul\":4326:4332   */\n      dup3\n        /* \"#utility.yul\":4321:4324   */\n      dup3\n        /* \"#utility.yul\":4314:4333   */\n      mstore\n        /* \"#utility.yul\":4366:4370   */\n      0x20\n        /* \"#utility.yul\":4361:4364   */\n      dup3\n        /* \"#utility.yul\":4357:4371   */\n      add\n        /* \"#utility.yul\":4342:4371   */\n      swap1\n      pop\n        /* \"#utility.yul\":4165:4377   */\n      swap3\n      swap2\n      pop\n      pop\n      jump\t// out\n        /* \"#utility.yul\":4383:4543   */\n    tag_177:\n        /* \"#utility.yul\":4478:4482   */\n      0x00\n        /* \"#utility.yul\":4501:4504   */\n      dup2\n        /* \"#utility.yul\":4493:4504   */\n      swap1\n      pop\n        /* \"#utility.yul\":4531:4535   */\n      0x20\n        /* \"#utility.yul\":4526:4529   */\n      dup3\n        /* \"#utility.yul\":4522:4536   */\n      add\n        /* \"#utility.yul\":4514:4536   */\n      swap1\n      pop\n        /* \"#utility.yul\":4383:4543   */\n      swap2\n      swap1\n      pop\n      jump\t// out\n        /* \"#utility.yul\":4549:4657   */\n    tag_178:\n        /* \"#utility.yul\":4626:4650   */\n      tag_265\n        /* \"#utility.yul\":4644:4649   */\n      dup2\n        /* \"#utility.yul\":4626:4650   */\n      tag_167\n      jump\t// in\n    tag_265:\n        /* \"#utility.yul\":4621:4624   */\n      dup3\n        /* \"#utility.yul\":4614:4651   */\n      mstore\n        /* \"#utility.yul\":4549:4657   */\n      pop\n      pop\n      jump\t// out\n        /* \"#utility.yul\":4663:4771   */\n    tag_179:\n        /* \"#utility.yul\":4740:4764   */\n      tag_267\n        /* \"#utility.yul\":4758:4763   */\n      dup2\n        /* \"#utility.yul\":4740:4764   */\n      tag_161\n      jump\t// in\n    tag_267:\n        /* \"#utility.yul\":4735:4738   */\n      dup3\n        /* \"#utility.yul\":4728:4765   */\n      mstore\n        /* \"#utility.yul\":4663:4771   */\n      pop\n      pop\n      jump\t// out\n        /* \"#utility.yul\":4777:4957   */\n    tag_68:\n        /* \"#utility.yul\":4825:4902   */\n      0x4e487b7100000000000000000000000000000000000000000000000000000000\n        /* \"#utility.yul\":4822:4823   */\n      0x00\n        /* \"#utility.yul\":4815:4903   */\n      mstore\n        /* \"#utility.yul\":4922:4926   */\n      0x21\n        /* \"#utility.yul\":4919:4920   */\n      0x04\n        /* \"#utility.yul\":4912:4927   */\n      mstore\n        /* \"#utility.yul\":4946:4950   */\n      0x24\n        /* \"#utility.yul\":4943:4944   */\n      0x00\n        /* \"#utility.yul\":4936:4951   */\n      revert\n        /* \"#utility.yul\":4963:5081   */\n    tag_180:\n        /* \"#utility.yul\":5049:5050   */\n      0x07\n        /* \"#utility.yul\":5042:5047   */\n      dup2\n        /* \"#utility.yul\":5039:5051   */\n      lt\n        /* \"#utility.yul\":5029:5075   */\n      tag_270\n      jumpi\n        /* \"#utility.yul\":5055:5073   */\n      tag_271\n      tag_68\n      jump\t// in\n    tag_271:\n        /* \"#utility.yul\":5029:5075   */\n    tag_270:\n        /* \"#utility.yul\":4963:5081   */\n      pop\n      jump\t// out\n        /* \"#utility.yul\":5087:5224   */\n    tag_181:\n        /* \"#utility.yul\":5137:5144   */\n      0x00\n        /* \"#utility.yul\":5166:5171   */\n      dup2\n        /* \"#utility.yul\":5155:5171   */\n      swap1\n      pop\n        /* \"#utility.yul\":5172:5218   */\n      tag_273\n        /* \"#utility.yul\":5212:5217   */\n      dup3\n        /* \"#utility.yul\":5172:5218   */\n      tag_180\n      jump\t// in\n    tag_273:\n        /* \"#utility.yul\":5087:5224   */\n      swap2\n      swap1\n      pop\n      jump\t// out\n        /* \"#utility.yul\":5230:5367   */\n    tag_182:\n        /* \"#utility.yul\":5291:5300   */\n      0x00\n        /* \"#utility.yul\":5324:5361   */\n      tag_275\n        /* \"#utility.yul\":5355:5360   */\n      dup3\n        /* \"#utility.yul\":5324:5361   */\n      tag_181\n      jump\t// in\n    tag_275:\n        /* \"#utility.yul\":5311:5361   */\n      swap1\n      pop\n        /* \"#utility.yul\":5230:5367   */\n      swap2\n      swap1\n      pop\n      jump\t// out\n        /* \"#utility.yul\":5373:5516   */\n    tag_183:\n        /* \"#utility.yul\":5461:5509   */\n      tag_277\n        /* \"#utility.yul\":5503:5508   */\n      dup2\n        /* \"#utility.yul\":5461:5509   */\n      tag_182\n      jump\t// in\n    tag_277:\n        /* \"#utility.yul\":5456:5459   */\n      dup3\n        /* \"#utility.yul\":5449:5510   */\n      mstore\n        /* \"#utility.yul\":5373:5516   */\n      pop\n      pop\n      jump\t// out\n        /* \"#utility.yul\":5522:5681   */\n    tag_184:\n        /* \"#utility.yul\":5596:5607   */\n      0x00\n        /* \"#utility.yul\":5630:5636   */\n      dup3\n        /* \"#utility.yul\":5625:5628   */\n      dup3\n        /* \"#utility.yul\":5618:5637   */\n      mstore\n        /* \"#utility.yul\":5670:5674   */\n      0x20\n        /* \"#utility.yul\":5665:5668   */\n      dup3\n        /* \"#utility.yul\":5661:5675   */\n      add\n        /* \"#utility.yul\":5646:5675   */\n      swap1\n      pop\n        /* \"#utility.yul\":5522:5681   */\n      swap3\n      swap2\n      pop\n      pop\n      jump\t// out\n        /* \"#utility.yul\":5687:6044   */\n    tag_185:\n        /* \"#utility.yul\":5765:5768   */\n      0x00\n        /* \"#utility.yul\":5793:5832   */\n      tag_280\n        /* \"#utility.yul\":5826:5831   */\n      dup3\n        /* \"#utility.yul\":5793:5832   */\n      tag_170\n      jump\t// in\n    tag_280:\n        /* \"#utility.yul\":5848:5909   */\n      tag_281\n        /* \"#utility.yul\":5902:5908   */\n      dup2\n        /* \"#utility.yul\":5897:5900   */\n      dup6\n        /* \"#utility.yul\":5848:5909   */\n      tag_184\n      jump\t// in\n    tag_281:\n        /* \"#utility.yul\":5841:5909   */\n      swap4\n      pop\n        /* \"#utility.yul\":5918:5983   */\n      tag_282\n        /* \"#utility.yul\":5976:5982   */\n      dup2\n        /* \"#utility.yul\":5971:5974   */\n      dup6\n        /* \"#utility.yul\":5964:5968   */\n      0x20\n        /* \"#utility.yul\":5957:5962   */\n      dup7\n        /* \"#utility.yul\":5953:5969   */\n      add\n        /* \"#utility.yul\":5918:5983   */\n      tag_172\n      jump\t// in\n    tag_282:\n        /* \"#utility.yul\":6008:6037   */\n      tag_283\n        /* \"#utility.yul\":6030:6036   */\n      dup2\n        /* \"#utility.yul\":6008:6037   */\n      tag_173\n      jump\t// in\n    tag_283:\n        /* \"#utility.yul\":6003:6006   */\n      dup5\n        /* \"#utility.yul\":5999:6038   */\n      add\n        /* \"#utility.yul\":5992:6038   */\n      swap2\n      pop\n        /* \"#utility.yul\":5769:6044   */\n      pop\n        /* \"#utility.yul\":5687:6044   */\n      swap3\n      swap2\n      pop\n      pop\n      jump\t// out\n        /* \"#utility.yul\":6050:6158   */\n    tag_186:\n        /* \"#utility.yul\":6127:6151   */\n      tag_285\n        /* \"#utility.yul\":6145:6150   */\n      dup2\n        /* \"#utility.yul\":6127:6151   */\n      tag_164\n      jump\t// in\n    tag_285:\n        /* \"#utility.yul\":6122:6125   */\n      dup3\n        /* \"#utility.yul\":6115:6152   */\n      mstore\n        /* \"#utility.yul\":6050:6158   */\n      pop\n      pop\n      jump\t// out\n        /* \"#utility.yul\":6252:7779   */\n    tag_187:\n        /* \"#utility.yul\":6367:6370   */\n      0x00\n        /* \"#utility.yul\":6403:6407   */\n      0xe0\n        /* \"#utility.yul\":6398:6401   */\n      dup4\n        /* \"#utility.yul\":6394:6408   */\n      add\n        /* \"#utility.yul\":6492:6496   */\n      0x00\n        /* \"#utility.yul\":6485:6490   */\n      dup4\n        /* \"#utility.yul\":6481:6497   */\n      add\n        /* \"#utility.yul\":6475:6498   */\n      mload\n        /* \"#utility.yul\":6511:6574   */\n      tag_287\n        /* \"#utility.yul\":6568:6572   */\n      0x00\n        /* \"#utility.yul\":6563:6566   */\n      dup7\n        /* \"#utility.yul\":6559:6573   */\n      add\n        /* \"#utility.yul\":6545:6557   */\n      dup3\n        /* \"#utility.yul\":6511:6574   */\n      tag_178\n      jump\t// in\n    tag_287:\n        /* \"#utility.yul\":6418:6584   */\n      pop\n        /* \"#utility.yul\":6670:6674   */\n      0x20\n        /* \"#utility.yul\":6663:6668   */\n      dup4\n        /* \"#utility.yul\":6659:6675   */\n      add\n        /* \"#utility.yul\":6653:6676   */\n      mload\n        /* \"#utility.yul\":6689:6752   */\n      tag_288\n        /* \"#utility.yul\":6746:6750   */\n      0x20\n        /* \"#utility.yul\":6741:6744   */\n      dup7\n        /* \"#utility.yul\":6737:6751   */\n      add\n        /* \"#utility.yul\":6723:6735   */\n      dup3\n        /* \"#utility.yul\":6689:6752   */\n      tag_179\n      jump\t// in\n    tag_288:\n        /* \"#utility.yul\":6594:6762   */\n      pop\n        /* \"#utility.yul\":6851:6855   */\n      0x40\n        /* \"#utility.yul\":6844:6849   */\n      dup4\n        /* \"#utility.yul\":6840:6856   */\n      add\n        /* \"#utility.yul\":6834:6857   */\n      mload\n        /* \"#utility.yul\":6870:6944   */\n      tag_289\n        /* \"#utility.yul\":6938:6942   */\n      0x40\n        /* \"#utility.yul\":6933:6936   */\n      dup7\n        /* \"#utility.yul\":6929:6943   */\n      add\n        /* \"#utility.yul\":6915:6927   */\n      dup3\n        /* \"#utility.yul\":6870:6944   */\n      tag_183\n      jump\t// in\n    tag_289:\n        /* \"#utility.yul\":6772:6954   */\n      pop\n        /* \"#utility.yul\":7045:7049   */\n      0x60\n        /* \"#utility.yul\":7038:7043   */\n      dup4\n        /* \"#utility.yul\":7034:7050   */\n      add\n        /* \"#utility.yul\":7028:7051   */\n      mload\n        /* \"#utility.yul\":7098:7101   */\n      dup5\n        /* \"#utility.yul\":7092:7096   */\n      dup3\n        /* \"#utility.yul\":7088:7102   */\n      sub\n        /* \"#utility.yul\":7081:7085   */\n      0x60\n        /* \"#utility.yul\":7076:7079   */\n      dup7\n        /* \"#utility.yul\":7072:7086   */\n      add\n        /* \"#utility.yul\":7065:7103   */\n      mstore\n        /* \"#utility.yul\":7124:7197   */\n      tag_290\n        /* \"#utility.yul\":7192:7196   */\n      dup3\n        /* \"#utility.yul\":7178:7190   */\n      dup3\n        /* \"#utility.yul\":7124:7197   */\n      tag_185\n      jump\t// in\n    tag_290:\n        /* \"#utility.yul\":7116:7197   */\n      swap2\n      pop\n        /* \"#utility.yul\":6964:7208   */\n      pop\n        /* \"#utility.yul\":7300:7304   */\n      0x80\n        /* \"#utility.yul\":7293:7298   */\n      dup4\n        /* \"#utility.yul\":7289:7305   */\n      add\n        /* \"#utility.yul\":7283:7306   */\n      mload\n        /* \"#utility.yul\":7319:7382   */\n      tag_291\n        /* \"#utility.yul\":7376:7380   */\n      0x80\n        /* \"#utility.yul\":7371:7374   */\n      dup7\n        /* \"#utility.yul\":7367:7381   */\n      add\n        /* \"#utility.yul\":7353:7365   */\n      dup3\n        /* \"#utility.yul\":7319:7382   */\n      tag_186\n      jump\t// in\n    tag_291:\n        /* \"#utility.yul\":7218:7392   */\n      pop\n        /* \"#utility.yul\":7479:7483   */\n      0xa0\n        /* \"#utility.yul\":7472:7477   */\n      dup4\n        /* \"#utility.yul\":7468:7484   */\n      add\n        /* \"#utility.yul\":7462:7485   */\n      mload\n        /* \"#utility.yul\":7498:7561   */\n      tag_292\n        /* \"#utility.yul\":7555:7559   */\n      0xa0\n        /* \"#utility.yul\":7550:7553   */\n      dup7\n        /* \"#utility.yul\":7546:7560   */\n      add\n        /* \"#utility.yul\":7532:7544   */\n      dup3\n        /* \"#utility.yul\":7498:7561   */\n      tag_186\n      jump\t// in\n    tag_292:\n        /* \"#utility.yul\":7402:7571   */\n      pop\n        /* \"#utility.yul\":7660:7664   */\n      0xc0\n        /* \"#utility.yul\":7653:7658   */\n      dup4\n        /* \"#utility.yul\":7649:7665   */\n      add\n        /* \"#utility.yul\":7643:7666   */\n      mload\n        /* \"#utility.yul\":7679:7742   */\n      tag_293\n        /* \"#utility.yul\":7736:7740   */\n      0xc0\n        /* \"#utility.yul\":7731:7734   */\n      dup7\n        /* \"#utility.yul\":7727:7741   */\n      add\n        /* \"#utility.yul\":7713:7725   */\n      dup3\n        /* \"#utility.yul\":7679:7742   */\n      tag_179\n      jump\t// in\n    tag_293:\n        /* \"#utility.yul\":7581:7752   */\n      pop\n        /* \"#utility.yul\":7769:7773   */\n      dup1\n        /* \"#utility.yul\":7762:7773   */\n      swap2\n      pop\n        /* \"#utility.yul\":6372:7779   */\n      pop\n        /* \"#utility.yul\":6252:7779   */\n      swap3\n      swap2\n      pop\n      pop\n      jump\t// out\n        /* \"#utility.yul\":7785:8053   */\n    tag_188:\n        /* \"#utility.yul\":7910:7920   */\n      0x00\n        /* \"#utility.yul\":7945:8047   */\n      tag_295\n        /* \"#utility.yul\":8043:8046   */\n      dup4\n        /* \"#utility.yul\":8035:8041   */\n      dup4\n        /* \"#utility.yul\":7945:8047   */\n      tag_187\n      jump\t// in\n    tag_295:\n        /* \"#utility.yul\":7931:8047   */\n      swap1\n      pop\n        /* \"#utility.yul\":7785:8053   */\n      swap3\n      swap2\n      pop\n      pop\n      jump\t// out\n        /* \"#utility.yul\":8059:8200   */\n    tag_189:\n        /* \"#utility.yul\":8157:8161   */\n      0x00\n        /* \"#utility.yul\":8189:8193   */\n      0x20\n        /* \"#utility.yul\":8184:8187   */\n      dup3\n        /* \"#utility.yul\":8180:8194   */\n      add\n        /* \"#utility.yul\":8172:8194   */\n      swap1\n      pop\n        /* \"#utility.yul\":8059:8200   */\n      swap2\n      swap1\n      pop\n      jump\t// out\n        /* \"#utility.yul\":8298:9433   */\n    tag_190:\n        /* \"#utility.yul\":8473:8476   */\n      0x00\n        /* \"#utility.yul\":8502:8584   */\n      tag_298\n        /* \"#utility.yul\":8578:8583   */\n      dup3\n        /* \"#utility.yul\":8502:8584   */\n      tag_175\n      jump\t// in\n    tag_298:\n        /* \"#utility.yul\":8600:8714   */\n      tag_299\n        /* \"#utility.yul\":8707:8713   */\n      dup2\n        /* \"#utility.yul\":8702:8705   */\n      dup6\n        /* \"#utility.yul\":8600:8714   */\n      tag_176\n      jump\t// in\n    tag_299:\n        /* \"#utility.yul\":8593:8714   */\n      swap4\n      pop\n        /* \"#utility.yul\":8740:8743   */\n      dup4\n        /* \"#utility.yul\":8785:8789   */\n      0x20\n        /* \"#utility.yul\":8777:8783   */\n      dup3\n        /* \"#utility.yul\":8773:8790   */\n      mul\n        /* \"#utility.yul\":8768:8771   */\n      dup6\n        /* \"#utility.yul\":8764:8791   */\n      add\n        /* \"#utility.yul\":8815:8899   */\n      tag_300\n        /* \"#utility.yul\":8893:8898   */\n      dup6\n        /* \"#utility.yul\":8815:8899   */\n      tag_177\n      jump\t// in\n    tag_300:\n        /* \"#utility.yul\":8922:8929   */\n      dup1\n        /* \"#utility.yul\":8953:8954   */\n      0x00\n        /* \"#utility.yul\":8938:9388   */\n    tag_301:\n        /* \"#utility.yul\":8963:8969   */\n      dup6\n        /* \"#utility.yul\":8960:8961   */\n      dup2\n        /* \"#utility.yul\":8957:8970   */\n      lt\n        /* \"#utility.yul\":8938:9388   */\n      iszero\n      tag_303\n      jumpi\n        /* \"#utility.yul\":9034:9043   */\n      dup5\n        /* \"#utility.yul\":9028:9032   */\n      dup5\n        /* \"#utility.yul\":9024:9044   */\n      sub\n        /* \"#utility.yul\":9019:9022   */\n      dup10\n        /* \"#utility.yul\":9012:9045   */\n      mstore\n        /* \"#utility.yul\":9085:9091   */\n      dup2\n        /* \"#utility.yul\":9079:9092   */\n      mload\n        /* \"#utility.yul\":9113:9233   */\n      tag_304\n        /* \"#utility.yul\":9228:9232   */\n      dup6\n        /* \"#utility.yul\":9213:9226   */\n      dup3\n        /* \"#utility.yul\":9113:9233   */\n      tag_188\n      jump\t// in\n    tag_304:\n        /* \"#utility.yul\":9105:9233   */\n      swap5\n      pop\n        /* \"#utility.yul\":9256:9344   */\n      tag_305\n        /* \"#utility.yul\":9337:9343   */\n      dup4\n        /* \"#utility.yul\":9256:9344   */\n      tag_189\n      jump\t// in\n    tag_305:\n        /* \"#utility.yul\":9246:9344   */\n      swap3\n      pop\n        /* \"#utility.yul\":9373:9377   */\n      0x20\n        /* \"#utility.yul\":9368:9371   */\n      dup11\n        /* \"#utility.yul\":9364:9378   */\n      add\n        /* \"#utility.yul\":9357:9378   */\n      swap10\n      pop\n        /* \"#utility.yul\":8998:9388   */\n      pop\n        /* \"#utility.yul\":8985:8986   */\n      0x01\n        /* \"#utility.yul\":8982:8983   */\n      dup2\n        /* \"#utility.yul\":8978:8987   */\n      add\n        /* \"#utility.yul\":8973:8987   */\n      swap1\n      pop\n        /* \"#utility.yul\":8938:9388   */\n      jump(tag_301)\n    tag_303:\n        /* \"#utility.yul\":8942:8956   */\n      pop\n        /* \"#utility.yul\":9404:9408   */\n      dup3\n        /* \"#utility.yul\":9397:9408   */\n      swap8\n      pop\n        /* \"#utility.yul\":9424:9427   */\n      dup8\n        /* \"#utility.yul\":9417:9427   */\n      swap6\n      pop\n        /* \"#utility.yul\":8478:9433   */\n      pop\n      pop\n      pop\n      pop\n      pop\n        /* \"#utility.yul\":8298:9433   */\n      swap3\n      swap2\n      pop\n      pop\n      jump\t// out\n        /* \"#utility.yul\":9439:9924   */\n    tag_42:\n        /* \"#utility.yul\":9638:9642   */\n      0x00\n        /* \"#utility.yul\":9676:9678   */\n      0x20\n        /* \"#utility.yul\":9665:9674   */\n      dup3\n        /* \"#utility.yul\":9661:9679   */\n      add\n        /* \"#utility.yul\":9653:9679   */\n      swap1\n      pop\n        /* \"#utility.yul\":9725:9734   */\n      dup2\n        /* \"#utility.yul\":9719:9723   */\n      dup2\n        /* \"#utility.yul\":9715:9735   */\n      sub\n        /* \"#utility.yul\":9711:9712   */\n      0x00\n        /* \"#utility.yul\":9700:9709   */\n      dup4\n        /* \"#utility.yul\":9696:9713   */\n      add\n        /* \"#utility.yul\":9689:9736   */\n      mstore\n        /* \"#utility.yul\":9753:9917   */\n      tag_307\n        /* \"#utility.yul\":9912:9916   */\n      dup2\n        /* \"#utility.yul\":9903:9909   */\n      dup5\n        /* \"#utility.yul\":9753:9917   */\n      tag_190\n      jump\t// in\n    tag_307:\n        /* \"#utility.yul\":9745:9917   */\n      swap1\n      pop\n        /* \"#utility.yul\":9439:9924   */\n      swap3\n      swap2\n      pop\n      pop\n      jump\t// out\n        /* \"#utility.yul\":9930:10052   */\n    tag_191:\n        /* \"#utility.yul\":10003:10027   */\n      tag_309\n        /* \"#utility.yul\":10021:10026   */\n      dup2\n        /* \"#utility.yul\":10003:10027   */\n      tag_164\n      jump\t// in\n    tag_309:\n        /* \"#utility.yul\":9996:10001   */\n      dup2\n        /* \"#utility.yul\":9993:10028   */\n      eq\n        /* \"#utility.yul\":9983:10046   */\n      tag_310\n      jumpi\n        /* \"#utility.yul\":10042:10043   */\n      0x00\n        /* \"#utility.yul\":10039:10040   */\n      0x00\n        /* \"#utility.yul\":10032:10044   */\n      revert\n        /* \"#utility.yul\":9983:10046   */\n    tag_310:\n        /* \"#utility.yul\":9930:10052   */\n      pop\n      jump\t// out\n        /* \"#utility.yul\":10058:10197   */\n    tag_192:\n        /* \"#utility.yul\":10104:10109   */\n      0x00\n        /* \"#utility.yul\":10142:10148   */\n      dup2\n        /* \"#utility.yul\":10129:10149   */\n      calldataload\n        /* \"#utility.yul\":10120:10149   */\n      swap1\n      pop\n        /* \"#utility.yul\":10158:10191   */\n      tag_312\n        /* \"#utility.yul\":10185:10190   */\n      dup2\n        /* \"#utility.yul\":10158:10191   */\n      tag_191\n      jump\t// in\n    tag_312:\n        /* \"#utility.yul\":10058:10197   */\n      swap3\n      swap2\n      pop\n      pop\n      jump\t// out\n        /* \"#utility.yul\":10203:10677   */\n    tag_45:\n        /* \"#utility.yul\":10271:10277   */\n      0x00\n        /* \"#utility.yul\":10279:10285   */\n      0x00\n        /* \"#utility.yul\":10328:10330   */\n      0x40\n        /* \"#utility.yul\":10316:10325   */\n      dup4\n        /* \"#utility.yul\":10307:10314   */\n      dup6\n        /* \"#utility.yul\":10303:10326   */\n      sub\n        /* \"#utility.yul\":10299:10331   */\n      slt\n        /* \"#utility.yul\":10296:10415   */\n      iszero\n      tag_314\n      jumpi\n        /* \"#utility.yul\":10334:10413   */\n      tag_315\n      tag_159\n      jump\t// in\n    tag_315:\n        /* \"#utility.yul\":10296:10415   */\n    tag_314:\n        /* \"#utility.yul\":10454:10455   */\n      0x00\n        /* \"#utility.yul\":10479:10532   */\n      tag_316\n        /* \"#utility.yul\":10524:10531   */\n      dup6\n        /* \"#utility.yul\":10515:10521   */\n      dup3\n        /* \"#utility.yul\":10504:10513   */\n      dup7\n        /* \"#utility.yul\":10500:10522   */\n      add\n        /* \"#utility.yul\":10479:10532   */\n      tag_163\n      jump\t// in\n    tag_316:\n        /* \"#utility.yul\":10469:10532   */\n      swap3\n      pop\n        /* \"#utility.yul\":10425:10542   */\n      pop\n        /* \"#utility.yul\":10581:10583   */\n      0x20\n        /* \"#utility.yul\":10607:10660   */\n      tag_317\n        /* \"#utility.yul\":10652:10659   */\n      dup6\n        /* \"#utility.yul\":10643:10649   */\n      dup3\n        /* \"#utility.yul\":10632:10641   */\n      dup7\n        /* \"#utility.yul\":10628:10650   */\n      add\n        /* \"#utility.yul\":10607:10660   */\n      tag_192\n      jump\t// in\n    tag_317:\n        /* \"#utility.yul\":10597:10660   */\n      swap2\n      pop\n        /* \"#utility.yul\":10552:10670   */\n      pop\n        /* \"#utility.yul\":10203:10677   */\n      swap3\n      pop\n      swap3\n      swap1\n      pop\n      jump\t// out\n        /* \"#utility.yul\":10683:10801   */\n    tag_193:\n        /* \"#utility.yul\":10770:10794   */\n      tag_319\n        /* \"#utility.yul\":10788:10793   */\n      dup2\n        /* \"#utility.yul\":10770:10794   */\n      tag_167\n      jump\t// in\n    tag_319:\n        /* \"#utility.yul\":10765:10768   */\n      dup3\n        /* \"#utility.yul\":10758:10795   */\n      mstore\n        /* \"#utility.yul\":10683:10801   */\n      pop\n      pop\n      jump\t// out\n        /* \"#utility.yul\":10807:10925   */\n    tag_194:\n        /* \"#utility.yul\":10894:10918   */\n      tag_321\n        /* \"#utility.yul\":10912:10917   */\n      dup2\n        /* \"#utility.yul\":10894:10918   */\n      tag_161\n      jump\t// in\n    tag_321:\n        /* \"#utility.yul\":10889:10892   */\n      dup3\n        /* \"#utility.yul\":10882:10919   */\n      mstore\n        /* \"#utility.yul\":10807:10925   */\n      pop\n      pop\n      jump\t// out\n        /* \"#utility.yul\":10931:11084   */\n    tag_195:\n        /* \"#utility.yul\":11029:11077   */\n      tag_323\n        /* \"#utility.yul\":11071:11076   */\n      dup2\n        /* \"#utility.yul\":11029:11077   */\n      tag_182\n      jump\t// in\n    tag_323:\n        /* \"#utility.yul\":11024:11027   */\n      dup3\n        /* \"#utility.yul\":11017:11078   */\n      mstore\n        /* \"#utility.yul\":10931:11084   */\n      pop\n      pop\n      jump\t// out\n        /* \"#utility.yul\":11090:12089   */\n    tag_48:\n        /* \"#utility.yul\":11382:11386   */\n      0x00\n        /* \"#utility.yul\":11420:11423   */\n      0xe0\n        /* \"#utility.yul\":11409:11418   */\n      dup3\n        /* \"#utility.yul\":11405:11424   */\n      add\n        /* \"#utility.yul\":11397:11424   */\n      swap1\n      pop\n        /* \"#utility.yul\":11434:11505   */\n      tag_325\n        /* \"#utility.yul\":11502:11503   */\n      0x00\n        /* \"#utility.yul\":11491:11500   */\n      dup4\n        /* \"#utility.yul\":11487:11504   */\n      add\n        /* \"#utility.yul\":11478:11484   */\n      dup11\n        /* \"#utility.yul\":11434:11505   */\n      tag_193\n      jump\t// in\n    tag_325:\n        /* \"#utility.yul\":11515:11587   */\n      tag_326\n        /* \"#utility.yul\":11583:11585   */\n      0x20\n        /* \"#utility.yul\":11572:11581   */\n      dup4\n        /* \"#utility.yul\":11568:11586   */\n      add\n        /* \"#utility.yul\":11559:11565   */\n      dup10\n        /* \"#utility.yul\":11515:11587   */\n      tag_194\n      jump\t// in\n    tag_326:\n        /* \"#utility.yul\":11597:11680   */\n      tag_327\n        /* \"#utility.yul\":11676:11678   */\n      0x40\n        /* \"#utility.yul\":11665:11674   */\n      dup4\n        /* \"#utility.yul\":11661:11679   */\n      add\n        /* \"#utility.yul\":11652:11658   */\n      dup9\n        /* \"#utility.yul\":11597:11680   */\n      tag_195\n      jump\t// in\n    tag_327:\n        /* \"#utility.yul\":11727:11736   */\n      dup2\n        /* \"#utility.yul\":11721:11725   */\n      dup2\n        /* \"#utility.yul\":11717:11737   */\n      sub\n        /* \"#utility.yul\":11712:11714   */\n      0x60\n        /* \"#utility.yul\":11701:11710   */\n      dup4\n        /* \"#utility.yul\":11697:11715   */\n      add\n        /* \"#utility.yul\":11690:11738   */\n      mstore\n        /* \"#utility.yul\":11755:11833   */\n      tag_328\n        /* \"#utility.yul\":11828:11832   */\n      dup2\n        /* \"#utility.yul\":11819:11825   */\n      dup8\n        /* \"#utility.yul\":11755:11833   */\n      tag_174\n      jump\t// in\n    tag_328:\n        /* \"#utility.yul\":11747:11833   */\n      swap1\n      pop\n        /* \"#utility.yul\":11843:11916   */\n      tag_329\n        /* \"#utility.yul\":11911:11914   */\n      0x80\n        /* \"#utility.yul\":11900:11909   */\n      dup4\n        /* \"#utility.yul\":11896:11915   */\n      add\n        /* \"#utility.yul\":11887:11893   */\n      dup7\n        /* \"#utility.yul\":11843:11916   */\n      tag_165\n      jump\t// in\n    tag_329:\n        /* \"#utility.yul\":11926:11999   */\n      tag_330\n        /* \"#utility.yul\":11994:11997   */\n      0xa0\n        /* \"#utility.yul\":11983:11992   */\n      dup4\n        /* \"#utility.yul\":11979:11998   */\n      add\n        /* \"#utility.yul\":11970:11976   */\n      dup6\n        /* \"#utility.yul\":11926:11999   */\n      tag_165\n      jump\t// in\n    tag_330:\n        /* \"#utility.yul\":12009:12082   */\n      tag_331\n        /* \"#utility.yul\":12077:12080   */\n      0xc0\n        /* \"#utility.yul\":12066:12075   */\n      dup4\n        /* \"#utility.yul\":12062:12081   */\n      add\n        /* \"#utility.yul\":12053:12059   */\n      dup5\n        /* \"#utility.yul\":12009:12082   */\n      tag_194\n      jump\t// in\n    tag_331:\n        /* \"#utility.yul\":11090:12089   */\n      swap9\n      swap8\n      pop\n      pop\n      pop\n      pop\n      pop\n      pop\n      pop\n      pop\n      jump\t// out\n        /* \"#utility.yul\":12095:12317   */\n    tag_61:\n        /* \"#utility.yul\":12188:12192   */\n      0x00\n        /* \"#utility.yul\":12226:12228   */\n      0x20\n        /* \"#utility.yul\":12215:12224   */\n      dup3\n        /* \"#utility.yul\":12211:12229   */\n      add\n        /* \"#utility.yul\":12203:12229   */\n      swap1\n      pop\n        /* \"#utility.yul\":12239:12310   */\n      tag_333\n        /* \"#utility.yul\":12307:12308   */\n      0x00\n        /* \"#utility.yul\":12296:12305   */\n      dup4\n        /* \"#utility.yul\":12292:12309   */\n      add\n        /* \"#utility.yul\":12283:12289   */\n      dup5\n        /* \"#utility.yul\":12239:12310   */\n      tag_193\n      jump\t// in\n    tag_333:\n        /* \"#utility.yul\":12095:12317   */\n      swap3\n      swap2\n      pop\n      pop\n      jump\t// out\n        /* \"#utility.yul\":12323:12503   */\n    tag_196:\n        /* \"#utility.yul\":12371:12448   */\n      0x4e487b7100000000000000000000000000000000000000000000000000000000\n        /* \"#utility.yul\":12368:12369   */\n      0x00\n        /* \"#utility.yul\":12361:12449   */\n      mstore\n        /* \"#utility.yul\":12468:12472   */\n      0x41\n        /* \"#utility.yul\":12465:12466   */\n      0x04\n        /* \"#utility.yul\":12458:12473   */\n      mstore\n        /* \"#utility.yul\":12492:12496   */\n      0x24\n        /* \"#utility.yul\":12489:12490   */\n      0x00\n        /* \"#utility.yul\":12482:12497   */\n      revert\n        /* \"#utility.yul\":12509:12689   */\n    tag_197:\n        /* \"#utility.yul\":12557:12634   */\n      0x4e487b7100000000000000000000000000000000000000000000000000000000\n        /* \"#utility.yul\":12554:12555   */\n      0x00\n        /* \"#utility.yul\":12547:12635   */\n      mstore\n        /* \"#utility.yul\":12654:12658   */\n      0x22\n        /* \"#utility.yul\":12651:12652   */\n      0x04\n        /* \"#utility.yul\":12644:12659   */\n      mstore\n        /* \"#utility.yul\":12678:12682   */\n      0x24\n        /* \"#utility.yul\":12675:12676   */\n      0x00\n        /* \"#utility.yul\":12668:12683   */\n      revert\n        /* \"#utility.yul\":12695:13015   */\n    tag_97:\n        /* \"#utility.yul\":12739:12745   */\n      0x00\n        /* \"#utility.yul\":12776:12777   */\n      0x02\n        /* \"#utility.yul\":12770:12774   */\n      dup3\n        /* \"#utility.yul\":12766:12778   */\n      div\n        /* \"#utility.yul\":12756:12778   */\n      swap1\n      pop\n        /* \"#utility.yul\":12823:12824   */\n      0x01\n        /* \"#utility.yul\":12817:12821   */\n      dup3\n        /* \"#utility.yul\":12813:12825   */\n      and\n        /* \"#utility.yul\":12844:12862   */\n      dup1\n        /* \"#utility.yul\":12834:12915   */\n      tag_337\n      jumpi\n        /* \"#utility.yul\":12900:12904   */\n      0x7f\n        /* \"#utility.yul\":12892:12898   */\n      dup3\n        /* \"#utility.yul\":12888:12905   */\n      and\n        /* \"#utility.yul\":12878:12905   */\n      swap2\n      pop\n        /* \"#utility.yul\":12834:12915   */\n    tag_337:\n        /* \"#utility.yul\":12962:12964   */\n      0x20\n        /* \"#utility.yul\":12954:12960   */\n      dup3\n        /* \"#utility.yul\":12951:12965   */\n      lt\n        /* \"#utility.yul\":12931:12949   */\n      dup2\n        /* \"#utility.yul\":12928:12966   */\n      sub\n        /* \"#utility.yul\":12925:13009   */\n      tag_338\n      jumpi\n        /* \"#utility.yul\":12981:12999   */\n      tag_339\n      tag_197\n      jump\t// in\n    tag_339:\n        /* \"#utility.yul\":12925:13009   */\n    tag_338:\n        /* \"#utility.yul\":12746:13015   */\n      pop\n        /* \"#utility.yul\":12695:13015   */\n      swap2\n      swap1\n      pop\n      jump\t// out\n        /* \"#utility.yul\":13021:13162   */\n    tag_198:\n        /* \"#utility.yul\":13070:13074   */\n      0x00\n        /* \"#utility.yul\":13093:13096   */\n      dup2\n        /* \"#utility.yul\":13085:13096   */\n      swap1\n      pop\n        /* \"#utility.yul\":13116:13119   */\n      dup2\n        /* \"#utility.yul\":13113:13114   */\n      0x00\n        /* \"#utility.yul\":13106:13120   */\n      mstore\n        /* \"#utility.yul\":13150:13154   */\n      0x20\n        /* \"#utility.yul\":13147:13148   */\n      0x00\n        /* \"#utility.yul\":13137:13155   */\n      keccak256\n        /* \"#utility.yul\":13129:13155   */\n      swap1\n      pop\n        /* \"#utility.yul\":13021:13162   */\n      swap2\n      swap1\n      pop\n      jump\t// out\n        /* \"#utility.yul\":13168:13261   */\n    tag_199:\n        /* \"#utility.yul\":13205:13211   */\n      0x00\n        /* \"#utility.yul\":13252:13254   */\n      0x20\n        /* \"#utility.yul\":13247:13249   */\n      0x1f\n        /* \"#utility.yul\":13240:13245   */\n      dup4\n        /* \"#utility.yul\":13236:13250   */\n      add\n        /* \"#utility.yul\":13232:13255   */\n      div\n        /* \"#utility.yul\":13222:13255   */\n      swap1\n      pop\n        /* \"#utility.yul\":13168:13261   */\n      swap2\n      swap1\n      pop\n      jump\t// out\n        /* \"#utility.yul\":13267:13374   */\n    tag_200:\n        /* \"#utility.yul\":13311:13319   */\n      0x00\n        /* \"#utility.yul\":13361:13366   */\n      dup3\n        /* \"#utility.yul\":13355:13359   */\n      dup3\n        /* \"#utility.yul\":13351:13367   */\n      shl\n        /* \"#utility.yul\":13330:13367   */\n      swap1\n      pop\n        /* \"#utility.yul\":13267:13374   */\n      swap3\n      swap2\n      pop\n      pop\n      jump\t// out\n        /* \"#utility.yul\":13380:13773   */\n    tag_201:\n        /* \"#utility.yul\":13449:13455   */\n      0x00\n        /* \"#utility.yul\":13499:13500   */\n      0x08\n        /* \"#utility.yul\":13487:13497   */\n      dup4\n        /* \"#utility.yul\":13483:13501   */\n      mul\n        /* \"#utility.yul\":13522:13619   */\n      tag_344\n        /* \"#utility.yul\":13552:13618   */\n      0xffffffffffffffffffffffffffffffffffffffffffffffffffffffffffffffff\n        /* \"#utility.yul\":13541:13550   */\n      dup3\n        /* \"#utility.yul\":13522:13619   */\n      tag_200\n      jump\t// in\n    tag_344:\n        /* \"#utility.yul\":13640:13679   */\n      tag_345\n        /* \"#utility.yul\":13670:13678   */\n      dup7\n        /* \"#utility.yul\":13659:13668   */\n      dup4\n        /* \"#utility.yul\":13640:13679   */\n      tag_200\n      jump\t// in\n    tag_345:\n        /* \"#utility.yul\":13628:13679   */\n      swap6\n      pop\n        /* \"#utility.yul\":13712:13716   */\n      dup1\n        /* \"#utility.yul\":13708:13717   */\n      not\n        /* \"#utility.yul\":13701:13706   */\n      dup5\n        /* \"#utility.yul\":13697:13718   */\n      and\n        /* \"#utility.yul\":13688:13718   */\n      swap4\n      pop\n        /* \"#utility.yul\":13761:13765   */\n      dup1\n        /* \"#utility.yul\":13751:13759   */\n      dup7\n        /* \"#utility.yul\":13747:13766   */\n      and\n        /* \"#utility.yul\":13740:13745   */\n      dup5\n        /* \"#utility.yul\":13737:13767   */\n      or\n        /* \"#utility.yul\":13727:13767   */\n      swap3\n      pop\n        /* \"#utility.yul\":13456:13773   */\n      pop\n      pop\n        /* \"#utility.yul\":13380:13773   */\n      swap4\n      swap3\n      pop\n      pop\n      pop\n      jump\t// out\n        /* \"#utility.yul\":13779:13839   */\n    tag_202:\n        /* \"#utility.yul\":13807:13810   */\n      0x00\n        /* \"#utility.yul\":13828:13833   */\n      dup2\n        /* \"#utility.yul\":13821:13833   */\n      swap1\n      pop\n        /* \"#utility.yul\":13779:13839   */\n      swap2\n      swap1\n      pop\n      jump\t// out\n        /* \"#utility.yul\":13845:13987   */\n    tag_203:\n        /* \"#utility.yul\":13895:13904   */\n      0x00\n        /* \"#utility.yul\":13928:13981   */\n      tag_348\n        /* \"#utility.yul\":13946:13980   */\n      tag_349\n        /* \"#utility.yul\":13955:13979   */\n      tag_350\n        /* \"#utility.yul\":13973:13978   */\n      dup5\n        /* \"#utility.yul\":13955:13979   */\n      tag_164\n      jump\t// in\n    tag_350:\n        /* \"#utility.yul\":13946:13980   */\n      tag_202\n      jump\t// in\n    tag_349:\n        /* \"#utility.yul\":13928:13981   */\n      tag_164\n      jump\t// in\n    tag_348:\n        /* \"#utility.yul\":13915:13981   */\n      swap1\n      pop\n        /* \"#utility.yul\":13845:13987   */\n      swap2\n      swap1\n      pop\n      jump\t// out\n        /* \"#utility.yul\":13993:14068   */\n    tag_204:\n        /* \"#utility.yul\":14036:14039   */\n      0x00\n        /* \"#utility.yul\":14057:14062   */\n      dup2\n        /* \"#utility.yul\":14050:14062   */\n      swap1\n      pop\n        /* \"#utility.yul\":13993:14068   */\n      swap2\n      swap1\n      pop\n      jump\t// out\n        /* \"#utility.yul\":14074:14343   */\n    tag_205:\n        /* \"#utility.yul\":14184:14223   */\n      tag_353\n        /* \"#utility.yul\":14215:14222   */\n      dup4\n        /* \"#utility.yul\":14184:14223   */\n      tag_203\n      jump\t// in\n    tag_353:\n        /* \"#utility.yul\":14245:14336   */\n      tag_354\n        /* \"#utility.yul\":14294:14335   */\n      tag_355\n        /* \"#utility.yul\":14318:14334   */\n      dup3\n        /* \"#utility.yul\":14294:14335   */\n      tag_204\n      jump\t// in\n    tag_355:\n        /* \"#utility.yul\":14286:14292   */\n      dup5\n        /* \"#utility.yul\":14279:14283   */\n      dup5\n        /* \"#utility.yul\":14273:14284   */\n      sload\n        /* \"#utility.yul\":14245:14336   */\n      tag_201\n      jump\t// in\n    tag_354:\n        /* \"#utility.yul\":14239:14243   */\n      dup3\n        /* \"#utility.yul\":14232:14337   */\n      sstore\n        /* \"#utility.yul\":14150:14343   */\n      pop\n        /* \"#utility.yul\":14074:14343   */\n      pop\n      pop\n      pop\n      jump\t// out\n        /* \"#utility.yul\":14349:14422   */\n    tag_206:\n        /* \"#utility.yul\":14394:14397   */\n      0x00\n        /* \"#utility.yul\":14415:14416   */\n      0x00\n        /* \"#utility.yul\":14408:14416   */\n      swap1\n      pop\n        /* \"#utility.yul\":14349:14422   */\n      swap1\n      jump\t// out\n        /* \"#utility.yul\":14428:14617   */\n    tag_207:\n        /* \"#utility.yul\":14505:14537   */\n      tag_358\n      tag_206\n      jump\t// in\n    tag_358:\n        /* \"#utility.yul\":14546:14611   */\n      tag_359\n        /* \"#utility.yul\":14604:14610   */\n      dup2\n        /* \"#utility.yul\":14596:14602   */\n      dup5\n        /* \"#utility.yul\":14590:14594   */\n      dup5\n        /* \"#utility.yul\":14546:14611   */\n      tag_205\n      jump\t// in\n    tag_359:\n        /* \"#utility.yul\":14481:14617   */\n      pop\n        /* \"#utility.yul\":14428:14617   */\n      pop\n      pop\n      jump\t// out\n        /* \"#utility.yul\":14623:14809   */\n    tag_208:\n        /* \"#utility.yul\":14683:14803   */\n    tag_361:\n        /* \"#utility.yul\":14700:14703   */\n      dup2\n        /* \"#utility.yul\":14693:14698   */\n      dup2\n        /* \"#utility.yul\":14690:14704   */\n      lt\n        /* \"#utility.yul\":14683:14803   */\n      iszero\n      tag_363\n      jumpi\n        /* \"#utility.yul\":14754:14793   */\n      tag_364\n        /* \"#utility.yul\":14791:14792   */\n      0x00\n        /* \"#utility.yul\":14784:14789   */\n      dup3\n        /* \"#utility.yul\":14754:14793   */\n      tag_207\n      jump\t// in\n    tag_364:\n        /* \"#utility.yul\":14727:14728   */\n      0x01\n        /* \"#utility.yul\":14720:14725   */\n      dup2\n        /* \"#utility.yul\":14716:14729   */\n      add\n        /* \"#utility.yul\":14707:14729   */\n      swap1\n      pop\n        /* \"#utility.yul\":14683:14803   */\n      jump(tag_361)\n    tag_363:\n        /* \"#utility.yul\":14623:14809   */\n      pop\n      pop\n      jump\t// out\n        /* \"#utility.yul\":14815:15358   */\n    tag_209:\n        /* \"#utility.yul\":14916:14918   */\n      0x1f\n        /* \"#utility.yul\":14911:14914   */\n      dup3\n        /* \"#utility.yul\":14908:14919   */\n      gt\n        /* \"#utility.yul\":14905:15351   */\n      iszero\n      tag_366\n      jumpi\n        /* \"#utility.yul\":14950:14988   */\n      tag_367\n        /* \"#utility.yul\":14982:14987   */\n      dup2\n        /* \"#utility.yul\":14950:14988   */\n      tag_198\n      jump\t// in\n    tag_367:\n        /* \"#utility.yul\":15034:15063   */\n      tag_368\n        /* \"#utility.yul\":15052:15062   */\n      dup5\n        /* \"#utility.yul\":15034:15063   */\n      tag_199\n      jump\t// in\n    tag_368:\n        /* \"#utility.yul\":15024:15032   */\n      dup2\n        /* \"#utility.yul\":15020:15064   */\n      add\n        /* \"#utility.yul\":15217:15219   */\n      0x20\n        /* \"#utility.yul\":15205:15215   */\n      dup6\n        /* \"#utility.yul\":15202:15220   */\n      lt\n        /* \"#utility.yul\":15199:15248   */\n      iszero\n      tag_369\n      jumpi\n        /* \"#utility.yul\":15238:15246   */\n      dup2\n        /* \"#utility.yul\":15223:15246   */\n      swap1\n      pop\n        /* \"#utility.yul\":15199:15248   */\n    tag_369:\n        /* \"#utility.yul\":15261:15341   */\n      tag_370\n        /* \"#utility.yul\":15317:15339   */\n      tag_371\n        /* \"#utility.yul\":15335:15338   */\n      dup6\n        /* \"#utility.yul\":15317:15339   */\n      tag_199\n      jump\t// in\n    tag_371:\n        /* \"#utility.yul\":15307:15315   */\n      dup4\n        /* \"#utility.yul\":15303:15340   */\n      add\n        /* \"#utility.yul\":15290:15301   */\n      dup3\n        /* \"#utility.yul\":15261:15341   */\n      tag_208\n      jump\t// in\n    tag_370:\n        /* \"#utility.yul\":14920:15351   */\n      pop\n      pop\n        /* \"#utility.yul\":14905:15351   */\n    tag_366:\n        /* \"#utility.yul\":14815:15358   */\n      pop\n      pop\n      pop\n      jump\t// out\n        /* \"#utility.yul\":15364:15481   */\n    tag_210:\n        /* \"#utility.yul\":15418:15426   */\n      0x00\n        /* \"#utility.yul\":15468:15473   */\n      dup3\n        /* \"#utility.yul\":15462:15466   */\n      dup3\n        /* \"#utility.yul\":15458:15474   */\n      shr\n        /* \"#utility.yul\":15437:15474   */\n      swap1\n      pop\n        /* \"#utility.yul\":15364:15481   */\n      swap3\n      swap2\n      pop\n      pop\n      jump\t// out\n        /* \"#utility.yul\":15487:15656   */\n    tag_211:\n        /* \"#utility.yul\":15531:15537   */\n      0x00\n        /* \"#utility.yul\":15564:15615   */\n      tag_374\n        /* \"#utility.yul\":15612:15613   */\n      0x00\n        /* \"#utility.yul\":15608:15614   */\n      not\n        /* \"#utility.yul\":15600:15605   */\n      dup5\n        /* \"#utility.yul\":15597:15598   */\n      0x08\n        /* \"#utility.yul\":15593:15606   */\n      mul\n        /* \"#utility.yul\":15564:15615   */\n      tag_210\n      jump\t// in\n    tag_374:\n        /* \"#utility.yul\":15560:15616   */\n      not\n        /* \"#utility.yul\":15645:15649   */\n      dup1\n        /* \"#utility.yul\":15639:15643   */\n      dup4\n        /* \"#utility.yul\":15635:15650   */\n      and\n        /* \"#utility.yul\":15625:15650   */\n      swap2\n      pop\n        /* \"#utility.yul\":15538:15656   */\n      pop\n        /* \"#utility.yul\":15487:15656   */\n      swap3\n      swap2\n      pop\n      pop\n      jump\t// out\n        /* \"#utility.yul\":15661:15956   */\n    tag_212:\n        /* \"#utility.yul\":15737:15741   */\n      0x00\n        /* \"#utility.yul\":15883:15912   */\n      tag_376\n        /* \"#utility.yul\":15908:15911   */\n      dup4\n        /* \"#utility.yul\":15902:15906   */\n      dup4\n        /* \"#utility.yul\":15883:15912   */\n      tag_211\n      jump\t// in\n    tag_376:\n        /* \"#utility.yul\":15875:15912   */\n      swap2\n      pop\n        /* \"#utility.yul\":15945:15948   */\n      dup3\n        /* \"#utility.yul\":15942:15943   */\n      0x02\n        /* \"#utility.yul\":15938:15949   */\n      mul\n        /* \"#utility.yul\":15932:15936   */\n      dup3\n        /* \"#utility.yul\":15929:15950   */\n      or\n        /* \"#utility.yul\":15921:15950   */\n      swap1\n      pop\n        /* \"#utility.yul\":15661:15956   */\n      swap3\n      swap2\n      pop\n      pop\n      jump\t// out\n        /* \"#utility.yul\":15961:17356   */\n    tag_73:\n        /* \"#utility.yul\":16078:16115   */\n      tag_378\n        /* \"#utility.yul\":16111:16114   */\n      dup3\n        /* \"#utility.yul\":16078:16115   */\n      tag_170\n      jump\t// in\n    tag_378:\n        /* \"#utility.yul\":16180:16198   */\n      0xffffffffffffffff\n        /* \"#utility.yul\":16172:16178   */\n      dup2\n        /* \"#utility.yul\":16169:16199   */\n      gt\n        /* \"#utility.yul\":16166:16222   */\n      iszero\n      tag_379\n      jumpi\n        /* \"#utility.yul\":16202:16220   */\n      tag_380\n      tag_196\n      jump\t// in\n    tag_380:\n        /* \"#utility.yul\":16166:16222   */\n    tag_379:\n        /* \"#utility.yul\":16246:16284   */\n      tag_381\n        /* \"#utility.yul\":16278:16282   */\n      dup3\n        /* \"#utility.yul\":16272:16283   */\n      sload\n        /* \"#utility.yul\":16246:16284   */\n      tag_97\n      jump\t// in\n    tag_381:\n        /* \"#utility.yul\":16331:16398   */\n      tag_382\n        /* \"#utility.yul\":16391:16397   */\n      dup3\n        /* \"#utility.yul\":16383:16389   */\n      dup3\n        /* \"#utility.yul\":16377:16381   */\n      dup6\n        /* \"#utility.yul\":16331:16398   */\n      tag_209\n      jump\t// in\n    tag_382:\n        /* \"#utility.yul\":16425:16426   */\n      0x00\n        /* \"#utility.yul\":16449:16453   */\n      0x20\n        /* \"#utility.yul\":16436:16453   */\n      swap1\n      pop\n        /* \"#utility.yul\":16481:16483   */\n      0x1f\n        /* \"#utility.yul\":16473:16479   */\n      dup4\n        /* \"#utility.yul\":16470:16484   */\n      gt\n        /* \"#utility.yul\":16498:16499   */\n      0x01\n        /* \"#utility.yul\":16493:17111   */\n      dup2\n      eq\n      tag_384\n      jumpi\n        /* \"#utility.yul\":17155:17156   */\n      0x00\n        /* \"#utility.yul\":17172:17178   */\n      dup5\n        /* \"#utility.yul\":17169:17246   */\n      iszero\n      tag_385\n      jumpi\n        /* \"#utility.yul\":17221:17230   */\n      dup3\n        /* \"#utility.yul\":17216:17219   */\n      dup8\n        /* \"#utility.yul\":17212:17231   */\n      add\n        /* \"#utility.yul\":17206:17232   */\n      mload\n        /* \"#utility.yul\":17197:17232   */\n      swap1\n      pop\n        /* \"#utility.yul\":17169:17246   */\n    tag_385:\n        /* \"#utility.yul\":17272:17339   */\n      tag_386\n        /* \"#utility.yul\":17332:17338   */\n      dup6\n        /* \"#utility.yul\":17325:17330   */\n      dup3\n        /* \"#utility.yul\":17272:17339   */\n      tag_212\n      jump\t// in\n    tag_386:\n        /* \"#utility.yul\":17266:17270   */\n      dup7\n        /* \"#utility.yul\":17259:17340   */\n      sstore\n        /* \"#utility.yul\":17128:17350   */\n      pop\n        /* \"#utility.yul\":16463:17350   */\n      jump(tag_383)\n        /* \"#utility.yul\":16493:17111   */\n    tag_384:\n        /* \"#utility.yul\":16545:16549   */\n      0x1f\n        /* \"#utility.yul\":16541:16550   */\n      not\n        /* \"#utility.yul\":16533:16539   */\n      dup5\n        /* \"#utility.yul\":16529:16551   */\n      and\n        /* \"#utility.yul\":16579:16616   */\n      tag_387\n        /* \"#utility.yul\":16611:16615   */\n      dup7\n        /* \"#utility.yul\":16579:16616   */\n      tag_198\n      jump\t// in\n    tag_387:\n        /* \"#utility.yul\":16638:16639   */\n      0x00\n        /* \"#utility.yul\":16652:16860   */\n    tag_388:\n        /* \"#utility.yul\":16666:16673   */\n      dup3\n        /* \"#utility.yul\":16663:16664   */\n      dup2\n        /* \"#utility.yul\":16660:16674   */\n      lt\n        /* \"#utility.yul\":16652:16860   */\n      iszero\n      tag_390\n      jumpi\n        /* \"#utility.yul\":16745:16754   */\n      dup5\n        /* \"#utility.yul\":16740:16743   */\n      dup10\n        /* \"#utility.yul\":16736:16755   */\n      add\n        /* \"#utility.yul\":16730:16756   */\n      mload\n        /* \"#utility.yul\":16722:16728   */\n      dup3\n        /* \"#utility.yul\":16715:16757   */\n      sstore\n        /* \"#utility.yul\":16796:16797   */\n      0x01\n        /* \"#utility.yul\":16788:16794   */\n      dup3\n        /* \"#utility.yul\":16784:16798   */\n      add\n        /* \"#utility.yul\":16774:16798   */\n      swap2\n      pop\n        /* \"#utility.yul\":16843:16845   */\n      0x20\n        /* \"#utility.yul\":16832:16841   */\n      dup6\n        /* \"#utility.yul\":16828:16846   */\n      add\n        /* \"#utility.yul\":16815:16846   */\n      swap5\n      pop\n        /* \"#utility.yul\":16689:16693   */\n      0x20\n        /* \"#utility.yul\":16686:16687   */\n      dup2\n        /* \"#utility.yul\":16682:16694   */\n      add\n        /* \"#utility.yul\":16677:16694   */\n      swap1\n      pop\n        /* \"#utility.yul\":16652:16860   */\n      jump(tag_388)\n    tag_390:\n        /* \"#utility.yul\":16888:16894   */\n      dup7\n        /* \"#utility.yul\":16879:16886   */\n      dup4\n        /* \"#utility.yul\":16876:16895   */\n      lt\n        /* \"#utility.yul\":16873:17052   */\n      iszero\n      tag_391\n      jumpi\n        /* \"#utility.yul\":16946:16955   */\n      dup5\n        /* \"#utility.yul\":16941:16944   */\n      dup10\n        /* \"#utility.yul\":16937:16956   */\n      add\n        /* \"#utility.yul\":16931:16957   */\n      mload\n        /* \"#utility.yul\":16989:17037   */\n      tag_392\n        /* \"#utility.yul\":17031:17035   */\n      0x1f\n        /* \"#utility.yul\":17023:17029   */\n      dup10\n        /* \"#utility.yul\":17019:17036   */\n      and\n        /* \"#utility.yul\":17008:17017   */\n      dup3\n        /* \"#utility.yul\":16989:17037   */\n      tag_211\n      jump\t// in\n    tag_392:\n        /* \"#utility.yul\":16981:16987   */\n      dup4\n        /* \"#utility.yul\":16974:17038   */\n      sstore\n        /* \"#utility.yul\":16896:17052   */\n      pop\n        /* \"#utility.yul\":16873:17052   */\n    tag_391:\n        /* \"#utility.yul\":17098:17099   */\n      0x01\n        /* \"#utility.yul\":17094:17095   */\n      0x02\n        /* \"#utility.yul\":17086:17092   */\n      dup9\n        /* \"#utility.yul\":17082:17096   */\n      mul\n        /* \"#utility.yul\":17078:17100   */\n      add\n        /* \"#utility.yul\":17072:17076   */\n      dup9\n        /* \"#utility.yul\":17065:17101   */\n      sstore\n        /* \"#utility.yul\":16500:17111   */\n      pop\n      pop\n      pop\n        /* \"#utility.yul\":16463:17350   */\n    tag_383:\n      pop\n        /* \"#utility.yul\":16053:17356   */\n      pop\n      pop\n      pop\n        /* \"#utility.yul\":15961:17356   */\n      pop\n      pop\n      jump\t// out\n        /* \"#utility.yul\":17362:17542   */\n    tag_213:\n        /* \"#utility.yul\":17410:17487   */\n      0x4e487b7100000000000000000000000000000000000000000000000000000000\n        /* \"#utility.yul\":17407:17408   */\n      0x00\n        /* \"#utility.yul\":17400:17488   */\n      mstore\n        /* \"#utility.yul\":17507:17511   */\n      0x11\n        /* \"#utility.yul\":17504:17505   */\n      0x04\n        /* \"#utility.yul\":17497:17512   */\n      mstore\n        /* \"#utility.yul\":17531:17535   */\n      0x24\n        /* \"#utility.yul\":17528:17529   */\n      0x00\n        /* \"#utility.yul\":17521:17536   */\n      revert\n        /* \"#utility.yul\":17548:17781   */\n    tag_75:\n        /* \"#utility.yul\":17587:17590   */\n      0x00\n        /* \"#utility.yul\":17610:17634   */\n      tag_395\n        /* \"#utility.yul\":17628:17633   */\n      dup3\n        /* \"#utility.yul\":17610:17634   */\n      tag_164\n      jump\t// in\n    tag_395:\n        /* \"#utility.yul\":17601:17634   */\n      swap2\n      pop\n        /* \"#utility.yul\":17656:17722   */\n      0xffffffffffffffffffffffffffffffffffffffffffffffffffffffffffffffff\n        /* \"#utility.yul\":17649:17654   */\n      dup3\n        /* \"#utility.yul\":17646:17723   */\n      sub\n        /* \"#utility.yul\":17643:17746   */\n      tag_396\n      jumpi\n        /* \"#utility.yul\":17726:17744   */\n      tag_397\n      tag_213\n      jump\t// in\n    tag_397:\n        /* \"#utility.yul\":17643:17746   */\n    tag_396:\n        /* \"#utility.yul\":17773:17774   */\n      0x01\n        /* \"#utility.yul\":17766:17771   */\n      dup3\n        /* \"#utility.yul\":17762:17775   */\n      add\n        /* \"#utility.yul\":17755:17775   */\n      swap1\n      pop\n        /* \"#utility.yul\":17548:17781   */\n      swap2\n      swap1\n      pop\n      jump\t// out\n        /* \"#utility.yul\":17787:18119   */\n    tag_77:\n        /* \"#utility.yul\":17908:17912   */\n      0x00\n        /* \"#utility.yul\":17946:17948   */\n      0x40\n        /* \"#utility.yul\":17935:17944   */\n      dup3\n        /* \"#utility.yul\":17931:17949   */\n      add\n        /* \"#utility.yul\":17923:17949   */\n      swap1\n      pop\n        /* \"#utility.yul\":17959:18030   */\n      tag_399\n        /* \"#utility.yul\":18027:18028   */\n      0x00\n        /* \"#utility.yul\":18016:18025   */\n      dup4\n        /* \"#utility.yul\":18012:18029   */\n      add\n        /* \"#utility.yul\":18003:18009   */\n      dup6\n        /* \"#utility.yul\":17959:18030   */\n      tag_165\n      jump\t// in\n    tag_399:\n        /* \"#utility.yul\":18040:18112   */\n      tag_400\n        /* \"#utility.yul\":18108:18110   */\n      0x20\n        /* \"#utility.yul\":18097:18106   */\n      dup4\n        /* \"#utility.yul\":18093:18111   */\n      add\n        /* \"#utility.yul\":18084:18090   */\n      dup5\n        /* \"#utility.yul\":18040:18112   */\n      tag_165\n      jump\t// in\n    tag_400:\n        /* \"#utility.yul\":17787:18119   */\n      swap4\n      swap3\n      pop\n      pop\n      pop\n      jump\t// out\n        /* \"#utility.yul\":18125:18567   */\n    tag_157:\n        /* \"#utility.yul\":18274:18278   */\n      0x00\n        /* \"#utility.yul\":18312:18314   */\n      0x60\n        /* \"#utility.yul\":18301:18310   */\n      dup3\n        /* \"#utility.yul\":18297:18315   */\n      add\n        /* \"#utility.yul\":18289:18315   */\n      swap1\n      pop\n        /* \"#utility.yul\":18325:18396   */\n      tag_402\n        /* \"#utility.yul\":18393:18394   */\n      0x00\n        /* \"#utility.yul\":18382:18391   */\n      dup4\n        /* \"#utility.yul\":18378:18395   */\n      add\n        /* \"#utility.yul\":18369:18375   */\n      dup7\n        /* \"#utility.yul\":18325:18396   */\n      tag_165\n      jump\t// in\n    tag_402:\n        /* \"#utility.yul\":18406:18478   */\n      tag_403\n        /* \"#utility.yul\":18474:18476   */\n      0x20\n        /* \"#utility.yul\":18463:18472   */\n      dup4\n        /* \"#utility.yul\":18459:18477   */\n      add\n        /* \"#utility.yul\":18450:18456   */\n      dup6\n        /* \"#utility.yul\":18406:18478   */\n      tag_165\n      jump\t// in\n    tag_403:\n        /* \"#utility.yul\":18488:18560   */\n      tag_404\n        /* \"#utility.yul\":18556:18558   */\n      0x40\n        /* \"#utility.yul\":18545:18554   */\n      dup4\n        /* \"#utility.yul\":18541:18559   */\n      add\n        /* \"#utility.yul\":18532:18538   */\n      dup5\n        /* \"#utility.yul\":18488:18560   */\n      tag_194\n      jump\t// in\n    tag_404:\n        /* \"#utility.yul\":18125:18567   */\n      swap5\n      swap4\n      pop\n      pop\n      pop\n      pop\n      jump\t// out\n\n    auxdata: 0xa26469706673582212205da95ce6e5fa0d3e5532e340d8ec8414f3041239cec9564753f8f30aa7e6595c64736f6c634300081e0033\n}\n",
				"bytecode": {
					"linkReferences": {},
					"object": "608060405234801561000f575f5ffd5b503360015f6101000a81548173ffffffffffffffffffffffffffffffffffffffff021916908373ffffffffffffffffffffffffffffffffffffffff1602179055506040518060400160405280600581526020017f61646d696e00000000000000000000000000000000000000000000000000000081525060035f3373ffffffffffffffffffffffffffffffffffffffff1673ffffffffffffffffffffffffffffffffffffffff1681526020019081526020015f2090816100cf9190610312565b506103e1565b5f81519050919050565b7f4e487b71000000000000000000000000000000000000000000000000000000005f52604160045260245ffd5b7f4e487b71000000000000000000000000000000000000000000000000000000005f52602260045260245ffd5b5f600282049050600182168061015057607f821691505b6020821081036101635761016261010c565b5b50919050565b5f819050815f5260205f209050919050565b5f6020601f8301049050919050565b5f82821b905092915050565b5f600883026101c57fffffffffffffffffffffffffffffffffffffffffffffffffffffffffffffffff8261018a565b6101cf868361018a565b95508019841693508086168417925050509392505050565b5f819050919050565b5f819050919050565b5f61021361020e610209846101e7565b6101f0565b6101e7565b9050919050565b5f819050919050565b61022c836101f9565b6102406102388261021a565b848454610196565b825550505050565b5f5f905090565b610257610248565b610262818484610223565b505050565b5b818110156102855761027a5f8261024f565b600181019050610268565b5050565b601f8211156102ca5761029b81610169565b6102a48461017b565b810160208510156102b3578190505b6102c76102bf8561017b565b830182610267565b50505b505050565b5f82821c905092915050565b5f6102ea5f19846008026102cf565b1980831691505092915050565b5f61030283836102db565b9150826002028217905092915050565b61031b826100d5565b67ffffffffffffffff811115610334576103336100df565b5b61033e8254610139565b610349828285610289565b5f60209050601f83116001811461037a575f8415610368578287015190505b61037285826102f7565b8655506103d9565b601f19841661038886610169565b5f5b828110156103af5784890151825560018201915060208501945060208101905061038a565b868310156103cc57848901516103c8601f8916826102db565b8355505b6001600288020188555050505b505050505050565b611c94806103ee5f395ff3fe608060405234801561000f575f5ffd5b50600436106100b2575f3560e01c8063bbcb32241161006f578063bbcb32241461019a578063bbfe6e95146101d0578063beddd1e4146101ec578063ef3f4ad514610208578063f851a44014610224578063fcb526d714610242576100b2565b806353ffdf74146100b657806373f1869b146100e65780639043f828146101025780639786cd8a1461011e578063993746421461013a578063ba9e37981461016a575b5f5ffd5b6100d060048036038101906100cb9190611368565b61025e565b6040516100dd91906113ab565b60405180910390f35b61010060048036038101906100fb9190611368565b610273565b005b61011c60048036038101906101179190611368565b610458565b005b610138600480360381019061013391906113c4565b61063d565b005b610154600480360381019061014f919061145c565b610821565b60405161016191906114f7565b60405180910390f35b610184600480360381019061017f9190611368565b6108bc565b6040516101919190611753565b60405180910390f35b6101b460048036038101906101af919061179d565b610a6e565b6040516101c79796959493929190611808565b60405180910390f35b6101ea60048036038101906101e59190611368565b610b76565b005b61020660048036038101906102019190611368565b610d5b565b005b610222600480360381019061021d91906113c4565b610f30565b005b61022c611124565b604051610239919061187c565b60405180910390f35b61025c600480360381019061025791906113c4565b611149565b005b6002602052805f5260405f205f915090505481565b5f60025f8381526020019081526020015f205490505f5f8381526020019081526020015f206040518060e001604052803373ffffffffffffffffffffffffffffffffffffffff168152602001848152602001600460068111156102d9576102d861155e565b5b815260200160405180602001604052805f81525081526020018381526020014281526020015f5f1b815250908060018154018082558091505060019003905f5260205f2090600702015f909190919091505f820151815f015f6101000a81548173ffffffffffffffffffffffffffffffffffffffff021916908373ffffffffffffffffffffffffffffffffffffffff160217905550602082015181600101556040820151816002015f6101000a81548160ff021916908360068111156103a2576103a161155e565b5b021790555060608201518160030190816103bc9190611abf565b506080820151816004015560a0820151816005015560c08201518160060155505060025f8381526020019081526020015f205f8154809291906103fe90611bbb565b91905055503373ffffffffffffffffffffffffffffffffffffffff16827fb741b6c221e9657954f6e0b43feeb91372ac359579b8c5ba78ebcc1f13ad8ebb834260405161044c929190611c02565b60405180910390a35050565b5f60025f8381526020019081526020015f205490505f5f8381526020019081526020015f206040518060e001604052803373ffffffffffffffffffffffffffffffffffffffff168152602001848152602001600560068111156104be576104bd61155e565b5b815260200160405180602001604052805f81525081526020018381526020014281526020015f5f1b815250908060018154018082558091505060019003905f5260205f2090600702015f909190919091505f820151815f015f6101000a81548173ffffffffffffffffffffffffffffffffffffffff021916908373ffffffffffffffffffffffffffffffffffffffff160217905550602082015181600101556040820151816002015f6101000a81548160ff021916908360068111156105875761058661155e565b5b021790555060608201518160030190816105a19190611abf565b506080820151816004015560a0820151816005015560c08201518160060155505060025f8381526020019081526020015f205f8154809291906105e390611bbb565b91905055503373ffffffffffffffffffffffffffffffffffffffff16827fe03189a5907e7a9897e2cf6c714a834cfb425a4983d562dc01ae800829a43bdd8342604051610631929190611c02565b60405180910390a35050565b5f60025f8481526020019081526020015f205490505f5f8481526020019081526020015f206040518060e001604052803373ffffffffffffffffffffffffffffffffffffffff168152602001858152602001600260068111156106a3576106a261155e565b5b815260200160405180602001604052805f815250815260200183815260200142815260200184815250908060018154018082558091505060019003905f5260205f2090600702015f909190919091505f820151815f015f6101000a81548173ffffffffffffffffffffffffffffffffffffffff021916908373ffffffffffffffffffffffffffffffffffffffff160217905550602082015181600101556040820151816002015f6101000a81548160ff0219169083600681111561076a5761076961155e565b5b021790555060608201518160030190816107849190611abf565b506080820151816004015560a0820151816005015560c08201518160060155505060025f8481526020019081526020015f205f8154809291906107c690611bbb565b91905055503373ffffffffffffffffffffffffffffffffffffffff16837f08060438c4e0773bad852fae300ff094e0703b5846e20a44bb9319c1ce73dfef8342604051610814929190611c02565b60405180910390a3505050565b6003602052805f5260405f205f91509050805461083d906118ef565b80601f0160208091040260200160405190810160405280929190818152602001828054610869906118ef565b80156108b45780601f1061088b576101008083540402835291602001916108b4565b820191905f5260205f20905b81548152906001019060200180831161089757829003601f168201915b505050505081565b60605f5f8381526020019081526020015f20805480602002602001604051908101604052809291908181526020015f905b82821015610a63578382905f5260205f2090600702016040518060e00160405290815f82015f9054906101000a900473ffffffffffffffffffffffffffffffffffffffff1673ffffffffffffffffffffffffffffffffffffffff1673ffffffffffffffffffffffffffffffffffffffff16815260200160018201548152602001600282015f9054906101000a900460ff1660068111156109905761098f61155e565b5b60068111156109a2576109a161155e565b5b81526020016003820180546109b6906118ef565b80601f01602080910402602001604051908101604052809291908181526020018280546109e2906118ef565b8015610a2d5780601f10610a0457610100808354040283529160200191610a2d565b820191905f5260205f20905b815481529060010190602001808311610a1057829003601f168201915b505050505081526020016004820154815260200160058201548152602001600682015481525050815260200190600101906108ed565b505050509050919050565b5f602052815f5260405f208181548110610a86575f80fd5b905f5260205f2090600702015f9150915050805f015f9054906101000a900473ffffffffffffffffffffffffffffffffffffffff1690806001015490806002015f9054906101000a900460ff1690806003018054610ae3906118ef565b80601f0160208091040260200160405190810160405280929190818152602001828054610b0f906118ef565b8015610b5a5780601f10610b3157610100808354040283529160200191610b5a565b820191905f5260205f20905b815481529060010190602001808311610b3d57829003601f168201915b5050505050908060040154908060050154908060060154905087565b5f60025f8381526020019081526020015f205490505f5f8381526020019081526020015f206040518060e001604052803373ffffffffffffffffffffffffffffffffffffffff16815260200184815260200160036006811115610bdc57610bdb61155e565b5b815260200160405180602001604052805f81525081526020018381526020014281526020015f5f1b815250908060018154018082558091505060019003905f5260205f2090600702015f909190919091505f820151815f015f6101000a81548173ffffffffffffffffffffffffffffffffffffffff021916908373ffffffffffffffffffffffffffffffffffffffff160217905550602082015181600101556040820151816002015f6101000a81548160ff02191690836006811115610ca557610ca461155e565b5b02179055506060820151816003019081610cbf9190611abf565b506080820151816004015560a0820151816005015560c08201518160060155505060025f8381526020019081526020015f205f815480929190610d0190611bbb565b91905055503373ffffffffffffffffffffffffffffffffffffffff16827f19a724ff894929d33bb5148b82127a739f59c9826fcc88da55c34663c9df39518342604051610d4f929190611c02565b60405180910390a35050565b5f5f90505f5f8381526020019081526020015f206040518060e001604052803373ffffffffffffffffffffffffffffffffffffffff1681526020018481526020015f6006811115610daf57610dae61155e565b5b815260200160405180602001604052805f81525081526020018381526020014281526020015f5f1b815250908060018154018082558091505060019003905f5260205f2090600702015f909190919091505f820151815f015f6101000a81548173ffffffffffffffffffffffffffffffffffffffff021916908373ffffffffffffffffffffffffffffffffffffffff160217905550602082015181600101556040820151816002015f6101000a81548160ff02191690836006811115610e7857610e7761155e565b5b02179055506060820151816003019081610e929190611abf565b506080820151816004015560a0820151816005015560c082015181600601555050600160025f8481526020019081526020015f20819055503373ffffffffffffffffffffffffffffffffffffffff16827f25dbd9d5e9a733340719a19ebda07122156565f4099ef52d5c73614c7f6af4e560025f8681526020019081526020015f205442604051610f24929190611c02565b60405180910390a35050565b5f60025f8481526020019081526020015f205490505f5f8481526020019081526020015f206040518060e001604052803373ffffffffffffffffffffffffffffffffffffffff168152602001858152602001600680811115610f9557610f9461155e565b5b815260200160405180602001604052805f815250815260200183815260200142815260200184815250908060018154018082558091505060019003905f5260205f2090600702015f909190919091505f820151815f015f6101000a81548173ffffffffffffffffffffffffffffffffffffffff021916908373ffffffffffffffffffffffffffffffffffffffff160217905550602082015181600101556040820151816002015f6101000a81548160ff0219169083600681111561105c5761105b61155e565b5b021790555060608201518160030190816110769190611abf565b506080820151816004015560a0820151816005015560c08201518160060155505060025f8481526020019081526020015f205f8154809291906110b890611bbb565b91905055503373ffffffffffffffffffffffffffffffffffffffff16837ff6bba8ff2989b8ded9ec92bb66241f10111fc157480acc5741cdbabe4aaf8a5d60025f8781526020019081526020015f205442604051611117929190611c02565b60405180910390a3505050565b60015f9054906101000a900473ffffffffffffffffffffffffffffffffffffffff1681565b5f60025f8481526020019081526020015f205490505f5f8481526020019081526020015f206040518060e001604052803373ffffffffffffffffffffffffffffffffffffffff168152602001858152602001600160068111156111af576111ae61155e565b5b815260200160405180602001604052805f81525081526020018381526020014281526020015f5f1b815250908060018154018082558091505060019003905f5260205f2090600702015f909190919091505f820151815f015f6101000a81548173ffffffffffffffffffffffffffffffffffffffff021916908373ffffffffffffffffffffffffffffffffffffffff160217905550602082015181600101556040820151816002015f6101000a81548160ff021916908360068111156112785761127761155e565b5b021790555060608201518160030190816112929190611abf565b506080820151816004015560a0820151816005015560c08201518160060155505060025f8481526020019081526020015f205f8154809291906112d490611bbb565b91905055503373ffffffffffffffffffffffffffffffffffffffff16837f70eaaee2d8118d697b7ef2654d928e5cff4561bf2d1d14a59f7e31e50d5b536183428660405161132493929190611c29565b60405180910390a3505050565b5f5ffd5b5f819050919050565b61134781611335565b8114611351575f5ffd5b50565b5f813590506113628161133e565b92915050565b5f6020828403121561137d5761137c611331565b5b5f61138a84828501611354565b91505092915050565b5f819050919050565b6113a581611393565b82525050565b5f6020820190506113be5f83018461139c565b92915050565b5f5f604083850312156113da576113d9611331565b5b5f6113e785828601611354565b92505060206113f885828601611354565b9150509250929050565b5f73ffffffffffffffffffffffffffffffffffffffff82169050919050565b5f61142b82611402565b9050919050565b61143b81611421565b8114611445575f5ffd5b50565b5f8135905061145681611432565b92915050565b5f6020828403121561147157611470611331565b5b5f61147e84828501611448565b91505092915050565b5f81519050919050565b5f82825260208201905092915050565b8281835e5f83830152505050565b5f601f19601f8301169050919050565b5f6114c982611487565b6114d38185611491565b93506114e38185602086016114a1565b6114ec816114af565b840191505092915050565b5f6020820190508181035f83015261150f81846114bf565b905092915050565b5f81519050919050565b5f82825260208201905092915050565b5f819050602082019050919050565b61154981611421565b82525050565b61155881611335565b82525050565b7f4e487b71000000000000000000000000000000000000000000000000000000005f52602160045260245ffd5b6007811061159c5761159b61155e565b5b50565b5f8190506115ac8261158b565b919050565b5f6115bb8261159f565b9050919050565b6115cb816115b1565b82525050565b5f82825260208201905092915050565b5f6115eb82611487565b6115f581856115d1565b93506116058185602086016114a1565b61160e816114af565b840191505092915050565b61162281611393565b82525050565b5f60e083015f83015161163d5f860182611540565b506020830151611650602086018261154f565b50604083015161166360408601826115c2565b506060830151848203606086015261167b82826115e1565b91505060808301516116906080860182611619565b5060a08301516116a360a0860182611619565b5060c08301516116b660c086018261154f565b508091505092915050565b5f6116cc8383611628565b905092915050565b5f602082019050919050565b5f6116ea82611517565b6116f48185611521565b93508360208202850161170685611531565b805f5b85811015611741578484038952815161172285826116c1565b945061172d836116d4565b925060208a01995050600181019050611709565b50829750879550505050505092915050565b5f6020820190508181035f83015261176b81846116e0565b905092915050565b61177c81611393565b8114611786575f5ffd5b50565b5f8135905061179781611773565b92915050565b5f5f604083850312156117b3576117b2611331565b5b5f6117c085828601611354565b92505060206117d185828601611789565b9150509250929050565b6117e481611421565b82525050565b6117f381611335565b82525050565b611802816115b1565b82525050565b5f60e08201905061181b5f83018a6117db565b61182860208301896117ea565b61183560408301886117f9565b818103606083015261184781876114bf565b9050611856608083018661139c565b61186360a083018561139c565b61187060c08301846117ea565b98975050505050505050565b5f60208201905061188f5f8301846117db565b92915050565b7f4e487b71000000000000000000000000000000000000000000000000000000005f52604160045260245ffd5b7f4e487b71000000000000000000000000000000000000000000000000000000005f52602260045260245ffd5b5f600282049050600182168061190657607f821691505b602082108103611919576119186118c2565b5b50919050565b5f819050815f5260205f209050919050565b5f6020601f8301049050919050565b5f82821b905092915050565b5f6008830261197b7fffffffffffffffffffffffffffffffffffffffffffffffffffffffffffffffff82611940565b6119858683611940565b95508019841693508086168417925050509392505050565b5f819050919050565b5f6119c06119bb6119b684611393565b61199d565b611393565b9050919050565b5f819050919050565b6119d9836119a6565b6119ed6119e5826119c7565b84845461194c565b825550505050565b5f5f905090565b611a046119f5565b611a0f8184846119d0565b505050565b5b81811015611a3257611a275f826119fc565b600181019050611a15565b5050565b601f821115611a7757611a488161191f565b611a5184611931565b81016020851015611a60578190505b611a74611a6c85611931565b830182611a14565b50505b505050565b5f82821c905092915050565b5f611a975f1984600802611a7c565b1980831691505092915050565b5f611aaf8383611a88565b9150826002028217905092915050565b611ac882611487565b67ffffffffffffffff811115611ae157611ae0611895565b5b611aeb82546118ef565b611af6828285611a36565b5f60209050601f831160018114611b27575f8415611b15578287015190505b611b1f8582611aa4565b865550611b86565b601f198416611b358661191f565b5f5b82811015611b5c57848901518255600182019150602085019450602081019050611b37565b86831015611b795784890151611b75601f891682611a88565b8355505b6001600288020188555050505b505050505050565b7f4e487b71000000000000000000000000000000000000000000000000000000005f52601160045260245ffd5b5f611bc582611393565b91507fffffffffffffffffffffffffffffffffffffffffffffffffffffffffffffffff8203611bf757611bf6611b8e565b5b600182019050919050565b5f604082019050611c155f83018561139c565b611c22602083018461139c565b9392505050565b5f606082019050611c3c5f83018661139c565b611c49602083018561139c565b611c5660408301846117ea565b94935050505056fea26469706673582212205da95ce6e5fa0d3e5532e340d8ec8414f3041239cec9564753f8f30aa7e6595c64736f6c634300081e0033",
					"opcodes": "PUSH1 0x80 PUSH1 0x40 MSTORE CALLVALUE DUP1 ISZERO PUSH2 0xF JUMPI PUSH0 PUSH0 REVERT JUMPDEST POP CALLER PUSH1 0x1 PUSH0 PUSH2 0x100 EXP DUP2 SLOAD DUP2 PUSH20 0xFFFFFFFFFFFFFFFFFFFFFFFFFFFFFFFFFFFFFFFF MUL NOT AND SWAP1 DUP4 PUSH20 0xFFFFFFFFFFFFFFFFFFFFFFFFFFFFFFFFFFFFFFFF AND MUL OR SWAP1 SSTORE POP PUSH1 0x40 MLOAD DUP1 PUSH1 0x40 ADD PUSH1 0x40 MSTORE DUP1 PUSH1 0x5 DUP2 MSTORE PUSH1 0x20 ADD PUSH32 0x61646D696E000000000000000000000000000000000000000000000000000000 DUP2 MSTORE POP PUSH1 0x3 PUSH0 CALLER PUSH20 0xFFFFFFFFFFFFFFFFFFFFFFFFFFFFFFFFFFFFFFFF AND PUSH20 0xFFFFFFFFFFFFFFFFFFFFFFFFFFFFFFFFFFFFFFFF AND DUP2 MSTORE PUSH1 0x20 ADD SWAP1 DUP2 MSTORE PUSH1 0x20 ADD PUSH0 KECCAK256 SWAP1 DUP2 PUSH2 0xCF SWAP2 SWAP1 PUSH2 0x312 JUMP JUMPDEST POP PUSH2 0x3E1 JUMP JUMPDEST PUSH0 DUP2 MLOAD SWAP1 POP SWAP2 SWAP1 POP JUMP JUMPDEST PUSH32 0x4E487B7100000000000000000000000000000000000000000000000000000000 PUSH0 MSTORE PUSH1 0x41 PUSH1 0x4 MSTORE PUSH1 0x24 PUSH0 REVERT JUMPDEST PUSH32 0x4E487B7100000000000000000000000000000000000000000000000000000000 PUSH0 MSTORE PUSH1 0x22 PUSH1 0x4 MSTORE PUSH1 0x24 PUSH0 REVERT JUMPDEST PUSH0 PUSH1 0x2 DUP3 DIV SWAP1 POP PUSH1 0x1 DUP3 AND DUP1 PUSH2 0x150 JUMPI PUSH1 0x7F DUP3 AND SWAP2 POP JUMPDEST PUSH1 0x20 DUP3 LT DUP2 SUB PUSH2 0x163 JUMPI PUSH2 0x162 PUSH2 0x10C JUMP JUMPDEST JUMPDEST POP SWAP2 SWAP1 POP JUMP JUMPDEST PUSH0 DUP2 SWAP1 POP DUP2 PUSH0 MSTORE PUSH1 0x20 PUSH0 KECCAK256 SWAP1 POP SWAP2 SWAP1 POP JUMP JUMPDEST PUSH0 PUSH1 0x20 PUSH1 0x1F DUP4 ADD DIV SWAP1 POP SWAP2 SWAP1 POP JUMP JUMPDEST PUSH0 DUP3 DUP3 SHL SWAP1 POP SWAP3 SWAP2 POP POP JUMP JUMPDEST PUSH0 PUSH1 0x8 DUP4 MUL PUSH2 0x1C5 PUSH32 0xFFFFFFFFFFFFFFFFFFFFFFFFFFFFFFFFFFFFFFFFFFFFFFFFFFFFFFFFFFFFFFFF DUP3 PUSH2 0x18A JUMP JUMPDEST PUSH2 0x1CF DUP7 DUP4 PUSH2 0x18A JUMP JUMPDEST SWAP6 POP DUP1 NOT DUP5 AND SWAP4 POP DUP1 DUP7 AND DUP5 OR SWAP3 POP POP POP SWAP4 SWAP3 POP POP POP JUMP JUMPDEST PUSH0 DUP2 SWAP1 POP SWAP2 SWAP1 POP JUMP JUMPDEST PUSH0 DUP2 SWAP1 POP SWAP2 SWAP1 POP JUMP JUMPDEST PUSH0 PUSH2 0x213 PUSH2 0x20E PUSH2 0x209 DUP5 PUSH2 0x1E7 JUMP JUMPDEST PUSH2 0x1F0 JUMP JUMPDEST PUSH2 0x1E7 JUMP JUMPDEST SWAP1 POP SWAP2 SWAP1 POP JUMP JUMPDEST PUSH0 DUP2 SWAP1 POP SWAP2 SWAP1 POP JUMP JUMPDEST PUSH2 0x22C DUP4 PUSH2 0x1F9 JUMP JUMPDEST PUSH2 0x240 PUSH2 0x238 DUP3 PUSH2 0x21A JUMP JUMPDEST DUP5 DUP5 SLOAD PUSH2 0x196 JUMP JUMPDEST DUP3 SSTORE POP POP POP POP JUMP JUMPDEST PUSH0 PUSH0 SWAP1 POP SWAP1 JUMP JUMPDEST PUSH2 0x257 PUSH2 0x248 JUMP JUMPDEST PUSH2 0x262 DUP2 DUP5 DUP5 PUSH2 0x223 JUMP JUMPDEST POP POP POP JUMP JUMPDEST JUMPDEST DUP2 DUP2 LT ISZERO PUSH2 0x285 JUMPI PUSH2 0x27A PUSH0 DUP3 PUSH2 0x24F JUMP JUMPDEST PUSH1 0x1 DUP2 ADD SWAP1 POP PUSH2 0x268 JUMP JUMPDEST POP POP JUMP JUMPDEST PUSH1 0x1F DUP3 GT ISZERO PUSH2 0x2CA JUMPI PUSH2 0x29B DUP2 PUSH2 0x169 JUMP JUMPDEST PUSH2 0x2A4 DUP5 PUSH2 0x17B JUMP JUMPDEST DUP2 ADD PUSH1 0x20 DUP6 LT ISZERO PUSH2 0x2B3 JUMPI DUP2 SWAP1 POP JUMPDEST PUSH2 0x2C7 PUSH2 0x2BF DUP6 PUSH2 0x17B JUMP JUMPDEST DUP4 ADD DUP3 PUSH2 0x267 JUMP JUMPDEST POP POP JUMPDEST POP POP POP JUMP JUMPDEST PUSH0 DUP3 DUP3 SHR SWAP1 POP SWAP3 SWAP2 POP POP JUMP JUMPDEST PUSH0 PUSH2 0x2EA PUSH0 NOT DUP5 PUSH1 0x8 MUL PUSH2 0x2CF JUMP JUMPDEST NOT DUP1 DUP4 AND SWAP2 POP POP SWAP3 SWAP2 POP POP JUMP JUMPDEST PUSH0 PUSH2 0x302 DUP4 DUP4 PUSH2 0x2DB JUMP JUMPDEST SWAP2 POP DUP3 PUSH1 0x2 MUL DUP3 OR SWAP1 POP SWAP3 SWAP2 POP POP JUMP JUMPDEST PUSH2 0x31B DUP3 PUSH2 0xD5 JUMP JUMPDEST PUSH8 0xFFFFFFFFFFFFFFFF DUP2 GT ISZERO PUSH2 0x334 JUMPI PUSH2 0x333 PUSH2 0xDF JUMP JUMPDEST JUMPDEST PUSH2 0x33E DUP3 SLOAD PUSH2 0x139 JUMP JUMPDEST PUSH2 0x349 DUP3 DUP3 DUP6 PUSH2 0x289 JUMP JUMPDEST PUSH0 PUSH1 0x20 SWAP1 POP PUSH1 0x1F DUP4 GT PUSH1 0x1 DUP2 EQ PUSH2 0x37A JUMPI PUSH0 DUP5 ISZERO PUSH2 0x368 JUMPI DUP3 DUP8 ADD MLOAD SWAP1 POP JUMPDEST PUSH2 0x372 DUP6 DUP3 PUSH2 0x2F7 JUMP JUMPDEST DUP7 SSTORE POP PUSH2 0x3D9 JUMP JUMPDEST PUSH1 0x1F NOT DUP5 AND PUSH2 0x388 DUP7 PUSH2 0x169 JUMP JUMPDEST PUSH0 JUMPDEST DUP3 DUP2 LT ISZERO PUSH2 0x3AF JUMPI DUP5 DUP10 ADD MLOAD DUP3 SSTORE PUSH1 0x1 DUP3 ADD SWAP2 POP PUSH1 0x20 DUP6 ADD SWAP5 POP PUSH1 0x20 DUP2 ADD SWAP1 POP PUSH2 0x38A JUMP JUMPDEST DUP7 DUP4 LT ISZERO PUSH2 0x3CC JUMPI DUP5 DUP10 ADD MLOAD PUSH2 0x3C8 PUSH1 0x1F DUP10 AND DUP3 PUSH2 0x2DB JUMP JUMPDEST DUP4 SSTORE POP JUMPDEST PUSH1 0x1 PUSH1 0x2 DUP9 MUL ADD DUP9 SSTORE POP POP POP JUMPDEST POP POP POP POP POP POP JUMP JUMPDEST PUSH2 0x1C94 DUP1 PUSH2 0x3EE PUSH0 CODECOPY PUSH0 RETURN INVALID PUSH1 0x80 PUSH1 0x40 MSTORE CALLVALUE DUP1 ISZERO PUSH2 0xF JUMPI PUSH0 PUSH0 REVERT JUMPDEST POP PUSH1 0x4 CALLDATASIZE LT PUSH2 0xB2 JUMPI PUSH0 CALLDATALOAD PUSH1 0xE0 SHR DUP1 PUSH4 0xBBCB3224 GT PUSH2 0x6F JUMPI DUP1 PUSH4 0xBBCB3224 EQ PUSH2 0x19A JUMPI DUP1 PUSH4 0xBBFE6E95 EQ PUSH2 0x1D0 JUMPI DUP1 PUSH4 0xBEDDD1E4 EQ PUSH2 0x1EC JUMPI DUP1 PUSH4 0xEF3F4AD5 EQ PUSH2 0x208 JUMPI DUP1 PUSH4 0xF851A440 EQ PUSH2 0x224 JUMPI DUP1 PUSH4 0xFCB526D7 EQ PUSH2 0x242 JUMPI PUSH2 0xB2 JUMP JUMPDEST DUP1 PUSH4 0x53FFDF74 EQ PUSH2 0xB6 JUMPI DUP1 PUSH4 0x73F1869B EQ PUSH2 0xE6 JUMPI DUP1 PUSH4 0x9043F828 EQ PUSH2 0x102 JUMPI DUP1 PUSH4 0x9786CD8A EQ PUSH2 0x11E JUMPI DUP1 PUSH4 0x99374642 EQ PUSH2 0x13A JUMPI DUP1 PUSH4 0xBA9E3798 EQ PUSH2 0x16A JUMPI JUMPDEST PUSH0 PUSH0 REVERT JUMPDEST PUSH2 0xD0 PUSH1 0x4 DUP1 CALLDATASIZE SUB DUP2 ADD SWAP1 PUSH2 0xCB SWAP2 SWAP1 PUSH2 0x1368 JUMP JUMPDEST PUSH2 0x25E JUMP JUMPDEST PUSH1 0x40 MLOAD PUSH2 0xDD SWAP2 SWAP1 PUSH2 0x13AB JUMP JUMPDEST PUSH1 0x40 MLOAD DUP1 SWAP2 SUB SWAP1 RETURN JUMPDEST PUSH2 0x100 PUSH1 0x4 DUP1 CALLDATASIZE SUB DUP2 ADD SWAP1 PUSH2 0xFB SWAP2 SWAP1 PUSH2 0x1368 JUMP JUMPDEST PUSH2 0x273 JUMP JUMPDEST STOP JUMPDEST PUSH2 0x11C PUSH1 0x4 DUP1 CALLDATASIZE SUB DUP2 ADD SWAP1 PUSH2 0x117 SWAP2 SWAP1 PUSH2 0x1368 JUMP JUMPDEST PUSH2 0x458 JUMP JUMPDEST STOP JUMPDEST PUSH2 0x138 PUSH1 0x4 DUP1 CALLDATASIZE SUB DUP2 ADD SWAP1 PUSH2 0x133 SWAP2 SWAP1 PUSH2 0x13C4 JUMP JUMPDEST PUSH2 0x63D JUMP JUMPDEST STOP JUMPDEST PUSH2 0x154 PUSH1 0x4 DUP1 CALLDATASIZE SUB DUP2 ADD SWAP1 PUSH2 0x14F SWAP2 SWAP1 PUSH2 0x145C JUMP JUMPDEST PUSH2 0x821 JUMP JUMPDEST PUSH1 0x40 MLOAD PUSH2 0x161 SWAP2 SWAP1 PUSH2 0x14F7 JUMP JUMPDEST PUSH1 0x40 MLOAD DUP1 SWAP2 SUB SWAP1 RETURN JUMPDEST PUSH2 0x184 PUSH1 0x4 DUP1 CALLDATASIZE SUB DUP2 ADD SWAP1 PUSH2 0x17F SWAP2 SWAP1 PUSH2 0x1368 JUMP JUMPDEST PUSH2 0x8BC JUMP JUMPDEST PUSH1 0x40 MLOAD PUSH2 0x191 SWAP2 SWAP1 PUSH2 0x1753 JUMP JUMPDEST PUSH1 0x40 MLOAD DUP1 SWAP2 SUB SWAP1 RETURN JUMPDEST PUSH2 0x1B4 PUSH1 0x4 DUP1 CALLDATASIZE SUB DUP2 ADD SWAP1 PUSH2 0x1AF SWAP2 SWAP1 PUSH2 0x179D JUMP JUMPDEST PUSH2 0xA6E JUMP JUMPDEST PUSH1 0x40 MLOAD PUSH2 0x1C7 SWAP8 SWAP7 SWAP6 SWAP5 SWAP4 SWAP3 SWAP2 SWAP1 PUSH2 0x1808 JUMP JUMPDEST PUSH1 0x40 MLOAD DUP1 SWAP2 SUB SWAP1 RETURN JUMPDEST PUSH2 0x1EA PUSH1 0x4 DUP1 CALLDATASIZE SUB DUP2 ADD SWAP1 PUSH2 0x1E5 SWAP2 SWAP1 PUSH2 0x1368 JUMP JUMPDEST PUSH2 0xB76 JUMP JUMPDEST STOP JUMPDEST PUSH2 0x206 PUSH1 0x4 DUP1 CALLDATASIZE SUB DUP2 ADD SWAP1 PUSH2 0x201 SWAP2 SWAP1 PUSH2 0x1368 JUMP JUMPDEST PUSH2 0xD5B JUMP JUMPDEST STOP JUMPDEST PUSH2 0x222 PUSH1 0x4 DUP1 CALLDATASIZE SUB DUP2 ADD SWAP1 PUSH2 0x21D SWAP2 SWAP1 PUSH2 0x13C4 JUMP JUMPDEST PUSH2 0xF30 JUMP JUMPDEST STOP JUMPDEST PUSH2 0x22C PUSH2 0x1124 JUMP JUMPDEST PUSH1 0x40 MLOAD PUSH2 0x239 SWAP2 SWAP1 PUSH2 0x187C JUMP JUMPDEST PUSH1 0x40 MLOAD DUP1 SWAP2 SUB SWAP1 RETURN JUMPDEST PUSH2 0x25C PUSH1 0x4 DUP1 CALLDATASIZE SUB DUP2 ADD SWAP1 PUSH2 0x257 SWAP2 SWAP1 PUSH2 0x13C4 JUMP JUMPDEST PUSH2 0x1149 JUMP JUMPDEST STOP JUMPDEST PUSH1 0x2 PUSH1 0x20 MSTORE DUP1 PUSH0 MSTORE PUSH1 0x40 PUSH0 KECCAK256 PUSH0 SWAP2 POP SWAP1 POP SLOAD DUP2 JUMP JUMPDEST PUSH0 PUSH1 0x2 PUSH0 DUP4 DUP2 MSTORE PUSH1 0x20 ADD SWAP1 DUP2 MSTORE PUSH1 0x20 ADD PUSH0 KECCAK256 SLOAD SWAP1 POP PUSH0 PUSH0 DUP4 DUP2 MSTORE PUSH1 0x20 ADD SWAP1 DUP2 MSTORE PUSH1 0x20 ADD PUSH0 KECCAK256 PUSH1 0x40 MLOAD DUP1 PUSH1 0xE0 ADD PUSH1 0x40 MSTORE DUP1 CALLER PUSH20 0xFFFFFFFFFFFFFFFFFFFFFFFFFFFFFFFFFFFFFFFF AND DUP2 MSTORE PUSH1 0x20 ADD DUP5 DUP2 MSTORE PUSH1 0x20 ADD PUSH1 0x4 PUSH1 0x6 DUP2 GT ISZERO PUSH2 0x2D9 JUMPI PUSH2 0x2D8 PUSH2 0x155E JUMP JUMPDEST JUMPDEST DUP2 MSTORE PUSH1 0x20 ADD PUSH1 0x40 MLOAD DUP1 PUSH1 0x20 ADD PUSH1 0x40 MSTORE DUP1 PUSH0 DUP2 MSTORE POP DUP2 MSTORE PUSH1 0x20 ADD DUP4 DUP2 MSTORE PUSH1 0x20 ADD TIMESTAMP DUP2 MSTORE PUSH1 0x20 ADD PUSH0 PUSH0 SHL DUP2 MSTORE POP SWAP1 DUP1 PUSH1 0x1 DUP2 SLOAD ADD DUP1 DUP3 SSTORE DUP1 SWAP2 POP POP PUSH1 0x1 SWAP1 SUB SWAP1 PUSH0 MSTORE PUSH1 0x20 PUSH0 KECCAK256 SWAP1 PUSH1 0x7 MUL ADD PUSH0 SWAP1 SWAP2 SWAP1 SWAP2 SWAP1 SWAP2 POP PUSH0 DUP3 ADD MLOAD DUP2 PUSH0 ADD PUSH0 PUSH2 0x100 EXP DUP2 SLOAD DUP2 PUSH20 0xFFFFFFFFFFFFFFFFFFFFFFFFFFFFFFFFFFFFFFFF MUL NOT AND SWAP1 DUP4 PUSH20 0xFFFFFFFFFFFFFFFFFFFFFFFFFFFFFFFFFFFFFFFF AND MUL OR SWAP1 SSTORE POP PUSH1 0x20 DUP3 ADD MLOAD DUP2 PUSH1 0x1 ADD SSTORE PUSH1 0x40 DUP3 ADD MLOAD DUP2 PUSH1 0x2 ADD PUSH0 PUSH2 0x100 EXP DUP2 SLOAD DUP2 PUSH1 0xFF MUL NOT AND SWAP1 DUP4 PUSH1 0x6 DUP2 GT ISZERO PUSH2 0x3A2 JUMPI PUSH2 0x3A1 PUSH2 0x155E JUMP JUMPDEST JUMPDEST MUL OR SWAP1 SSTORE POP PUSH1 0x60 DUP3 ADD MLOAD DUP2 PUSH1 0x3 ADD SWAP1 DUP2 PUSH2 0x3BC SWAP2 SWAP1 PUSH2 0x1ABF JUMP JUMPDEST POP PUSH1 0x80 DUP3 ADD MLOAD DUP2 PUSH1 0x4 ADD SSTORE PUSH1 0xA0 DUP3 ADD MLOAD DUP2 PUSH1 0x5 ADD SSTORE PUSH1 0xC0 DUP3 ADD MLOAD DUP2 PUSH1 0x6 ADD SSTORE POP POP PUSH1 0x2 PUSH0 DUP4 DUP2 MSTORE PUSH1 0x20 ADD SWAP1 DUP2 MSTORE PUSH1 0x20 ADD PUSH0 KECCAK256 PUSH0 DUP2 SLOAD DUP1 SWAP3 SWAP2 SWAP1 PUSH2 0x3FE SWAP1 PUSH2 0x1BBB JUMP JUMPDEST SWAP2 SWAP1 POP SSTORE POP CALLER PUSH20 0xFFFFFFFFFFFFFFFFFFFFFFFFFFFFFFFFFFFFFFFF AND DUP3 PUSH32 0xB741B6C221E9657954F6E0B43FEEB91372AC359579B8C5BA78EBCC1F13AD8EBB DUP4 TIMESTAMP PUSH1 0x40 MLOAD PUSH2 0x44C SWAP3 SWAP2 SWAP1 PUSH2 0x1C02 JUMP JUMPDEST PUSH1 0x40 MLOAD DUP1 SWAP2 SUB SWAP1 LOG3 POP POP JUMP JUMPDEST PUSH0 PUSH1 0x2 PUSH0 DUP4 DUP2 MSTORE PUSH1 0x20 ADD SWAP1 DUP2 MSTORE PUSH1 0x20 ADD PUSH0 KECCAK256 SLOAD SWAP1 POP PUSH0 PUSH0 DUP4 DUP2 MSTORE PUSH1 0x20 ADD SWAP1 DUP2 MSTORE PUSH1 0x20 ADD PUSH0 KECCAK256 PUSH1 0x40 MLOAD DUP1 PUSH1 0xE0 ADD PUSH1 0x40 MSTORE DUP1 CALLER PUSH20 0xFFFFFFFFFFFFFFFFFFFFFFFFFFFFFFFFFFFFFFFF AND DUP2 MSTORE PUSH1 0x20 ADD DUP5 DUP2 MSTORE PUSH1 0x20 ADD PUSH1 0x5 PUSH1 0x6 DUP2 GT ISZERO PUSH2 0x4BE JUMPI PUSH2 0x4BD PUSH2 0x155E JUMP JUMPDEST JUMPDEST DUP2 MSTORE PUSH1 0x20 ADD PUSH1 0x40 MLOAD DUP1 PUSH1 0x20 ADD PUSH1 0x40 MSTORE DUP1 PUSH0 DUP2 MSTORE POP DUP2 MSTORE PUSH1 0x20 ADD DUP4 DUP2 MSTORE PUSH1 0x20 ADD TIMESTAMP DUP2 MSTORE PUSH1 0x20 ADD PUSH0 PUSH0 SHL DUP2 MSTORE POP SWAP1 DUP1 PUSH1 0x1 DUP2 SLOAD ADD DUP1 DUP3 SSTORE DUP1 SWAP2 POP POP PUSH1 0x1 SWAP1 SUB SWAP1 PUSH0 MSTORE PUSH1 0x20 PUSH0 KECCAK256 SWAP1 PUSH1 0x7 MUL ADD PUSH0 SWAP1 SWAP2 SWAP1 SWAP2 SWAP1 SWAP2 POP PUSH0 DUP3 ADD MLOAD DUP2 PUSH0 ADD PUSH0 PUSH2 0x100 EXP DUP2 SLOAD DUP2 PUSH20 0xFFFFFFFFFFFFFFFFFFFFFFFFFFFFFFFFFFFFFFFF MUL NOT AND SWAP1 DUP4 PUSH20 0xFFFFFFFFFFFFFFFFFFFFFFFFFFFFFFFFFFFFFFFF AND MUL OR SWAP1 SSTORE POP PUSH1 0x20 DUP3 ADD MLOAD DUP2 PUSH1 0x1 ADD SSTORE PUSH1 0x40 DUP3 ADD MLOAD DUP2 PUSH1 0x2 ADD PUSH0 PUSH2 0x100 EXP DUP2 SLOAD DUP2 PUSH1 0xFF MUL NOT AND SWAP1 DUP4 PUSH1 0x6 DUP2 GT ISZERO PUSH2 0x587 JUMPI PUSH2 0x586 PUSH2 0x155E JUMP JUMPDEST JUMPDEST MUL OR SWAP1 SSTORE POP PUSH1 0x60 DUP3 ADD MLOAD DUP2 PUSH1 0x3 ADD SWAP1 DUP2 PUSH2 0x5A1 SWAP2 SWAP1 PUSH2 0x1ABF JUMP JUMPDEST POP PUSH1 0x80 DUP3 ADD MLOAD DUP2 PUSH1 0x4 ADD SSTORE PUSH1 0xA0 DUP3 ADD MLOAD DUP2 PUSH1 0x5 ADD SSTORE PUSH1 0xC0 DUP3 ADD MLOAD DUP2 PUSH1 0x6 ADD SSTORE POP POP PUSH1 0x2 PUSH0 DUP4 DUP2 MSTORE PUSH1 0x20 ADD SWAP1 DUP2 MSTORE PUSH1 0x20 ADD PUSH0 KECCAK256 PUSH0 DUP2 SLOAD DUP1 SWAP3 SWAP2 SWAP1 PUSH2 0x5E3 SWAP1 PUSH2 0x1BBB JUMP JUMPDEST SWAP2 SWAP1 POP SSTORE POP CALLER PUSH20 0xFFFFFFFFFFFFFFFFFFFFFFFFFFFFFFFFFFFFFFFF AND DUP3 PUSH32 0xE03189A5907E7A9897E2CF6C714A834CFB425A4983D562DC01AE800829A43BDD DUP4 TIMESTAMP PUSH1 0x40 MLOAD PUSH2 0x631 SWAP3 SWAP2 SWAP1 PUSH2 0x1C02 JUMP JUMPDEST PUSH1 0x40 MLOAD DUP1 SWAP2 SUB SWAP1 LOG3 POP POP JUMP JUMPDEST PUSH0 PUSH1 0x2 PUSH0 DUP5 DUP2 MSTORE PUSH1 0x20 ADD SWAP1 DUP2 MSTORE PUSH1 0x20 ADD PUSH0 KECCAK256 SLOAD SWAP1 POP PUSH0 PUSH0 DUP5 DUP2 MSTORE PUSH1 0x20 ADD SWAP1 DUP2 MSTORE PUSH1 0x20 ADD PUSH0 KECCAK256 PUSH1 0x40 MLOAD DUP1 PUSH1 0xE0 ADD PUSH1 0x40 MSTORE DUP1 CALLER PUSH20 0xFFFFFFFFFFFFFFFFFFFFFFFFFFFFFFFFFFFFFFFF AND DUP2 MSTORE PUSH1 0x20 ADD DUP6 DUP2 MSTORE PUSH1 0x20 ADD PUSH1 0x2 PUSH1 0x6 DUP2 GT ISZERO PUSH2 0x6A3 JUMPI PUSH2 0x6A2 PUSH2 0x155E JUMP JUMPDEST JUMPDEST DUP2 MSTORE PUSH1 0x20 ADD PUSH1 0x40 MLOAD DUP1 PUSH1 0x20 ADD PUSH1 0x40 MSTORE DUP1 PUSH0 DUP2 MSTORE POP DUP2 MSTORE PUSH1 0x20 ADD DUP4 DUP2 MSTORE PUSH1 0x20 ADD TIMESTAMP DUP2 MSTORE PUSH1 0x20 ADD DUP5 DUP2 MSTORE POP SWAP1 DUP1 PUSH1 0x1 DUP2 SLOAD ADD DUP1 DUP3 SSTORE DUP1 SWAP2 POP POP PUSH1 0x1 SWAP1 SUB SWAP1 PUSH0 MSTORE PUSH1 0x20 PUSH0 KECCAK256 SWAP1 PUSH1 0x7 MUL ADD PUSH0 SWAP1 SWAP2 SWAP1 SWAP2 SWAP1 SWAP2 POP PUSH0 DUP3 ADD MLOAD DUP2 PUSH0 ADD PUSH0 PUSH2 0x100 EXP DUP2 SLOAD DUP2 PUSH20 0xFFFFFFFFFFFFFFFFFFFFFFFFFFFFFFFFFFFFFFFF MUL NOT AND SWAP1 DUP4 PUSH20 0xFFFFFFFFFFFFFFFFFFFFFFFFFFFFFFFFFFFFFFFF AND MUL OR SWAP1 SSTORE POP PUSH1 0x20 DUP3 ADD MLOAD DUP2 PUSH1 0x1 ADD SSTORE PUSH1 0x40 DUP3 ADD MLOAD DUP2 PUSH1 0x2 ADD PUSH0 PUSH2 0x100 EXP DUP2 SLOAD DUP2 PUSH1 0xFF MUL NOT AND SWAP1 DUP4 PUSH1 0x6 DUP2 GT ISZERO PUSH2 0x76A JUMPI PUSH2 0x769 PUSH2 0x155E JUMP JUMPDEST JUMPDEST MUL OR SWAP1 SSTORE POP PUSH1 0x60 DUP3 ADD MLOAD DUP2 PUSH1 0x3 ADD SWAP1 DUP2 PUSH2 0x784 SWAP2 SWAP1 PUSH2 0x1ABF JUMP JUMPDEST POP PUSH1 0x80 DUP3 ADD MLOAD DUP2 PUSH1 0x4 ADD SSTORE PUSH1 0xA0 DUP3 ADD MLOAD DUP2 PUSH1 0x5 ADD SSTORE PUSH1 0xC0 DUP3 ADD MLOAD DUP2 PUSH1 0x6 ADD SSTORE POP POP PUSH1 0x2 PUSH0 DUP5 DUP2 MSTORE PUSH1 0x20 ADD SWAP1 DUP2 MSTORE PUSH1 0x20 ADD PUSH0 KECCAK256 PUSH0 DUP2 SLOAD DUP1 SWAP3 SWAP2 SWAP1 PUSH2 0x7C6 SWAP1 PUSH2 0x1BBB JUMP JUMPDEST SWAP2 SWAP1 POP SSTORE POP CALLER PUSH20 0xFFFFFFFFFFFFFFFFFFFFFFFFFFFFFFFFFFFFFFFF AND DUP4 PUSH32 0x8060438C4E0773BAD852FAE300FF094E0703B5846E20A44BB9319C1CE73DFEF DUP4 TIMESTAMP PUSH1 0x40 MLOAD PUSH2 0x814 SWAP3 SWAP2 SWAP1 PUSH2 0x1C02 JUMP JUMPDEST PUSH1 0x40 MLOAD DUP1 SWAP2 SUB SWAP1 LOG3 POP POP POP JUMP JUMPDEST PUSH1 0x3 PUSH1 0x20 MSTORE DUP1 PUSH0 MSTORE PUSH1 0x40 PUSH0 KECCAK256 PUSH0 SWAP2 POP SWAP1 POP DUP1 SLOAD PUSH2 0x83D SWAP1 PUSH2 0x18EF JUMP JUMPDEST DUP1 PUSH1 0x1F ADD PUSH1 0x20 DUP1 SWAP2 DIV MUL PUSH1 0x20 ADD PUSH1 0x40 MLOAD SWAP1 DUP2 ADD PUSH1 0x40 MSTORE DUP1 SWAP3 SWAP2 SWAP1 DUP2 DUP2 MSTORE PUSH1 0x20 ADD DUP3 DUP1 SLOAD PUSH2 0x869 SWAP1 PUSH2 0x18EF JUMP JUMPDEST DUP1 ISZERO PUSH2 0x8B4 JUMPI DUP1 PUSH1 0x1F LT PUSH2 0x88B JUMPI PUSH2 0x100 DUP1 DUP4 SLOAD DIV MUL DUP4 MSTORE SWAP2 PUSH1 0x20 ADD SWAP2 PUSH2 0x8B4 JUMP JUMPDEST DUP3 ADD SWAP2 SWAP1 PUSH0 MSTORE PUSH1 0x20 PUSH0 KECCAK256 SWAP1 JUMPDEST DUP2 SLOAD DUP2 MSTORE SWAP1 PUSH1 0x1 ADD SWAP1 PUSH1 0x20 ADD DUP1 DUP4 GT PUSH2 0x897 JUMPI DUP3 SWAP1 SUB PUSH1 0x1F AND DUP3 ADD SWAP2 JUMPDEST POP POP POP POP POP DUP2 JUMP JUMPDEST PUSH1 0x60 PUSH0 PUSH0 DUP4 DUP2 MSTORE PUSH1 0x20 ADD SWAP1 DUP2 MSTORE PUSH1 0x20 ADD PUSH0 KECCAK256 DUP1 SLOAD DUP1 PUSH1 0x20 MUL PUSH1 0x20 ADD PUSH1 0x40 MLOAD SWAP1 DUP2 ADD PUSH1 0x40 MSTORE DUP1 SWAP3 SWAP2 SWAP1 DUP2 DUP2 MSTORE PUSH1 0x20 ADD PUSH0 SWAP1 JUMPDEST DUP3 DUP3 LT ISZERO PUSH2 0xA63 JUMPI DUP4 DUP3 SWAP1 PUSH0 MSTORE PUSH1 0x20 PUSH0 KECCAK256 SWAP1 PUSH1 0x7 MUL ADD PUSH1 0x40 MLOAD DUP1 PUSH1 0xE0 ADD PUSH1 0x40 MSTORE SWAP1 DUP2 PUSH0 DUP3 ADD PUSH0 SWAP1 SLOAD SWAP1 PUSH2 0x100 EXP SWAP1 DIV PUSH20 0xFFFFFFFFFFFFFFFFFFFFFFFFFFFFFFFFFFFFFFFF AND PUSH20 0xFFFFFFFFFFFFFFFFFFFFFFFFFFFFFFFFFFFFFFFF AND PUSH20 0xFFFFFFFFFFFFFFFFFFFFFFFFFFFFFFFFFFFFFFFF AND DUP2 MSTORE PUSH1 0x20 ADD PUSH1 0x1 DUP3 ADD SLOAD DUP2 MSTORE PUSH1 0x20 ADD PUSH1 0x2 DUP3 ADD PUSH0 SWAP1 SLOAD SWAP1 PUSH2 0x100 EXP SWAP1 DIV PUSH1 0xFF AND PUSH1 0x6 DUP2 GT ISZERO PUSH2 0x990 JUMPI PUSH2 0x98F PUSH2 0x155E JUMP JUMPDEST JUMPDEST PUSH1 0x6 DUP2 GT ISZERO PUSH2 0x9A2 JUMPI PUSH2 0x9A1 PUSH2 0x155E JUMP JUMPDEST JUMPDEST DUP2 MSTORE PUSH1 0x20 ADD PUSH1 0x3 DUP3 ADD DUP1 SLOAD PUSH2 0x9B6 SWAP1 PUSH2 0x18EF JUMP JUMPDEST DUP1 PUSH1 0x1F ADD PUSH1 0x20 DUP1 SWAP2 DIV MUL PUSH1 0x20 ADD PUSH1 0x40 MLOAD SWAP1 DUP2 ADD PUSH1 0x40 MSTORE DUP1 SWAP3 SWAP2 SWAP1 DUP2 DUP2 MSTORE PUSH1 0x20 ADD DUP3 DUP1 SLOAD PUSH2 0x9E2 SWAP1 PUSH2 0x18EF JUMP JUMPDEST DUP1 ISZERO PUSH2 0xA2D JUMPI DUP1 PUSH1 0x1F LT PUSH2 0xA04 JUMPI PUSH2 0x100 DUP1 DUP4 SLOAD DIV MUL DUP4 MSTORE SWAP2 PUSH1 0x20 ADD SWAP2 PUSH2 0xA2D JUMP JUMPDEST DUP3 ADD SWAP2 SWAP1 PUSH0 MSTORE PUSH1 0x20 PUSH0 KECCAK256 SWAP1 JUMPDEST DUP2 SLOAD DUP2 MSTORE SWAP1 PUSH1 0x1 ADD SWAP1 PUSH1 0x20 ADD DUP1 DUP4 GT PUSH2 0xA10 JUMPI DUP3 SWAP1 SUB PUSH1 0x1F AND DUP3 ADD SWAP2 JUMPDEST POP POP POP POP POP DUP2 MSTORE PUSH1 0x20 ADD PUSH1 0x4 DUP3 ADD SLOAD DUP2 MSTORE PUSH1 0x20 ADD PUSH1 0x5 DUP3 ADD SLOAD DUP2 MSTORE PUSH1 0x20 ADD PUSH1 0x6 DUP3 ADD SLOAD DUP2 MSTORE POP POP DUP2 MSTORE PUSH1 0x20 ADD SWAP1 PUSH1 0x1 ADD SWAP1 PUSH2 0x8ED JUMP JUMPDEST POP POP POP POP SWAP1 POP SWAP2 SWAP1 POP JUMP JUMPDEST PUSH0 PUSH1 0x20 MSTORE DUP2 PUSH0 MSTORE PUSH1 0x40 PUSH0 KECCAK256 DUP2 DUP2 SLOAD DUP2 LT PUSH2 0xA86 JUMPI PUSH0 DUP1 REVERT JUMPDEST SWAP1 PUSH0 MSTORE PUSH1 0x20 PUSH0 KECCAK256 SWAP1 PUSH1 0x7 MUL ADD PUSH0 SWAP2 POP SWAP2 POP POP DUP1 PUSH0 ADD PUSH0 SWAP1 SLOAD SWAP1 PUSH2 0x100 EXP SWAP1 DIV PUSH20 0xFFFFFFFFFFFFFFFFFFFFFFFFFFFFFFFFFFFFFFFF AND SWAP1 DUP1 PUSH1 0x1 ADD SLOAD SWAP1 DUP1 PUSH1 0x2 ADD PUSH0 SWAP1 SLOAD SWAP1 PUSH2 0x100 EXP SWAP1 DIV PUSH1 0xFF AND SWAP1 DUP1 PUSH1 0x3 ADD DUP1 SLOAD PUSH2 0xAE3 SWAP1 PUSH2 0x18EF JUMP JUMPDEST DUP1 PUSH1 0x1F ADD PUSH1 0x20 DUP1 SWAP2 DIV MUL PUSH1 0x20 ADD PUSH1 0x40 MLOAD SWAP1 DUP2 ADD PUSH1 0x40 MSTORE DUP1 SWAP3 SWAP2 SWAP1 DUP2 DUP2 MSTORE PUSH1 0x20 ADD DUP3 DUP1 SLOAD PUSH2 0xB0F SWAP1 PUSH2 0x18EF JUMP JUMPDEST DUP1 ISZERO PUSH2 0xB5A JUMPI DUP1 PUSH1 0x1F LT PUSH2 0xB31 JUMPI PUSH2 0x100 DUP1 DUP4 SLOAD DIV MUL DUP4 MSTORE SWAP2 PUSH1 0x20 ADD SWAP2 PUSH2 0xB5A JUMP JUMPDEST DUP3 ADD SWAP2 SWAP1 PUSH0 MSTORE PUSH1 0x20 PUSH0 KECCAK256 SWAP1 JUMPDEST DUP2 SLOAD DUP2 MSTORE SWAP1 PUSH1 0x1 ADD SWAP1 PUSH1 0x20 ADD DUP1 DUP4 GT PUSH2 0xB3D JUMPI DUP3 SWAP1 SUB PUSH1 0x1F AND DUP3 ADD SWAP2 JUMPDEST POP POP POP POP POP SWAP1 DUP1 PUSH1 0x4 ADD SLOAD SWAP1 DUP1 PUSH1 0x5 ADD SLOAD SWAP1 DUP1 PUSH1 0x6 ADD SLOAD SWAP1 POP DUP8 JUMP JUMPDEST PUSH0 PUSH1 0x2 PUSH0 DUP4 DUP2 MSTORE PUSH1 0x20 ADD SWAP1 DUP2 MSTORE PUSH1 0x20 ADD PUSH0 KECCAK256 SLOAD SWAP1 POP PUSH0 PUSH0 DUP4 DUP2 MSTORE PUSH1 0x20 ADD SWAP1 DUP2 MSTORE PUSH1 0x20 ADD PUSH0 KECCAK256 PUSH1 0x40 MLOAD DUP1 PUSH1 0xE0 ADD PUSH1 0x40 MSTORE DUP1 CALLER PUSH20 0xFFFFFFFFFFFFFFFFFFFFFFFFFFFFFFFFFFFFFFFF AND DUP2 MSTORE PUSH1 0x20 ADD DUP5 DUP2 MSTORE PUSH1 0x20 ADD PUSH1 0x3 PUSH1 0x6 DUP2 GT ISZERO PUSH2 0xBDC JUMPI PUSH2 0xBDB PUSH2 0x155E JUMP JUMPDEST JUMPDEST DUP2 MSTORE PUSH1 0x20 ADD PUSH1 0x40 MLOAD DUP1 PUSH1 0x20 ADD PUSH1 0x40 MSTORE DUP1 PUSH0 DUP2 MSTORE POP DUP2 MSTORE PUSH1 0x20 ADD DUP4 DUP2 MSTORE PUSH1 0x20 ADD TIMESTAMP DUP2 MSTORE PUSH1 0x20 ADD PUSH0 PUSH0 SHL DUP2 MSTORE POP SWAP1 DUP1 PUSH1 0x1 DUP2 SLOAD ADD DUP1 DUP3 SSTORE DUP1 SWAP2 POP POP PUSH1 0x1 SWAP1 SUB SWAP1 PUSH0 MSTORE PUSH1 0x20 PUSH0 KECCAK256 SWAP1 PUSH1 0x7 MUL ADD PUSH0 SWAP1 SWAP2 SWAP1 SWAP2 SWAP1 SWAP2 POP PUSH0 DUP3 ADD MLOAD DUP2 PUSH0 ADD PUSH0 PUSH2 0x100 EXP DUP2 SLOAD DUP2 PUSH20 0xFFFFFFFFFFFFFFFFFFFFFFFFFFFFFFFFFFFFFFFF MUL NOT AND SWAP1 DUP4 PUSH20 0xFFFFFFFFFFFFFFFFFFFFFFFFFFFFFFFFFFFFFFFF AND MUL OR SWAP1 SSTORE POP PUSH1 0x20 DUP3 ADD MLOAD DUP2 PUSH1 0x1 ADD SSTORE PUSH1 0x40 DUP3 ADD MLOAD DUP2 PUSH1 0x2 ADD PUSH0 PUSH2 0x100 EXP DUP2 SLOAD DUP2 PUSH1 0xFF MUL NOT AND SWAP1 DUP4 PUSH1 0x6 DUP2 GT ISZERO PUSH2 0xCA5 JUMPI PUSH2 0xCA4 PUSH2 0x155E JUMP JUMPDEST JUMPDEST MUL OR SWAP1 SSTORE POP PUSH1 0x60 DUP3 ADD MLOAD DUP2 PUSH1 0x3 ADD SWAP1 DUP2 PUSH2 0xCBF SWAP2 SWAP1 PUSH2 0x1ABF JUMP JUMPDEST POP PUSH1 0x80 DUP3 ADD MLOAD DUP2 PUSH1 0x4 ADD SSTORE PUSH1 0xA0 DUP3 ADD MLOAD DUP2 PUSH1 0x5 ADD SSTORE PUSH1 0xC0 DUP3 ADD MLOAD DUP2 PUSH1 0x6 ADD SSTORE POP POP PUSH1 0x2 PUSH0 DUP4 DUP2 MSTORE PUSH1 0x20 ADD SWAP1 DUP2 MSTORE PUSH1 0x20 ADD PUSH0 KECCAK256 PUSH0 DUP2 SLOAD DUP1 SWAP3 SWAP2 SWAP1 PUSH2 0xD01 SWAP1 PUSH2 0x1BBB JUMP JUMPDEST SWAP2 SWAP1 POP SSTORE POP CALLER PUSH20 0xFFFFFFFFFFFFFFFFFFFFFFFFFFFFFFFFFFFFFFFF AND DUP3 PUSH32 0x19A724FF894929D33BB5148B82127A739F59C9826FCC88DA55C34663C9DF3951 DUP4 TIMESTAMP PUSH1 0x40 MLOAD PUSH2 0xD4F SWAP3 SWAP2 SWAP1 PUSH2 0x1C02 JUMP JUMPDEST PUSH1 0x40 MLOAD DUP1 SWAP2 SUB SWAP1 LOG3 POP POP JUMP JUMPDEST PUSH0 PUSH0 SWAP1 POP PUSH0 PUSH0 DUP4 DUP2 MSTORE PUSH1 0x20 ADD SWAP1 DUP2 MSTORE PUSH1 0x20 ADD PUSH0 KECCAK256 PUSH1 0x40 MLOAD DUP1 PUSH1 0xE0 ADD PUSH1 0x40 MSTORE DUP1 CALLER PUSH20 0xFFFFFFFFFFFFFFFFFFFFFFFFFFFFFFFFFFFFFFFF AND DUP2 MSTORE PUSH1 0x20 ADD DUP5 DUP2 MSTORE PUSH1 0x20 ADD PUSH0 PUSH1 0x6 DUP2 GT ISZERO PUSH2 0xDAF JUMPI PUSH2 0xDAE PUSH2 0x155E JUMP JUMPDEST JUMPDEST DUP2 MSTORE PUSH1 0x20 ADD PUSH1 0x40 MLOAD DUP1 PUSH1 0x20 ADD PUSH1 0x40 MSTORE DUP1 PUSH0 DUP2 MSTORE POP DUP2 MSTORE PUSH1 0x20 ADD DUP4 DUP2 MSTORE PUSH1 0x20 ADD TIMESTAMP DUP2 MSTORE PUSH1 0x20 ADD PUSH0 PUSH0 SHL DUP2 MSTORE POP SWAP1 DUP1 PUSH1 0x1 DUP2 SLOAD ADD DUP1 DUP3 SSTORE DUP1 SWAP2 POP POP PUSH1 0x1 SWAP1 SUB SWAP1 PUSH0 MSTORE PUSH1 0x20 PUSH0 KECCAK256 SWAP1 PUSH1 0x7 MUL ADD PUSH0 SWAP1 SWAP2 SWAP1 SWAP2 SWAP1 SWAP2 POP PUSH0 DUP3 ADD MLOAD DUP2 PUSH0 ADD PUSH0 PUSH2 0x100 EXP DUP2 SLOAD DUP2 PUSH20 0xFFFFFFFFFFFFFFFFFFFFFFFFFFFFFFFFFFFFFFFF MUL NOT AND SWAP1 DUP4 PUSH20 0xFFFFFFFFFFFFFFFFFFFFFFFFFFFFFFFFFFFFFFFF AND MUL OR SWAP1 SSTORE POP PUSH1 0x20 DUP3 ADD MLOAD DUP2 PUSH1 0x1 ADD SSTORE PUSH1 0x40 DUP3 ADD MLOAD DUP2 PUSH1 0x2 ADD PUSH0 PUSH2 0x100 EXP DUP2 SLOAD DUP2 PUSH1 0xFF MUL NOT AND SWAP1 DUP4 PUSH1 0x6 DUP2 GT ISZERO PUSH2 0xE78 JUMPI PUSH2 0xE77 PUSH2 0x155E JUMP JUMPDEST JUMPDEST MUL OR SWAP1 SSTORE POP PUSH1 0x60 DUP3 ADD MLOAD DUP2 PUSH1 0x3 ADD SWAP1 DUP2 PUSH2 0xE92 SWAP2 SWAP1 PUSH2 0x1ABF JUMP JUMPDEST POP PUSH1 0x80 DUP3 ADD MLOAD DUP2 PUSH1 0x4 ADD SSTORE PUSH1 0xA0 DUP3 ADD MLOAD DUP2 PUSH1 0x5 ADD SSTORE PUSH1 0xC0 DUP3 ADD MLOAD DUP2 PUSH1 0x6 ADD SSTORE POP POP PUSH1 0x1 PUSH1 0x2 PUSH0 DUP5 DUP2 MSTORE PUSH1 0x20 ADD SWAP1 DUP2 MSTORE PUSH1 0x20 ADD PUSH0 KECCAK256 DUP2 SWAP1 SSTORE POP CALLER PUSH20 0xFFFFFFFFFFFFFFFFFFFFFFFFFFFFFFFFFFFFFFFF AND DUP3 PUSH32 0x25DBD9D5E9A733340719A19EBDA07122156565F4099EF52D5C73614C7F6AF4E5 PUSH1 0x2 PUSH0 DUP7 DUP2 MSTORE PUSH1 0x20 ADD SWAP1 DUP2 MSTORE PUSH1 0x20 ADD PUSH0 KECCAK256 SLOAD TIMESTAMP PUSH1 0x40 MLOAD PUSH2 0xF24 SWAP3 SWAP2 SWAP1 PUSH2 0x1C02 JUMP JUMPDEST PUSH1 0x40 MLOAD DUP1 SWAP2 SUB SWAP1 LOG3 POP POP JUMP JUMPDEST PUSH0 PUSH1 0x2 PUSH0 DUP5 DUP2 MSTORE PUSH1 0x20 ADD SWAP1 DUP2 MSTORE PUSH1 0x20 ADD PUSH0 KECCAK256 SLOAD SWAP1 POP PUSH0 PUSH0 DUP5 DUP2 MSTORE PUSH1 0x20 ADD SWAP1 DUP2 MSTORE PUSH1 0x20 ADD PUSH0 KECCAK256 PUSH1 0x40 MLOAD DUP1 PUSH1 0xE0 ADD PUSH1 0x40 MSTORE DUP1 CALLER PUSH20 0xFFFFFFFFFFFFFFFFFFFFFFFFFFFFFFFFFFFFFFFF AND DUP2 MSTORE PUSH1 0x20 ADD DUP6 DUP2 MSTORE PUSH1 0x20 ADD PUSH1 0x6 DUP1 DUP2 GT ISZERO PUSH2 0xF95 JUMPI PUSH2 0xF94 PUSH2 0x155E JUMP JUMPDEST JUMPDEST DUP2 MSTORE PUSH1 0x20 ADD PUSH1 0x40 MLOAD DUP1 PUSH1 0x20 ADD PUSH1 0x40 MSTORE DUP1 PUSH0 DUP2 MSTORE POP DUP2 MSTORE PUSH1 0x20 ADD DUP4 DUP2 MSTORE PUSH1 0x20 ADD TIMESTAMP DUP2 MSTORE PUSH1 0x20 ADD DUP5 DUP2 MSTORE POP SWAP1 DUP1 PUSH1 0x1 DUP2 SLOAD ADD DUP1 DUP3 SSTORE DUP1 SWAP2 POP POP PUSH1 0x1 SWAP1 SUB SWAP1 PUSH0 MSTORE PUSH1 0x20 PUSH0 KECCAK256 SWAP1 PUSH1 0x7 MUL ADD PUSH0 SWAP1 SWAP2 SWAP1 SWAP2 SWAP1 SWAP2 POP PUSH0 DUP3 ADD MLOAD DUP2 PUSH0 ADD PUSH0 PUSH2 0x100 EXP DUP2 SLOAD DUP2 PUSH20 0xFFFFFFFFFFFFFFFFFFFFFFFFFFFFFFFFFFFFFFFF MUL NOT AND SWAP1 DUP4 PUSH20 0xFFFFFFFFFFFFFFFFFFFFFFFFFFFFFFFFFFFFFFFF AND MUL OR SWAP1 SSTORE POP PUSH1 0x20 DUP3 ADD MLOAD DUP2 PUSH1 0x1 ADD SSTORE PUSH1 0x40 DUP3 ADD MLOAD DUP2 PUSH1 0x2 ADD PUSH0 PUSH2 0x100 EXP DUP2 SLOAD DUP2 PUSH1 0xFF MUL NOT AND SWAP1 DUP4 PUSH1 0x6 DUP2 GT ISZERO PUSH2 0x105C JUMPI PUSH2 0x105B PUSH2 0x155E JUMP JUMPDEST JUMPDEST MUL OR SWAP1 SSTORE POP PUSH1 0x60 DUP3 ADD MLOAD DUP2 PUSH1 0x3 ADD SWAP1 DUP2 PUSH2 0x1076 SWAP2 SWAP1 PUSH2 0x1ABF JUMP JUMPDEST POP PUSH1 0x80 DUP3 ADD MLOAD DUP2 PUSH1 0x4 ADD SSTORE PUSH1 0xA0 DUP3 ADD MLOAD DUP2 PUSH1 0x5 ADD SSTORE PUSH1 0xC0 DUP3 ADD MLOAD DUP2 PUSH1 0x6 ADD SSTORE POP POP PUSH1 0x2 PUSH0 DUP5 DUP2 MSTORE PUSH1 0x20 ADD SWAP1 DUP2 MSTORE PUSH1 0x20 ADD PUSH0 KECCAK256 PUSH0 DUP2 SLOAD DUP1 SWAP3 SWAP2 SWAP1 PUSH2 0x10B8 SWAP1 PUSH2 0x1BBB JUMP JUMPDEST SWAP2 SWAP1 POP SSTORE POP CALLER PUSH20 0xFFFFFFFFFFFFFFFFFFFFFFFFFFFFFFFFFFFFFFFF AND DUP4 PUSH32 0xF6BBA8FF2989B8DED9EC92BB66241F10111FC157480ACC5741CDBABE4AAF8A5D PUSH1 0x2 PUSH0 DUP8 DUP2 MSTORE PUSH1 0x20 ADD SWAP1 DUP2 MSTORE PUSH1 0x20 ADD PUSH0 KECCAK256 SLOAD TIMESTAMP PUSH1 0x40 MLOAD PUSH2 0x1117 SWAP3 SWAP2 SWAP1 PUSH2 0x1C02 JUMP JUMPDEST PUSH1 0x40 MLOAD DUP1 SWAP2 SUB SWAP1 LOG3 POP POP POP JUMP JUMPDEST PUSH1 0x1 PUSH0 SWAP1 SLOAD SWAP1 PUSH2 0x100 EXP SWAP1 DIV PUSH20 0xFFFFFFFFFFFFFFFFFFFFFFFFFFFFFFFFFFFFFFFF AND DUP2 JUMP JUMPDEST PUSH0 PUSH1 0x2 PUSH0 DUP5 DUP2 MSTORE PUSH1 0x20 ADD SWAP1 DUP2 MSTORE PUSH1 0x20 ADD PUSH0 KECCAK256 SLOAD SWAP1 POP PUSH0 PUSH0 DUP5 DUP2 MSTORE PUSH1 0x20 ADD SWAP1 DUP2 MSTORE PUSH1 0x20 ADD PUSH0 KECCAK256 PUSH1 0x40 MLOAD DUP1 PUSH1 0xE0 ADD PUSH1 0x40 MSTORE DUP1 CALLER PUSH20 0xFFFFFFFFFFFFFFFFFFFFFFFFFFFFFFFFFFFFFFFF AND DUP2 MSTORE PUSH1 0x20 ADD DUP6 DUP2 MSTORE PUSH1 0x20 ADD PUSH1 0x1 PUSH1 0x6 DUP2 GT ISZERO PUSH2 0x11AF JUMPI PUSH2 0x11AE PUSH2 0x155E JUMP JUMPDEST JUMPDEST DUP2 MSTORE PUSH1 0x20 ADD PUSH1 0x40 MLOAD DUP1 PUSH1 0x20 ADD PUSH1 0x40 MSTORE DUP1 PUSH0 DUP2 MSTORE POP DUP2 MSTORE PUSH1 0x20 ADD DUP4 DUP2 MSTORE PUSH1 0x20 ADD TIMESTAMP DUP2 MSTORE PUSH1 0x20 ADD PUSH0 PUSH0 SHL DUP2 MSTORE POP SWAP1 DUP1 PUSH1 0x1 DUP2 SLOAD ADD DUP1 DUP3 SSTORE DUP1 SWAP2 POP POP PUSH1 0x1 SWAP1 SUB SWAP1 PUSH0 MSTORE PUSH1 0x20 PUSH0 KECCAK256 SWAP1 PUSH1 0x7 MUL ADD PUSH0 SWAP1 SWAP2 SWAP1 SWAP2 SWAP1 SWAP2 POP PUSH0 DUP3 ADD MLOAD DUP2 PUSH0 ADD PUSH0 PUSH2 0x100 EXP DUP2 SLOAD DUP2 PUSH20 0xFFFFFFFFFFFFFFFFFFFFFFFFFFFFFFFFFFFFFFFF MUL NOT AND SWAP1 DUP4 PUSH20 0xFFFFFFFFFFFFFFFFFFFFFFFFFFFFFFFFFFFFFFFF AND MUL OR SWAP1 SSTORE POP PUSH1 0x20 DUP3 ADD MLOAD DUP2 PUSH1 0x1 ADD SSTORE PUSH1 0x40 DUP3 ADD MLOAD DUP2 PUSH1 0x2 ADD PUSH0 PUSH2 0x100 EXP DUP2 SLOAD DUP2 PUSH1 0xFF MUL NOT AND SWAP1 DUP4 PUSH1 0x6 DUP2 GT ISZERO PUSH2 0x1278 JUMPI PUSH2 0x1277 PUSH2 0x155E JUMP JUMPDEST JUMPDEST MUL OR SWAP1 SSTORE POP PUSH1 0x60 DUP3 ADD MLOAD DUP2 PUSH1 0x3 ADD SWAP1 DUP2 PUSH2 0x1292 SWAP2 SWAP1 PUSH2 0x1ABF JUMP JUMPDEST POP PUSH1 0x80 DUP3 ADD MLOAD DUP2 PUSH1 0x4 ADD SSTORE PUSH1 0xA0 DUP3 ADD MLOAD DUP2 PUSH1 0x5 ADD SSTORE PUSH1 0xC0 DUP3 ADD MLOAD DUP2 PUSH1 0x6 ADD SSTORE POP POP PUSH1 0x2 PUSH0 DUP5 DUP2 MSTORE PUSH1 0x20 ADD SWAP1 DUP2 MSTORE PUSH1 0x20 ADD PUSH0 KECCAK256 PUSH0 DUP2 SLOAD DUP1 SWAP3 SWAP2 SWAP1 PUSH2 0x12D4 SWAP1 PUSH2 0x1BBB JUMP JUMPDEST SWAP2 SWAP1 POP SSTORE POP CALLER PUSH20 0xFFFFFFFFFFFFFFFFFFFFFFFFFFFFFFFFFFFFFFFF AND DUP4 PUSH32 0x70EAAEE2D8118D697B7EF2654D928E5CFF4561BF2D1D14A59F7E31E50D5B5361 DUP4 TIMESTAMP DUP7 PUSH1 0x40 MLOAD PUSH2 0x1324 SWAP4 SWAP3 SWAP2 SWAP1 PUSH2 0x1C29 JUMP JUMPDEST PUSH1 0x40 MLOAD DUP1 SWAP2 SUB SWAP1 LOG3 POP POP POP JUMP JUMPDEST PUSH0 PUSH0 REVERT JUMPDEST PUSH0 DUP2 SWAP1 POP SWAP2 SWAP1 POP JUMP JUMPDEST PUSH2 0x1347 DUP2 PUSH2 0x1335 JUMP JUMPDEST DUP2 EQ PUSH2 0x1351 JUMPI PUSH0 PUSH0 REVERT JUMPDEST POP JUMP JUMPDEST PUSH0 DUP2 CALLDATALOAD SWAP1 POP PUSH2 0x1362 DUP2 PUSH2 0x133E JUMP JUMPDEST SWAP3 SWAP2 POP POP JUMP JUMPDEST PUSH0 PUSH1 0x20 DUP3 DUP5 SUB SLT ISZERO PUSH2 0x137D JUMPI PUSH2 0x137C PUSH2 0x1331 JUMP JUMPDEST JUMPDEST PUSH0 PUSH2 0x138A DUP5 DUP3 DUP6 ADD PUSH2 0x1354 JUMP JUMPDEST SWAP2 POP POP SWAP3 SWAP2 POP POP JUMP JUMPDEST PUSH0 DUP2 SWAP1 POP SWAP2 SWAP1 POP JUMP JUMPDEST PUSH2 0x13A5 DUP2 PUSH2 0x1393 JUMP JUMPDEST DUP3 MSTORE POP POP JUMP JUMPDEST PUSH0 PUSH1 0x20 DUP3 ADD SWAP1 POP PUSH2 0x13BE PUSH0 DUP4 ADD DUP5 PUSH2 0x139C JUMP JUMPDEST SWAP3 SWAP2 POP POP JUMP JUMPDEST PUSH0 PUSH0 PUSH1 0x40 DUP4 DUP6 SUB SLT ISZERO PUSH2 0x13DA JUMPI PUSH2 0x13D9 PUSH2 0x1331 JUMP JUMPDEST JUMPDEST PUSH0 PUSH2 0x13E7 DUP6 DUP3 DUP7 ADD PUSH2 0x1354 JUMP JUMPDEST SWAP3 POP POP PUSH1 0x20 PUSH2 0x13F8 DUP6 DUP3 DUP7 ADD PUSH2 0x1354 JUMP JUMPDEST SWAP2 POP POP SWAP3 POP SWAP3 SWAP1 POP JUMP JUMPDEST PUSH0 PUSH20 0xFFFFFFFFFFFFFFFFFFFFFFFFFFFFFFFFFFFFFFFF DUP3 AND SWAP1 POP SWAP2 SWAP1 POP JUMP JUMPDEST PUSH0 PUSH2 0x142B DUP3 PUSH2 0x1402 JUMP JUMPDEST SWAP1 POP SWAP2 SWAP1 POP JUMP JUMPDEST PUSH2 0x143B DUP2 PUSH2 0x1421 JUMP JUMPDEST DUP2 EQ PUSH2 0x1445 JUMPI PUSH0 PUSH0 REVERT JUMPDEST POP JUMP JUMPDEST PUSH0 DUP2 CALLDATALOAD SWAP1 POP PUSH2 0x1456 DUP2 PUSH2 0x1432 JUMP JUMPDEST SWAP3 SWAP2 POP POP JUMP JUMPDEST PUSH0 PUSH1 0x20 DUP3 DUP5 SUB SLT ISZERO PUSH2 0x1471 JUMPI PUSH2 0x1470 PUSH2 0x1331 JUMP JUMPDEST JUMPDEST PUSH0 PUSH2 0x147E DUP5 DUP3 DUP6 ADD PUSH2 0x1448 JUMP JUMPDEST SWAP2 POP POP SWAP3 SWAP2 POP POP JUMP JUMPDEST PUSH0 DUP2 MLOAD SWAP1 POP SWAP2 SWAP1 POP JUMP JUMPDEST PUSH0 DUP3 DUP3 MSTORE PUSH1 0x20 DUP3 ADD SWAP1 POP SWAP3 SWAP2 POP POP JUMP JUMPDEST DUP3 DUP2 DUP4 MCOPY PUSH0 DUP4 DUP4 ADD MSTORE POP POP POP JUMP JUMPDEST PUSH0 PUSH1 0x1F NOT PUSH1 0x1F DUP4 ADD AND SWAP1 POP SWAP2 SWAP1 POP JUMP JUMPDEST PUSH0 PUSH2 0x14C9 DUP3 PUSH2 0x1487 JUMP JUMPDEST PUSH2 0x14D3 DUP2 DUP6 PUSH2 0x1491 JUMP JUMPDEST SWAP4 POP PUSH2 0x14E3 DUP2 DUP6 PUSH1 0x20 DUP7 ADD PUSH2 0x14A1 JUMP JUMPDEST PUSH2 0x14EC DUP2 PUSH2 0x14AF JUMP JUMPDEST DUP5 ADD SWAP2 POP POP SWAP3 SWAP2 POP POP JUMP JUMPDEST PUSH0 PUSH1 0x20 DUP3 ADD SWAP1 POP DUP2 DUP2 SUB PUSH0 DUP4 ADD MSTORE PUSH2 0x150F DUP2 DUP5 PUSH2 0x14BF JUMP JUMPDEST SWAP1 POP SWAP3 SWAP2 POP POP JUMP JUMPDEST PUSH0 DUP2 MLOAD SWAP1 POP SWAP2 SWAP1 POP JUMP JUMPDEST PUSH0 DUP3 DUP3 MSTORE PUSH1 0x20 DUP3 ADD SWAP1 POP SWAP3 SWAP2 POP POP JUMP JUMPDEST PUSH0 DUP2 SWAP1 POP PUSH1 0x20 DUP3 ADD SWAP1 POP SWAP2 SWAP1 POP JUMP JUMPDEST PUSH2 0x1549 DUP2 PUSH2 0x1421 JUMP JUMPDEST DUP3 MSTORE POP POP JUMP JUMPDEST PUSH2 0x1558 DUP2 PUSH2 0x1335 JUMP JUMPDEST DUP3 MSTORE POP POP JUMP JUMPDEST PUSH32 0x4E487B7100000000000000000000000000000000000000000000000000000000 PUSH0 MSTORE PUSH1 0x21 PUSH1 0x4 MSTORE PUSH1 0x24 PUSH0 REVERT JUMPDEST PUSH1 0x7 DUP2 LT PUSH2 0x159C JUMPI PUSH2 0x159B PUSH2 0x155E JUMP JUMPDEST JUMPDEST POP JUMP JUMPDEST PUSH0 DUP2 SWAP1 POP PUSH2 0x15AC DUP3 PUSH2 0x158B JUMP JUMPDEST SWAP2 SWAP1 POP JUMP JUMPDEST PUSH0 PUSH2 0x15BB DUP3 PUSH2 0x159F JUMP JUMPDEST SWAP1 POP SWAP2 SWAP1 POP JUMP JUMPDEST PUSH2 0x15CB DUP2 PUSH2 0x15B1 JUMP JUMPDEST DUP3 MSTORE POP POP JUMP JUMPDEST PUSH0 DUP3 DUP3 MSTORE PUSH1 0x20 DUP3 ADD SWAP1 POP SWAP3 SWAP2 POP POP JUMP JUMPDEST PUSH0 PUSH2 0x15EB DUP3 PUSH2 0x1487 JUMP JUMPDEST PUSH2 0x15F5 DUP2 DUP6 PUSH2 0x15D1 JUMP JUMPDEST SWAP4 POP PUSH2 0x1605 DUP2 DUP6 PUSH1 0x20 DUP7 ADD PUSH2 0x14A1 JUMP JUMPDEST PUSH2 0x160E DUP2 PUSH2 0x14AF JUMP JUMPDEST DUP5 ADD SWAP2 POP POP SWAP3 SWAP2 POP POP JUMP JUMPDEST PUSH2 0x1622 DUP2 PUSH2 0x1393 JUMP JUMPDEST DUP3 MSTORE POP POP JUMP JUMPDEST PUSH0 PUSH1 0xE0 DUP4 ADD PUSH0 DUP4 ADD MLOAD PUSH2 0x163D PUSH0 DUP7 ADD DUP3 PUSH2 0x1540 JUMP JUMPDEST POP PUSH1 0x20 DUP4 ADD MLOAD PUSH2 0x1650 PUSH1 0x20 DUP7 ADD DUP3 PUSH2 0x154F JUMP JUMPDEST POP PUSH1 0x40 DUP4 ADD MLOAD PUSH2 0x1663 PUSH1 0x40 DUP7 ADD DUP3 PUSH2 0x15C2 JUMP JUMPDEST POP PUSH1 0x60 DUP4 ADD MLOAD DUP5 DUP3 SUB PUSH1 0x60 DUP7 ADD MSTORE PUSH2 0x167B DUP3 DUP3 PUSH2 0x15E1 JUMP JUMPDEST SWAP2 POP POP PUSH1 0x80 DUP4 ADD MLOAD PUSH2 0x1690 PUSH1 0x80 DUP7 ADD DUP3 PUSH2 0x1619 JUMP JUMPDEST POP PUSH1 0xA0 DUP4 ADD MLOAD PUSH2 0x16A3 PUSH1 0xA0 DUP7 ADD DUP3 PUSH2 0x1619 JUMP JUMPDEST POP PUSH1 0xC0 DUP4 ADD MLOAD PUSH2 0x16B6 PUSH1 0xC0 DUP7 ADD DUP3 PUSH2 0x154F JUMP JUMPDEST POP DUP1 SWAP2 POP POP SWAP3 SWAP2 POP POP JUMP JUMPDEST PUSH0 PUSH2 0x16CC DUP4 DUP4 PUSH2 0x1628 JUMP JUMPDEST SWAP1 POP SWAP3 SWAP2 POP POP JUMP JUMPDEST PUSH0 PUSH1 0x20 DUP3 ADD SWAP1 POP SWAP2 SWAP1 POP JUMP JUMPDEST PUSH0 PUSH2 0x16EA DUP3 PUSH2 0x1517 JUMP JUMPDEST PUSH2 0x16F4 DUP2 DUP6 PUSH2 0x1521 JUMP JUMPDEST SWAP4 POP DUP4 PUSH1 0x20 DUP3 MUL DUP6 ADD PUSH2 0x1706 DUP6 PUSH2 0x1531 JUMP JUMPDEST DUP1 PUSH0 JUMPDEST DUP6 DUP2 LT ISZERO PUSH2 0x1741 JUMPI DUP5 DUP5 SUB DUP10 MSTORE DUP2 MLOAD PUSH2 0x1722 DUP6 DUP3 PUSH2 0x16C1 JUMP JUMPDEST SWAP5 POP PUSH2 0x172D DUP4 PUSH2 0x16D4 JUMP JUMPDEST SWAP3 POP PUSH1 0x20 DUP11 ADD SWAP10 POP POP PUSH1 0x1 DUP2 ADD SWAP1 POP PUSH2 0x1709 JUMP JUMPDEST POP DUP3 SWAP8 POP DUP8 SWAP6 POP POP POP POP POP POP SWAP3 SWAP2 POP POP JUMP JUMPDEST PUSH0 PUSH1 0x20 DUP3 ADD SWAP1 POP DUP2 DUP2 SUB PUSH0 DUP4 ADD MSTORE PUSH2 0x176B DUP2 DUP5 PUSH2 0x16E0 JUMP JUMPDEST SWAP1 POP SWAP3 SWAP2 POP POP JUMP JUMPDEST PUSH2 0x177C DUP2 PUSH2 0x1393 JUMP JUMPDEST DUP2 EQ PUSH2 0x1786 JUMPI PUSH0 PUSH0 REVERT JUMPDEST POP JUMP JUMPDEST PUSH0 DUP2 CALLDATALOAD SWAP1 POP PUSH2 0x1797 DUP2 PUSH2 0x1773 JUMP JUMPDEST SWAP3 SWAP2 POP POP JUMP JUMPDEST PUSH0 PUSH0 PUSH1 0x40 DUP4 DUP6 SUB SLT ISZERO PUSH2 0x17B3 JUMPI PUSH2 0x17B2 PUSH2 0x1331 JUMP JUMPDEST JUMPDEST PUSH0 PUSH2 0x17C0 DUP6 DUP3 DUP7 ADD PUSH2 0x1354 JUMP JUMPDEST SWAP3 POP POP PUSH1 0x20 PUSH2 0x17D1 DUP6 DUP3 DUP7 ADD PUSH2 0x1789 JUMP JUMPDEST SWAP2 POP POP SWAP3 POP SWAP3 SWAP1 POP JUMP JUMPDEST PUSH2 0x17E4 DUP2 PUSH2 0x1421 JUMP JUMPDEST DUP3 MSTORE POP POP JUMP JUMPDEST PUSH2 0x17F3 DUP2 PUSH2 0x1335 JUMP JUMPDEST DUP3 MSTORE POP POP JUMP JUMPDEST PUSH2 0x1802 DUP2 PUSH2 0x15B1 JUMP JUMPDEST DUP3 MSTORE POP POP JUMP JUMPDEST PUSH0 PUSH1 0xE0 DUP3 ADD SWAP1 POP PUSH2 0x181B PUSH0 DUP4 ADD DUP11 PUSH2 0x17DB JUMP JUMPDEST PUSH2 0x1828 PUSH1 0x20 DUP4 ADD DUP10 PUSH2 0x17EA JUMP JUMPDEST PUSH2 0x1835 PUSH1 0x40 DUP4 ADD DUP9 PUSH2 0x17F9 JUMP JUMPDEST DUP2 DUP2 SUB PUSH1 0x60 DUP4 ADD MSTORE PUSH2 0x1847 DUP2 DUP8 PUSH2 0x14BF JUMP JUMPDEST SWAP1 POP PUSH2 0x1856 PUSH1 0x80 DUP4 ADD DUP7 PUSH2 0x139C JUMP JUMPDEST PUSH2 0x1863 PUSH1 0xA0 DUP4 ADD DUP6 PUSH2 0x139C JUMP JUMPDEST PUSH2 0x1870 PUSH1 0xC0 DUP4 ADD DUP5 PUSH2 0x17EA JUMP JUMPDEST SWAP9 SWAP8 POP POP POP POP POP POP POP POP JUMP JUMPDEST PUSH0 PUSH1 0x20 DUP3 ADD SWAP1 POP PUSH2 0x188F PUSH0 DUP4 ADD DUP5 PUSH2 0x17DB JUMP JUMPDEST SWAP3 SWAP2 POP POP JUMP JUMPDEST PUSH32 0x4E487B7100000000000000000000000000000000000000000000000000000000 PUSH0 MSTORE PUSH1 0x41 PUSH1 0x4 MSTORE PUSH1 0x24 PUSH0 REVERT JUMPDEST PUSH32 0x4E487B7100000000000000000000000000000000000000000000000000000000 PUSH0 MSTORE PUSH1 0x22 PUSH1 0x4 MSTORE PUSH1 0x24 PUSH0 REVERT JUMPDEST PUSH0 PUSH1 0x2 DUP3 DIV SWAP1 POP PUSH1 0x1 DUP3 AND DUP1 PUSH2 0x1906 JUMPI PUSH1 0x7F DUP3 AND SWAP2 POP JUMPDEST PUSH1 0x20 DUP3 LT DUP2 SUB PUSH2 0x1919 JUMPI PUSH2 0x1918 PUSH2 0x18C2 JUMP JUMPDEST JUMPDEST POP SWAP2 SWAP1 POP JUMP JUMPDEST PUSH0 DUP2 SWAP1 POP DUP2 PUSH0 MSTORE PUSH1 0x20 PUSH0 KECCAK256 SWAP1 POP SWAP2 SWAP1 POP JUMP JUMPDEST PUSH0 PUSH1 0x20 PUSH1 0x1F DUP4 ADD DIV SWAP1 POP SWAP2 SWAP1 POP JUMP JUMPDEST PUSH0 DUP3 DUP3 SHL SWAP1 POP SWAP3 SWAP2 POP POP JUMP JUMPDEST PUSH0 PUSH1 0x8 DUP4 MUL PUSH2 0x197B PUSH32 0xFFFFFFFFFFFFFFFFFFFFFFFFFFFFFFFFFFFFFFFFFFFFFFFFFFFFFFFFFFFFFFFF DUP3 PUSH2 0x1940 JUMP JUMPDEST PUSH2 0x1985 DUP7 DUP4 PUSH2 0x1940 JUMP JUMPDEST SWAP6 POP DUP1 NOT DUP5 AND SWAP4 POP DUP1 DUP7 AND DUP5 OR SWAP3 POP POP POP SWAP4 SWAP3 POP POP POP JUMP JUMPDEST PUSH0 DUP2 SWAP1 POP SWAP2 SWAP1 POP JUMP JUMPDEST PUSH0 PUSH2 0x19C0 PUSH2 0x19BB PUSH2 0x19B6 DUP5 PUSH2 0x1393 JUMP JUMPDEST PUSH2 0x199D JUMP JUMPDEST PUSH2 0x1393 JUMP JUMPDEST SWAP1 POP SWAP2 SWAP1 POP JUMP JUMPDEST PUSH0 DUP2 SWAP1 POP SWAP2 SWAP1 POP JUMP JUMPDEST PUSH2 0x19D9 DUP4 PUSH2 0x19A6 JUMP JUMPDEST PUSH2 0x19ED PUSH2 0x19E5 DUP3 PUSH2 0x19C7 JUMP JUMPDEST DUP5 DUP5 SLOAD PUSH2 0x194C JUMP JUMPDEST DUP3 SSTORE POP POP POP POP JUMP JUMPDEST PUSH0 PUSH0 SWAP1 POP SWAP1 JUMP JUMPDEST PUSH2 0x1A04 PUSH2 0x19F5 JUMP JUMPDEST PUSH2 0x1A0F DUP2 DUP5 DUP5 PUSH2 0x19D0 JUMP JUMPDEST POP POP POP JUMP JUMPDEST JUMPDEST DUP2 DUP2 LT ISZERO PUSH2 0x1A32 JUMPI PUSH2 0x1A27 PUSH0 DUP3 PUSH2 0x19FC JUMP JUMPDEST PUSH1 0x1 DUP2 ADD SWAP1 POP PUSH2 0x1A15 JUMP JUMPDEST POP POP JUMP JUMPDEST PUSH1 0x1F DUP3 GT ISZERO PUSH2 0x1A77 JUMPI PUSH2 0x1A48 DUP2 PUSH2 0x191F JUMP JUMPDEST PUSH2 0x1A51 DUP5 PUSH2 0x1931 JUMP JUMPDEST DUP2 ADD PUSH1 0x20 DUP6 LT ISZERO PUSH2 0x1A60 JUMPI DUP2 SWAP1 POP JUMPDEST PUSH2 0x1A74 PUSH2 0x1A6C DUP6 PUSH2 0x1931 JUMP JUMPDEST DUP4 ADD DUP3 PUSH2 0x1A14 JUMP JUMPDEST POP POP JUMPDEST POP POP POP JUMP JUMPDEST PUSH0 DUP3 DUP3 SHR SWAP1 POP SWAP3 SWAP2 POP POP JUMP JUMPDEST PUSH0 PUSH2 0x1A97 PUSH0 NOT DUP5 PUSH1 0x8 MUL PUSH2 0x1A7C JUMP JUMPDEST NOT DUP1 DUP4 AND SWAP2 POP POP SWAP3 SWAP2 POP POP JUMP JUMPDEST PUSH0 PUSH2 0x1AAF DUP4 DUP4 PUSH2 0x1A88 JUMP JUMPDEST SWAP2 POP DUP3 PUSH1 0x2 MUL DUP3 OR SWAP1 POP SWAP3 SWAP2 POP POP JUMP JUMPDEST PUSH2 0x1AC8 DUP3 PUSH2 0x1487 JUMP JUMPDEST PUSH8 0xFFFFFFFFFFFFFFFF DUP2 GT ISZERO PUSH2 0x1AE1 JUMPI PUSH2 0x1AE0 PUSH2 0x1895 JUMP JUMPDEST JUMPDEST PUSH2 0x1AEB DUP3 SLOAD PUSH2 0x18EF JUMP JUMPDEST PUSH2 0x1AF6 DUP3 DUP3 DUP6 PUSH2 0x1A36 JUMP JUMPDEST PUSH0 PUSH1 0x20 SWAP1 POP PUSH1 0x1F DUP4 GT PUSH1 0x1 DUP2 EQ PUSH2 0x1B27 JUMPI PUSH0 DUP5 ISZERO PUSH2 0x1B15 JUMPI DUP3 DUP8 ADD MLOAD SWAP1 POP JUMPDEST PUSH2 0x1B1F DUP6 DUP3 PUSH2 0x1AA4 JUMP JUMPDEST DUP7 SSTORE POP PUSH2 0x1B86 JUMP JUMPDEST PUSH1 0x1F NOT DUP5 AND PUSH2 0x1B35 DUP7 PUSH2 0x191F JUMP JUMPDEST PUSH0 JUMPDEST DUP3 DUP2 LT ISZERO PUSH2 0x1B5C JUMPI DUP5 DUP10 ADD MLOAD DUP3 SSTORE PUSH1 0x1 DUP3 ADD SWAP2 POP PUSH1 0x20 DUP6 ADD SWAP5 POP PUSH1 0x20 DUP2 ADD SWAP1 POP PUSH2 0x1B37 JUMP JUMPDEST DUP7 DUP4 LT ISZERO PUSH2 0x1B79 JUMPI DUP5 DUP10 ADD MLOAD PUSH2 0x1B75 PUSH1 0x1F DUP10 AND DUP3 PUSH2 0x1A88 JUMP JUMPDEST DUP4 SSTORE POP JUMPDEST PUSH1 0x1 PUSH1 0x2 DUP9 MUL ADD DUP9 SSTORE POP POP POP JUMPDEST POP POP POP POP POP POP JUMP JUMPDEST PUSH32 0x4E487B7100000000000000000000000000000000000000000000000000000000 PUSH0 MSTORE PUSH1 0x11 PUSH1 0x4 MSTORE PUSH1 0x24 PUSH0 REVERT JUMPDEST PUSH0 PUSH2 0x1BC5 DUP3 PUSH2 0x1393 JUMP JUMPDEST SWAP2 POP PUSH32 0xFFFFFFFFFFFFFFFFFFFFFFFFFFFFFFFFFFFFFFFFFFFFFFFFFFFFFFFFFFFFFFFF DUP3 SUB PUSH2 0x1BF7 JUMPI PUSH2 0x1BF6 PUSH2 0x1B8E JUMP JUMPDEST JUMPDEST PUSH1 0x1 DUP3 ADD SWAP1 POP SWAP2 SWAP1 POP JUMP JUMPDEST PUSH0 PUSH1 0x40 DUP3 ADD SWAP1 POP PUSH2 0x1C15 PUSH0 DUP4 ADD DUP6 PUSH2 0x139C JUMP JUMPDEST PUSH2 0x1C22 PUSH1 0x20 DUP4 ADD DUP5 PUSH2 0x139C JUMP JUMPDEST SWAP4 SWAP3 POP POP POP JUMP JUMPDEST PUSH0 PUSH1 0x60 DUP3 ADD SWAP1 POP PUSH2 0x1C3C PUSH0 DUP4 ADD DUP7 PUSH2 0x139C JUMP JUMPDEST PUSH2 0x1C49 PUSH1 0x20 DUP4 ADD DUP6 PUSH2 0x139C JUMP JUMPDEST PUSH2 0x1C56 PUSH1 0x40 DUP4 ADD DUP5 PUSH2 0x17EA JUMP JUMPDEST SWAP5 SWAP4 POP POP POP POP JUMP INVALID LOG2 PUSH5 0x6970667358 0x22 SLT KECCAK256 TSTORE 0xA9 TLOAD DUPN 0xE5 STATICCALL 0xD RETURNDATACOPY SSTORE ORIGIN CALLF 0x40D8 EOFCREATE 0x84 EQ RETURN DIV SLT CODECOPY 0xCE 0xC9 JUMP SELFBALANCE MSTORE8 EXTCALL RETURN EXP 0xA7 DUPN 0x59 TLOAD PUSH5 0x736F6C6343 STOP ADDMOD 0x1E STOP CALLER "
				},
				"gasEstimates": {
					"creation": {
						"codeDepositCost": "1463200",
						"executionCost": "infinite",
						"totalCost": "infinite"
					},
					"external": {
						"admin()": "2596",
						"approveLoan(bytes32)": "infinite",
						"createThread(bytes32)": "infinite",
						"getThreadActions(bytes32)": "infinite",
						"receiveRiskEvaluation(bytes32,bytes32)": "infinite",
						"receiveRiskEvaluationResult(bytes32,bytes32)": "infinite",
						"rejectLoan(bytes32)": "infinite",
						"requestRiskEvaluation(bytes32)": "infinite",
						"roles(address)": "infinite",
						"sendProof(bytes32,bytes32)": "infinite",
						"sequenceNumbers(bytes32)": "2755",
						"threadActions(bytes32,uint256)": "infinite"
					}
				},
				"methodIdentifiers": {
					"admin()": "f851a440",
					"approveLoan(bytes32)": "bbfe6e95",
					"createThread(bytes32)": "beddd1e4",
					"getThreadActions(bytes32)": "ba9e3798",
					"receiveRiskEvaluation(bytes32,bytes32)": "ef3f4ad5",
					"receiveRiskEvaluationResult(bytes32,bytes32)": "fcb526d7",
					"rejectLoan(bytes32)": "73f1869b",
					"requestRiskEvaluation(bytes32)": "9043f828",
					"roles(address)": "99374642",
					"sendProof(bytes32,bytes32)": "9786cd8a",
					"sequenceNumbers(bytes32)": "53ffdf74",
					"threadActions(bytes32,uint256)": "bbcb3224"
				}
			},
			"storageLayout": {
				"storage": [
					{
						"astId": 31,
						"contract": "contracts/LoanCoordinationThread.sol:CommunicationsTool",
						"label": "threadActions",
						"offset": 0,
						"slot": "0",
						"type": "t_mapping(t_bytes32,t_array(t_struct(ThreadAction)25_storage)dyn_storage)"
					},
					{
						"astId": 33,
						"contract": "contracts/LoanCoordinationThread.sol:CommunicationsTool",
						"label": "admin",
						"offset": 0,
						"slot": "1",
						"type": "t_address"
					},
					{
						"astId": 37,
						"contract": "contracts/LoanCoordinationThread.sol:CommunicationsTool",
						"label": "sequenceNumbers",
						"offset": 0,
						"slot": "2",
						"type": "t_mapping(t_bytes32,t_uint256)"
					},
					{
						"astId": 41,
						"contract": "contracts/LoanCoordinationThread.sol:CommunicationsTool",
						"label": "roles",
						"offset": 0,
						"slot": "3",
						"type": "t_mapping(t_address,t_string_storage)"
					}
				],
				"types": {
					"t_address": {
						"encoding": "inplace",
						"label": "address",
						"numberOfBytes": "20"
					},
					"t_array(t_struct(ThreadAction)25_storage)dyn_storage": {
						"base": "t_struct(ThreadAction)25_storage",
						"encoding": "dynamic_array",
						"label": "struct CommunicationsTool.ThreadAction[]",
						"numberOfBytes": "32"
					},
					"t_bytes32": {
						"encoding": "inplace",
						"label": "bytes32",
						"numberOfBytes": "32"
					},
					"t_enum(MessageType)9": {
						"encoding": "inplace",
						"label": "enum CommunicationsTool.MessageType",
						"numberOfBytes": "1"
					},
					"t_mapping(t_address,t_string_storage)": {
						"encoding": "mapping",
						"key": "t_address",
						"label": "mapping(address => string)",
						"numberOfBytes": "32",
						"value": "t_string_storage"
					},
					"t_mapping(t_bytes32,t_array(t_struct(ThreadAction)25_storage)dyn_storage)": {
						"encoding": "mapping",
						"key": "t_bytes32",
						"label": "mapping(bytes32 => struct CommunicationsTool.ThreadAction[])",
						"numberOfBytes": "32",
						"value": "t_array(t_struct(ThreadAction)25_storage)dyn_storage"
					},
					"t_mapping(t_bytes32,t_uint256)": {
						"encoding": "mapping",
						"key": "t_bytes32",
						"label": "mapping(bytes32 => uint256)",
						"numberOfBytes": "32",
						"value": "t_uint256"
					},
					"t_string_storage": {
						"encoding": "bytes",
						"label": "string",
						"numberOfBytes": "32"
					},
					"t_struct(ThreadAction)25_storage": {
						"encoding": "inplace",
						"label": "struct CommunicationsTool.ThreadAction",
						"members": [
							{
								"astId": 11,
								"contract": "contracts/LoanCoordinationThread.sol:CommunicationsTool",
								"label": "sender",
								"offset": 0,
								"slot": "0",
								"type": "t_address"
							},
							{
								"astId": 13,
								"contract": "contracts/LoanCoordinationThread.sol:CommunicationsTool",
								"label": "threadId",
								"offset": 0,
								"slot": "1",
								"type": "t_bytes32"
							},
							{
								"astId": 16,
								"contract": "contracts/LoanCoordinationThread.sol:CommunicationsTool",
								"label": "messageType",
								"offset": 0,
								"slot": "2",
								"type": "t_enum(MessageType)9"
							},
							{
								"astId": 18,
								"contract": "contracts/LoanCoordinationThread.sol:CommunicationsTool",
								"label": "ciphertextURI",
								"offset": 0,
								"slot": "3",
								"type": "t_string_storage"
							},
							{
								"astId": 20,
								"contract": "contracts/LoanCoordinationThread.sol:CommunicationsTool",
								"label": "sequenceNumber",
								"offset": 0,
								"slot": "4",
								"type": "t_uint256"
							},
							{
								"astId": 22,
								"contract": "contracts/LoanCoordinationThread.sol:CommunicationsTool",
								"label": "timestamp",
								"offset": 0,
								"slot": "5",
								"type": "t_uint256"
							},
							{
								"astId": 24,
								"contract": "contracts/LoanCoordinationThread.sol:CommunicationsTool",
								"label": "payloadHash",
								"offset": 0,
								"slot": "6",
								"type": "t_bytes32"
							}
						],
						"numberOfBytes": "224"
					},
					"t_uint256": {
						"encoding": "inplace",
						"label": "uint256",
						"numberOfBytes": "32"
					}
				}
			},
			"userdoc": {
				"kind": "user",
				"methods": {},
				"version": 1
			}
		}
	}
}